:020000040800F2
:10000000E0040020250500082D0500082F05000844
:100010003105000833050008350500080000000020
:1000200000000000000000000000000009020008BD
:100030003905000800000000AD0200080D030008AB
:100040003F0500083F0500083F0500083F05000880
:100050003F0500083F0500083F050008EF130008B2
:100060003F0500083F0500083F0500083F05000860
:100070003F0500083F0500083F0500083F05000850
:100080003F0500083F0500083F0500083F05000840
:100090003F0500083F0500083F0500083F05000830
:1000A0003F0500083F0500083F0500083F05000820
:1000B0003F0500083F0500083F0500083F05000810
:1000C0003F0500083F0500083F0500083F05000800
:1000D0003F0500083F0500083F0500083F050008F0
:1000E0003F0500083F0500083F0500083F050008E0
:1000F0003F0500083F0500083F0500083F050008D0
:100100003F0500083F0500083F0500083F050008BF
:100110003F0500083F0500083F0500083F050008AF
:100120003F0500083F0500083F0500083F0500089F
:100130003F0500083F0500083F0500083F0500088F
:100140003F0500083F0500083F0500083F0500087F
:100150003F0500083F0500083F0500083F0500086F
:100160003F0500083F0500083F0500083F0500085F
:100170003F0500083F0500083F0500083F0500084F
:100180003F0500083F050008DFF814D003F040FAEF
:100190000021024805F06AF8FEE7000084610008CB
:1001A000E004002080F309887047684680F30988DE
:1001B00004480078C00714BF0220032080F314888D
:1001C000704700004C610008DFF818C0EFF30583AA
:1001D0001B0618BF6047EFF31483DB0708BF6047B7
:1001E00000DF704781530008DFF818C0EFF3058384
:1001F0001B0618BF6047EFF31483DB0708BF604797
:1002000000DF704765550008EFF30980816911F838
:10021000021C002933D190E80F1010B5E047BDE86B
:100220001040EFF3098C8CE807001D4B93E80600A3
:10023000914208BF704781B11EF0100F06BF2CED30
:10024000108A0120002081F820002CE9F00FC1F86D
:1002500024C00CB405F054FC0CBC1A60D2F824C0C5
:10026000BCE8F00F92F8200000281ABFBCEC108AFE
:100270006FF0120E6FF0020E8CF30988704710B504
:10028000084A1268914209D8074C54F8214090E876
:100290000F10A047EFF3098C8CE80F0010BD000091
:1002A00064000020983600089836000810B505F064
:1002B000FFFABDE81040174B93E80600914208BFD3
:1002C0007047EFF3098C1EF0100F06BF2CED108A5B
:1002D0000120002081F820002CE9F00FC1F824C093
:1002E0000CB405F00DFC0CBC1A60D2F824C0BCE8BC
:1002F000F00F92F8200000281ABFBCEC108A6FF0B3
:10030000120E6FF0020E8CF30988704710B505F0DD
:10031000BDFCCEE7640000200CB5002001900090E9
:100320007548006840F480307349086000BF724827
:10033000006800F4003000900198401C0190009883
:1003400018B90198B0F5A06FF1D16B48006810F4AE
:10035000003F02D00120009001E0002000900098B2
:10036000012845D164484030006840F0805062491F
:10037000403108606148006840F480405F4908608F
:100380005D48083000685C4908310860084600682C
:1003900040F4004008600846006840F4A05008603F
:1003A0005748091F0860081F006840F08070091F47
:1003B000086000BF5048006810F0007FFAD040F29B
:1003C0000560504908604C480830006820F0030080
:1003D0004949083108600846006840F0020008609A
:1003E00000BF45480830006800F00C000828F8D12C
:1003F0000CBD10B54448006840F4700042490860E4
:100400003D48006840F001003B49086000203A493F
:1004100008310860384800683C490840364908609F
:100420003B48091D0860081F006820F48020091F50
:100430000860002030490C310860FFF76DFF4FF075
:10044000006031498039086010BD70B5002000227D
:10045000022300240221284D08352D6805F00C00E8
:1004600020B1042806D0082834D107E0294D2A4EAF
:10047000356033E0294D284E35602FE01E4D2D1D8F
:100480002D68C5F380541C4D2D1D2D6805F03F01CE
:1004900054B1224DB5FBF1F5174E361D3668C6F343
:1004A000881605FB06F209E01A4DB5FBF1F5124E70
:1004B000361D3668C6F3881605FB06F20E4D2D1D57
:1004C0002D68C5F301456D1C6B00B2FBF3F5124EB0
:1004D000356003E00F4D104E356000BF00BF064D84
:1004E00008352D68C5F303150D4E705D0A4D2D6856
:1004F000C540094E356070BD0038024000700040B4
:1005000008544007003C024088ED00E0FFFFF6FE83
:10051000103000240024F4000000002000127A00B3
:10052000040000200648804706480047FEE7FEE733
:10053000FEE7FEE7FEE7FEE7FEE7FEE7FEE7FEE793
:10054000F30300088901000800BFFEE700BFFEE7D3
:100550001CB50121082002F0A5F94FF4805000904D
:1005600001208DF8040000208DF8060003208DF88E
:10057000050000208DF807006946344801F04CFF63
:100580000121084602F08EF90120009000208DF82C
:10059000040002208DF8050000208DF806000220DE
:1005A0008DF8070069462A4801F036FF00F05CFF2D
:1005B0004CF2503000F07BFB01F027F84CF2503049
:1005C00000F075FB4CF2503000F071FB01F029F89F
:1005D00000F0E7FF01F001F801F00BF84B2001F00B
:1005E0002CF8562001F029F800F0DBFF502001F034
:1005F00024F8642001F021F80021164804F08CFE54
:100600000021154804F088FE0021144804F084FEFF
:1006100007E00F48006910F0010F02D010A003F0AE
:100620003DF8F6E711E04FF47A7004F013FE4FF452
:1006300080500649183108804FF47A7004F00AFEA1
:100640004FF4805001491A310880ECE7000C024059
:100650000000024094610008A4610008B461000831
:10066000546865207573657220627574746F6E20AE
:10067000686173206265656E20707265737365646E
:100680002E0A00001CB540208DF8000000208DF8D7
:10069000010007208DF8020000208DF803008DF87E
:1006A0000400684600F052FD1CBD000000B58DB08E
:1006B0000121080202F03AF90121042002F0F2F8C7
:1006C00001A801F0F1FE1020019001208DF8080032
:1006D00003208DF8090000208DF80A008DF80B002A
:1006E00001A9294801F098FE1021274801F010FFC8
:1006F0001021254801F00EFF01221021224801F0AF
:100700000BFF1621204801F00CFF002003900490FD
:100710000590069003A801F085FB002007908DF856
:1007200020008DF8210009900B9001208DF83000F9
:1007300007A9164801F047FB0121144801F08EFB80
:10074000012001F0A9FB0623012210210F4801F02E
:10075000C5FB0DB000BD10B50C4801F01BFC00BF7F
:1007600002210A4801F038FD0028F9D0074801F0BD
:100770004DFC0221054801F038FD044801F046FC1B
:100780000446204610BD0000000002400020014049
:100790001CB50121082002F085F8684601F084FEAE
:1007A00040F2FF70009001208DF8040003208DF8C6
:1007B000050000208DF806008DF807006946FB480B
:1007C00001F02AFE1CBD70B505460C46002D05DB68
:1007D0000C2D03DC012C01DB032C00DD70BD032C90
:1007E00011D101221102F14801F096FE00224FF4CE
:1007F0000071EE4801F090FE00224FF48061EB485A
:1008000001F08AFE22E0022C0FD10022E101E7482C
:1008100001F082FE01225102E44801F07DFE002237
:100820006102E24801F078FE10E000224FF480718E
:10083000DE4801F071FE00224FF40071DB4801F048
:100840006BFE01229102D94801F066FE0D2D7CD28B
:10085000DFE805F007305984ADD6FEFDFCFBFAF960
:10086000F80001221146D14801F056FE0122022172
:10087000CE4801F051FE01220421CC4801F04CFE8B
:1008800000220821C94801F047FE01221021C74873
:1008900001F042FE01222021C44801F03DFE012268
:1008A0004021C24801F038FE00228021BF4801F0FB
:1008B00033FEF9E100220121BC4801F02DFE0022A7
:1008C0000221BA4801F028FE01220421B74801F0B4
:1008D00023FE00220821B54801F01EFE002210214F
:1008E000B24801F019FE01222021B04801F014FEA7
:1008F00000224021AD4801F00FFE00228021AB48CC
:1009000001F00AFED0E100220121A84801F004FE16
:1009100001220221A54801F0FFFD01220421A34884
:1009200001F0FAFD01220821A04801F0F5FD0122A5
:1009300010219E4801F0F0FD002220219B4801F08B
:10094000EBFD01224021994800E0ACE101F0E4FD1B
:1009500000228021954801F0DFFDA5E10022012160
:10096000924801F0D9FD01220221904801F0D4FD06
:10097000012204218D4801F0CFFD012208218B487E
:1009800001F0CAFD00221021884801F0C5FD0122B6
:100990002021864801F0C0FD01224021834801F05A
:1009A000BBFD00228021814801F0B6FD7CE10122DF
:1009B00011467E4801F0B0FD002202217B4801F083
:1009C000ABFD01220421794801F0A6FD0122082196
:1009D000764801F0A1FD00221021744801F09CFD31
:1009E00001222021714801F097FD002240216F482B
:1009F00001F092FD002280216C4801F08DFD53E151
:100A000001221146694801F087FD01220221674851
:100A100001F082FD00220421644801F07DFD0122E5
:100A20000821624801F078FD002210215F4801F0A2
:100A300073FD012220215D4801F06EFD012240215D
:100A40005A4806E006E1DCE0B2E085E05BE031E038
:100A500007E001F061FD00228021544801F05CFDB7
:100A600022E101221146514801F056FD01220221E6
:100A70004E4801F051FD002204214C4801F04CFD8C
:100A800001220821494801F047FD01221021474871
:100A900001F042FD01222021444801F03DFD0122E8
:100AA0004021424801F038FD002280213F4801F0FA
:100AB00033FDF9E0002201213C4801F02DFD012227
:100AC00002213A4801F028FD01220421374801F0B3
:100AD00023FD00220821354801F01EFD00221021CF
:100AE000324801F019FD01222021304801F014FDA7
:100AF000002240212D4801F00FFD002280212B48CB
:100B000001F00AFDD0E001221146284801F004FD61
:100B100001220221254801F0FFFC01220421234883
:100B200001F0FAFC01220821204801F0F5FC012225
:100B300010211E4801F0F0FC012220211B4801F089
:100B4000EBFC01224021194801F0E6FC0022802143
:100B5000164801F0E1FCA7E001221146134801F01C
:100B6000DBFC01220221114801F0D6FC0122042104
:100B70000E4801F0D1FC012208210C4801F0CCFC08
:100B800000221021094801F0C7FC0122202107485A
:100B900001F0C2FC01224021044801F0BDFC00220A
:100BA0008021024801F0B8FC7EE00000000C024009
:100BB00000220121E64801F0AFFC00220221E448B6
:100BC00001F0AAFC00220421E14801F0A5FC00226A
:100BD0000821DF4801F0A0FC00221021DC4801F0D0
:100BE0009BFC00222021DA4801F096FC00224021E3
:100BF000D74801F091FC01228021D54801F08CFCFE
:100C000052E000220121D24801F086FC002202219C
:100C1000CF4801F081FC00220421CD4801F07CFC8A
:100C200001220821CA4801F077FC00221021C8489F
:100C300001F072FC00222021C54801F06DFC002269
:100C40004021C34801F068FC00228021C04801F027
:100C500063FC29E000220121BD4801F05DFC002277
:100C60000221BB4801F058FC00220421B84801F0E1
:100C700053FC00220821B64801F04EFC002210214E
:100C8000B34801F049FC00222021B14801F044FCA6
:100C900000224021AE4801F03FFC00228021AC48F8
:100CA00001F03AFC00BF99E500BF00BF96E500BF28
:100CB0000100A0F10100FBD1704730B52DED068B8E
:100CC00085B0B0EE408A002001900290039004901D
:100CD0000A246425B2EE040AB0EE409A08EE900AA7
:100CE000B5EEC08AF1EE10FA12D218EE100A02F038
:100CF000C9F941EC100BB0EE40AAF0EE60AA53EC3B
:100D00001A2B94A002F0CAFC05B0BDEC068B30BDD6
:100D10009FED990AB4EEC08AF1EE10FA42D200EECD
:100D2000104AB8EEC00AC8EE000ABDEEE00A8DED2A
:100D3000010A0198604300EE100AB8EEC00A38EECE
:100D4000400ABDEEC00A8DED020A0A200390BDEEF6
:100D5000C80AF0EE408AB8EEE80A38EE400A20EE03
:100D6000090ABDEEC00A8DED040A03210198FFF7C0
:100D70002AFD8248FFF79BFF02210298FFF723FD1F
:100D80007E48FFF794FF02210398FFF71CFD7B4884
:100D9000FFF78DFF01210498FFF715FD7748FFF756
:100DA00086FF3CE000EE105AB8EEC00AC8EE000A1A
:100DB000BDEEE00A8DED010A0198684300EE100ACD
:100DC000B8EEC00A78EE400A00EE104AB8EEC00A4B
:100DD00080EE801ABDEEC10A8DED020A01986843CB
:100DE000029901FB040000EE100AB8EEC00A38EECA
:100DF000400ABDEEC00A8DED030A03210198FFF7FA
:100E0000E2FC5E48FFF753FF02210298FFF7DBFC8C
:100E10005A48FFF74CFF01210398FFF7D4FC00BFAD
:100E200072E710B50446E2B24FF48041484801F041
:100E300073FB10BD10B504462069F8B105E0012030
:100E4000FFF7EFFF6069401E606160690028F6D11E
:100E5000FFF7E7FFD4E90012881AFFF728FFA1691E
:100E6000A068401AA060A0686061A068002805DC46
:100E7000002020610120E060A069A060E06820B34C
:100E800005E00120FFF7CDFF6069401C6061A168AB
:100E900060698842F5DD0020FFF7C3FFD4E9011245
:100EA000881AFFF704FFA169A0680844A060002029
:100EB0006061D4E90110884207DB01202061002035
:100EC000E0606068A0606068606110BD70B52DED85
:100ED000028B84B0B0EE408A04460020019002905C
:100EE00003900A26BDEEC80A10EE105A002D03DA50
:100EF0000B2001906D4201E00C2001909FED1E0A35
:100F0000B4EEC08AF1EE10FA07D295FBF6F002902B
:100F1000029800FB1650039003E004B0BDEC028B76
:100F200070BD012C04D103210198FFF74CFC0CE0AB
:100F3000022C04D102210298FFF745FC05E0032CA6
:100F400003D101210398FFF73EFC00BFE5E7000055
:100F5000000C0240546D6570657261747572653A7B
:100F60002566206973206C657373207468656E2034
:100F70007A65726F2E0A00000000C842EB30040050
:100F8000704710B504464FF48050EA49086009E004
:100F9000E8490868411EE74A116018B9FFF7F0FFF9
:100FA000C0B210BD0221E44801F079FF0028EFD063
:100FB0002146E14801F03CFF4FF48050DD490860D4
:100FC00009E0DC490868411EDA4A116018B9FFF7E8
:100FD000D7FFC0B2E5E70121D74801F060FF002844
:100FE000EFD0D54801F021FFC0B2DAE770B5054671
:100FF0000E461446012C01DD46F040060821CF487C
:1010000001F088FA3046FFF7BCFF05E02878FFF7CB
:10101000B8FF601E84B26D1C012CF7DA0821C748A6
:1010200001F076FA70BD00B587B00121080301F028
:101030007DFC0121084601F035FC0121102001F062
:1010400031FC0121102001F02DFC0121102001F0C4
:1010500029FC05221146BA4801F069FA0522062149
:10106000B74801F064FA05220721B54801F05FFA9C
:1010700002208DF8180000208DF81A0002208DF84B
:101080001B008DF819002020059005A9AC4801F03F
:10109000C3F98020059005A9A94801F0BDF94020B9
:1010A000059005A9A64801F0B7F9A34801F038FD5D
:1010B0000020ADF80000ADF80400ADF80600ADF872
:1010C00008004FF40070ADF80A000820ADF80C00DD
:1010D0000020ADF80E000720ADF810004FF482702C
:1010E000ADF802006946944801F040FD01219248A4
:1010F00001F01DFE0820059001208DF81800002049
:101100008DF81A0002208DF8190005A98B4801F00E
:1011100083F90821894801F0FBF90120059000209E
:101120008DF818008DF81A0002208DF819000020A3
:101130008DF81B0005A9814801F06EF90220059089
:1011400005A97E4801F068F907B000BD38B504462E
:1011500000200090FFF767FF607821780843E1786E
:10116000084321790843A1780843009001222021F7
:101170006846FFF73BFF38BD70B506460C4615467E
:10118000012D02DD44F0C00401E044F08004082198
:101190006A4801F0BFF92046FFF7F3FE06E00020A1
:1011A000FFF7EFFE3070681E85B2761C002DF6DC6E
:1011B0000821624801F0ACF970BD38B50446002042
:1011C0000090012221216846FFF7D6FF9DF800001C
:1011D00000F0D0000090207861780843A17808439F
:1011E0009DF8001008430090012221216846FFF776
:1011F000FDFE38BD38B5044600200090012238219C
:101200006846FFF7B9FF207861780843A178084362
:101210000090012238216846FFF7E8FE38BD38B556
:101220000446012220216846FFF7A6FF9DF8000032
:1012300000F0BF0000909DF80000204300900122C4
:1012400020216846FFF7D2FE38BD38B5044601229A
:1012500020216846FFF790FF9DF8000000F07F0016
:1012600000909DF800002043009001222021684654
:10127000FFF7BCFE38BD38B5044601222021684680
:10128000FFF77AFF9DF8000000F0DF0000909DF866
:10129000000020430090012220216846FFF7A6FEAF
:1012A00038BD08B5012221216846FFF765FF9DF88A
:1012B000000040F040000090012221216846FFF725
:1012C00095FE08BD3EB50546002401222021684652
:1012D000FFF752FF0622292101A8FFF74DFF9DF8D5
:1012E000000010F0200002D0202820D10FE00024C0
:1012F0000AE001A911F8140040B200EBC000400060
:1013000028602D1D601CC4B2032CF2DB10E0002409
:101310000AE001A911F8140040B200EBC000C000BF
:1013200028602D1D601CC4B2032CF2DB00E000BF5E
:1013300000BF3EBD240000200030014000100240EC
:1013400000000240FFF7B2F900BF00BF00BF03E09A
:10135000FFF701FA00BF00BFFAE7000086B00020E7
:10136000039004900590009001900290012026497E
:1013700008609FED260A264880ED000A9FED230AAB
:10138000244880ED000AFFF77DF96420FFF78FFC09
:1013900000F054FB6420FFF78AFC00F015FB64208A
:1013A000FFF785FC01201C4908601FE01A4800680F
:1013B000E0B100201849086003A8FFF783FF6946E1
:1013C00003A800F077FA684600F0E4FB104880EDCF
:1013D000000A684600F04AFB0E4880ED000AD0ED96
:1013E000000A0B4890ED000A00F0E1F9DEE710B5C5
:1013F000022000F089FF28B101200749086002207F
:1014000000F093FF10BD0000280000200000000045
:10141000380000203C0000203000002011490968FD
:1014200011F0010F0ED00F498039096811F0010F3A
:1014300008D000BF4FF0604109680029FAD04FF092
:1014400060421070704770B504460D462046FFF7A5
:10145000E5FF70BD10B504462046FFF7DFFF10BD65
:1014600000BFFEE7800E00E01CB50121082001F05E
:1014700019FA684601F018F844F2FF700090012054
:101480008DF804008DF8050000208DF806008DF819
:1014900007006946EF4800F0BFFF01221102ED4846
:1014A00001F03AF81CBD00E0401E0028FCD1704756
:1014B00000B5024604E04CF25030FFF7F4FF521E34
:1014C000002AF8D100BD10B5044600224FF4807107
:1014D000E04801F021F82046FFF7EAFF012211025F
:1014E000DC4801F019F810BD70B588B0054601263A
:1014F000002406E005EA06004DF824007006060EFA
:10150000641C082CF6DB0098C2B20121D14801F01E
:1015100003F80198C2B20221CE4800F0FDFF029804
:10152000C2B20421CB4800F0F7FF0398C2B20821F1
:10153000C84800F0F1FF0498C2B21021C54800F07D
:10154000EBFF0598C2B22021C24800F0E5FF0698E3
:10155000C2B24021BF4800F0DFFF0798C2B280212D
:10156000BC4800F0D9FF08B070BD10B5044664B99E
:1015700000224FF40071B74800F0CEFF00224FF474
:101580008061B44800F0C8FF0AE000224FF4007107
:10159000B04800F0C1FF01229102AE4800F0BCFF4C
:1015A00010BD10B50020FFF7E0FF0120FFF79CFF02
:1015B0000520FFF788FF10BD10B5044600224FF448
:1015C0008071A44800F0A8FF2046FFF76CFF0122BD
:1015D0001102A04800F0A0FF10BD10B50020FFF7D9
:1015E000C4FF0220FFF780FF4CF25030FFF7E4FF0A
:1015F00010BD10B50020FFF7B8FF0620FFF774FFFD
:101600004CF25030FFF7D8FF10BD10B50020FFF7A7
:10161000ACFF3820FFF768FF4CF25030FFF7CCFFEB
:1016200010BD10B50020FFF7A0FF0F20FFF75CFFF3
:101630004FF47A70FFF747FF10BD10B50446012044
:10164000FFF793FF2046FFF74FFF4CF25030FFF7B4
:10165000B3FF10BD10B504460020FFF786FF2046FB
:10166000FFF742FF4CF25030FFF7A6FF10BD70B5F8
:1016700005460C462846FFF7EDFF03E02078FFF70C
:10168000DCFF641C20780028F8D170BD70B50546D9
:101690000E460024FFF785FF04E0285DFFF7CDFF2D
:1016A000601CC4B2B442F8DB70BDF0B52DED068B02
:1016B0008BB0B0EE408A00200790089009900A9005
:1016C0000A246426B2EE040AB0EE409A08EE900AAC
:1016D00000250027B5EEC08AF1EE10FA12D218EEFE
:1016E000100A01F0CFFC41EC100BB0EE40AAF0EE76
:1016F00060AA53EC1A2B58A001F0D0FF0BB0BDEC40
:10170000068BF0BD9FED5D0AB4EEC08AF1EE10FAD3
:1017100026D200EE104AB8EEC00AC8EE000ABDEEAE
:10172000E00A8DED070A0798604300EE100AB8EE54
:10173000C00A38EE400ABDEEC00A8DED080A0A2044
:101740000990BDEEC80AF0EE408AB8EEE80A38EE1D
:10175000400A20EE090ABDEEC00A8DED0A0A00E03B
:10176000CCE74748006880B146A103A801F0A6FF76
:101770000546C820FFF79CFE294603A8FFF786FF11
:101780003F480068401E3E4908600A98009041A109
:1017900001A8DDE9072301F091FF0746C820FFF704
:1017A00087FE01A98C20FFF762FF00BFA6E700B506
:1017B0002DED048B8BB0B0EE408AF0EE608A37A13D
:1017C00003C9CDE9090137A103C9CDE9070118EE25
:1017D000100A01F057FC41EC100BB0EE409AF0EE0D
:1017E000609A53EC192B31A104A801F067FF18EEA1
:1017F000900A01F047FC41EC100BB0EE409AF0EE7D
:10180000609A53EC192B29A101A801F057FF284831
:10181000006878B1C820FFF74BFE09A98020FFF7C8
:1018200026FF07A9C020FFF722FF21480068401EBD
:101830001F490860C820FFF73BFE04A98520FFF779
:1018400016FF01A9C620FFF712FF0BB0BDEC048BF9
:1018500000BD0000000C0240546D6570657261743B
:101860007572653A2566206973206C657373207400
:1018700068656E207A65726F2E0A00000000C8420B
:101880004800002054656D70657261747572653A28
:1018900000000000256425642E256400526F6C6CE6
:1018A0003A00000050697463683A00002566000041
:1018B0004C0000202DED048BDFED3E9AB0EE693A2E
:1018C000D0ED009AF8EEE99AB0EE690AD0ED019AEF
:1018D000F8EEE99AF0EE690AD0ED029AF8EEE99A8C
:1018E000B0EE691AF7EE009AF0EE691ADFED329A5F
:1018F000F0EE693ADFED2F9AB0EE694ADFED2D9AEE
:10190000F0EE694ADFED2B9AF0EE695ADFED2A9A84
:10191000B0EE696ADFED279AF0EE696ADFED259A8D
:10192000B0EE695ADFED239AB0EE697ADFED229AC4
:10193000F0EE697ADFED219AB0EE698ADFED209A48
:10194000F0EE698ADFED1F9AB0EE699A60EE239A95
:1019500040EEA59A41EE059A41EE889AB0EE692ACA
:1019600060EE049A40EE869A41EE079A41EEA89AFC
:10197000F0EE692A60EE249A40EEA69A41EE279A8C
:1019800041EE899AB0EE693ADFED0A9AC1ED009A0C
:10199000DFED089AC1ED019ADFED069AC1ED029ADA
:1019A00081ED002AC1ED012A81ED023ABDEC048BE4
:1019B00070470000000000006F12833A948785BCD6
:1019C0004F40933D5BB13F3D00B585B001211020F4
:1019D00000F068FF0121880300F0A8FF03A800F0D1
:1019E00063FD00208DF810000220039000208DF888
:1019F000130003A91C4800F00FFD0121042001F091
:101A000097FA0220019000208DF8080008208DF838
:101A1000090001208DF80A0001A800F00FFC072042
:101A20008DF8000001208DF801008DF802008DF87E
:101A30000300684600F04FF905B000BD1CB500205A
:101A40008DF804008DF805008DF8060001A8FFF759
:101A5000D1FB002000902020009001222221684626
:101A6000FFF7C4FA1CBD0000001002402DE9F04150
:101A70002DED0E8B04469FED910AB0EE408A9FED4E
:101A8000900A10EE105A94ED000AF0EE408A94EDA0
:101A9000010A10EE106A94ED020A10EE107A304638
:101AA00001F0F0FA41EC100BB0EE40BAF0EE60BA83
:101AB0009FED841B01F0A4FFB0EE40AAF0EE60AAF7
:101AC00051EC1A0B01F0F1FA09EE100A384601F058
:101AD000D9FA41EC100BB0EE40BAF0EE60BA9FEDCF
:101AE000791B01F08DFFB0EE40AAF0EE60AA51EC38
:101AF0001A0B01F0DAFA09EE900A39EE290A10EE13
:101B0000101A084601F0BEFA41EC100BB0EE40BAD4
:101B1000F0EE60BA02F0BCFDB0EE40AAF0EE60AAB2
:101B200051EC1A0B01F0C1FA0EEE100A284601F032
:101B3000A9FA41EC100BB0EE40BAF0EE60BA88EEB4
:101B40008E0A10EE108A404601F09CFA41EC100B10
:101B5000B0EE40DAF0EE60DA01F0DEFDB0EE40CA41
:101B6000F0EE60CA53EC1B2B51EC1C0B01F018FA81
:101B700041EC100BB0EE40AAF0EE60AA51EC1A0B4B
:101B800001F093FA08EE100AB0EE480ABDEC0E8B95
:101B9000BDE8F0812DE9F0412DED0E8B04469FED5F
:101BA000470AB0EE408A9FED460A10EE105A94EDB7
:101BB000000A10EE106A94ED010AF0EE408A94EDEE
:101BC000020A10EE107A304601F05CFA41EC100B7C
:101BD000B0EE40BAF0EE60BA9FED3A1B01F010FF94
:101BE000B0EE40AAF0EE60AA51EC1A0B01F05DFADB
:101BF00009EE100A384601F045FA41EC100BB0EE40
:101C000040BAF0EE60BA9FED2F1B01F0F9FEB0EE86
:101C100040AAF0EE60AA51EC1A0B01F046FA09EE68
:101C2000900A39EE290A10EE101A084601F02AFA35
:101C300041EC100BB0EE40BAF0EE60BA02F028FDB5
:101C4000B0EE40AAF0EE60AA51EC1A0B01F02DFAAA
:101C50000EEE100A284601F015FA41EC100BB0EE1A
:101C600040BAF0EE60BA88EE8E0A10EE108A404656
:101C700001F008FA41EC100BB0EE40DAF0EE60DA59
:101C800001F04AFDB0EE40CAF0EE60CA53EC1B2BE7
:101C900051EC1C0B01F084F941EC100BB0EE40AAA2
:101CA000F0EE60AA51EC1A0B01F0FFF908EE100AF1
:101CB000B0EE480ABDEC0E8BBDE8F08100000000DC
:101CC000E12E65420000000000000040334901435E
:101CD000334A1160704770B5002100230F22C47889
:101CE00024B32F4C246804F4E064C4F5E064C4F326
:101CF0000721C1F10404E3B20A4144789C40E1B2F7
:101D00008478144021430C07210E264C0578615538
:101D1000047804F01F050124AC4005786D114FF0E4
:101D2000E02606EB8505C5F8004109E0047804F0DB
:101D30001F040125A5401C4C0678761144F8265056
:101D400070BD1A4A0A400243154B1B1F1A607047A8
:101D500039B1134A121D12680243114B1B1D1A6040
:101D600006E00F4A121D126882430D4B1B1D1A60BC
:101D70007047042808D14FF0E021096941F00401BF
:101D80004FF0E022116107E04FF0E021096921F0F6
:101D900004014FF0E0221161704700000000FA05D5
:101DA0000CED00E000E400E080E100E080FFFF1FB8
:101DB00010B50121080200F021FE00214FF48070CF
:101DC00000F01CFE10BD30B5024600200023506814
:101DD000F84C20400D790C6844EA052420435060FB
:101DE0009068F54C2040D1E903542C438D682C4376
:101DF0004D7944EA450420439060D06A20F4700095
:101E00000C7D641EE4B2234340EA0350D06230BD2F
:101E100000210160017141718160C1600161012196
:101E2000017570470021E54A1168E54A01EA02019F
:101E3000D0E9002342EA0302836842EA0302C3684E
:101E400042EA030242EA0101DE4AC2F80413704783
:101E50000021016041608160C160704721B18268EA
:101E600042F00102826003E0826822F00102826097
:101E700070470A4600214168D34B19401143416025
:101E800070474162826270470A460021416821F032
:101E90001F0111434160704738B1C849096841F4D6
:101EA0000001C84AC2F8041306E0C449096821F4D5
:101EB0000001C44AC2F80413704738B1BF49096829
:101EC00041F48001BF4AC2F8041306E0BB49096827
:101ED00021F48001BB4AC2F804137047F0B50446F0
:101EE0000D4600200021092D11DDE068A5F10A064C
:101EF00006EB4607072606FA07F18843A5F10A060E
:101F000006EB460603FA06F10843E0600CE02069A0
:101F100005EB4507072606FA07F1884305EB45065A
:101F200003FA06F108432061072A0FDA606B561E98
:101F300006EB86071F2606FA07F18843561E06EBB6
:101F4000860605FA06F10843606322E00D2A0FDADF
:101F5000206BD61F06EB86071F2606FA07F188437B
:101F6000D61F06EB860605FA06F10843206310E04B
:101F7000E06AA2F10D0606EB86071F2606FA07F1B6
:101F80008843A2F10D0606EB860605FA06F1084322
:101F9000E062F0BD816841F0804181607047014698
:101FA00000208A6812F4800F01D0012000E0002098
:101FB000704721B1826842F48062826003E08268E7
:101FC00022F480628260704721B1826842F002028E
:101FD000826003E0826822F002028260704710B5DE
:101FE0000A4600210023416821F46041531E41EA62
:101FF0004331416010BD21B1426842F40062426049
:1020000003E0426822F40062426070470146C86CF7
:1020100080B270476D480068704721B1826842F411
:102020008072826003E0826822F48072826070476E
:1020300021B1826842F40072826003E0826822F477
:1020400000728260704738B15C49096841F4005100
:102050005C4AC2F8041306E05849096821F40051AB
:10206000584AC2F804137047F0B5044615460020DC
:1020700000220026092911DDE068A1F10A0707EB1B
:10208000470C072707FA0CF29043A1F10A0707EB68
:10209000470703FA07F21043E0600CE0206901EB08
:1020A000410C072707FA0CF2904301EB410703FAB2
:1020B00007F210432061A06BC0F30156EF1C06F13C
:1020C000010CA7EB0C0707EB870C1F2707FA0CF294
:1020D0009043EF1C06F1010CA7EB0C0707EB8707F9
:1020E00001FA07F21043A063F0BD10B50A460021C3
:1020F0000023816B21F44011531E41EA0351816397
:1021000010BD08B5002300930090009B0B44009382
:10211000009B1A6008BD0A460021816821F47021E5
:102120001143816070470A460021816821F4401103
:10213000114381607047816841F48001816070477C
:10214000014600208A6812F4800F01D0012000E0CF
:102150000020704721B1426842F48062426003E08F
:10216000426822F480624260704721B1426842F4C2
:102170008052426003E0426822F48052426070471D
:1021800008B5024600200090009201F12800009B53
:10219000184400900098006880B208BD10B50B4646
:1021A0000021D9B2012404FA01F18AB144680C4338
:1021B000446010E0FFFEFFFCFDF7FFC00423014078
:1021C000E030FCFF00200140FFFD3FFF08230140FD
:1021D00044688C43446010BD0246002013680B42E3
:1021E00001D0012000E000207047CA430260704720
:1021F00070B502460020002300240B12556801260A
:102200008E4005EA060415681D4202D00CB101207B
:1022100000E0002070BD00220A12D3430360704723
:10222000002044490860091D0860091D0860091D57
:10223000086041483F4914310860704700213D491A
:102240008279002A3AD00A46126803689A430B46FC
:102250001A600A1D126803689A430B1D1A600279FE
:1022600011440A6803681A430A60324A0832126845
:1022700003689A432F4B08331A601A1D12680368CB
:102280009A432C4B0C331A604279102A0ED11A1F34
:10229000126803681A43274B08331A601A1D126824
:1022A00003681A43234B0C331A600DE0214942792D
:1022B00011440A6803681A430A6005E00279114470
:1022C0000A6803689A430A6070470021016001713F
:1022D0000C21417100218171704716491031096844
:1022E0000143144A10321160704701460020114A20
:1022F000143212680A4201D0012000E00020704729
:102300000C49143108607047014600200022094B37
:102310001B6803EA0102074B14331B680B4202D00F
:102320000AB1012000E00020704702491431086022
:1023300070470000003C0140FFFF7F0010B50446DD
:102340008C48844208D10121084600F000FB00219E
:10235000012000F0FCFA5EE08748844208D10121A8
:10236000022000F0F4FA0021022000F0F0FA52E01E
:102370008248844208D10121042000F0E8FA0021BB
:10238000042000F0E4FA46E07D48844208D10121AF
:10239000082000F0DCFA0021082000F0D8FA3AE02A
:1023A0007848844208D10121102000F0D0FA0021A1
:1023B000102000F0CCFA2EE07348844208D10121AD
:1023C000202000F0C4FA0021202000F0C0FA22E012
:1023D0006E48844208D10121402000F0B8FA002163
:1023E000402000F0B4FA16E06948844208D1012187
:1023F000802000F0ACFA0021802000F0A8FA0AE06A
:102400006448844207D10121801500F0A0FA002120
:10241000A01500F09CFA10BDF0B50A46002100237B
:10242000002400BF3DE0012505FA01F3156805EA27
:1024300003049C4234D105684F000326BE40B543D7
:10244000056015794E00B54006683543056015797D
:10245000012D02D01579022D16D185684F00032673
:10246000BE40B543856055794E00B540866835431A
:102470008560456801268E40B5434560456896797C
:102480008E40B6B235434560C5684F000326BE4056
:10249000B543C560D5794E00B540C6683543C560C3
:1024A000491C1029BFD3F0BD4FF6FF710160002118
:1024B000017141718171C171704708B54FF480326B
:1024C0000092009A0A430092009AC261C161009A88
:1024D000C261C2690092C269009208BD0246002032
:1024E00013690B4201D0012000E000207047014633
:1024F000086980B270470246002053690B4201D040
:10250000012000E0002070470146486980B2704712
:1025100001837047418370470AB1018300E0418322
:1025200070474161704742694A4042617047F0B567
:10253000002300244D07ED0E02FA05F3CE1000F142
:10254000200555F826504E07F70E0F26BE40B5431E
:10255000CF1000F1200646F82750CE1000F12005DC
:1025600055F8265045EA0304CE1000F1200545F841
:102570002640F0BD00000240000402400008024076
:10258000000C0240001002400014024000180240FB
:10259000001C024000200240FA48006840F00100A0
:1025A000F84908600020F74908310860F5480068DC
:1025B000F5490840F3490860F448091D0860081F00
:1025C000006820F48020091F08600020ED490C31CC
:1025D000086070470021EB4A921C11701146087088
:1025E000704710B501460022002300204A11012A3D
:1025F00002D1E44C236808E0022A03D1E14C703494
:10260000236802E0DF4C7434236801F01F020124C8
:1026100094401C4201D0012000E0002010BD38B5DC
:10262000002000900024002500BF3120FFF7D9FFD3
:1026300005460098401C00900098B0F5A06F01D0AE
:10264000002DF2D03120FFF7CCFF08B1012400E0CB
:102650000024204638BD01460020CA4A106820F0F8
:10266000F80040EAC10010607047C949086070472F
:102670000021C44A703211701170012802D0042860
:102680000AD104E00121BF4A7032117005E0052132
:10269000BC4A7032117000E000BF00BF7047BD49F6
:1026A0000860704770B5049C41EA82150126C6EBAC
:1026B000530645EA0645054345EA0465B14E361D15
:1026C000356070BDB24908667047820142EA017206
:1026D000AC4B84331A607047AD4988667047AC498B
:1026E000C864704702460020A64B0833186820F0E3
:1026F000EC6042EA01031843A24B083318607047AC
:10270000024600209F4B0833186820F0784042EAC8
:10271000010318439B4B08331860704701460020A3
:10272000984A0832106820F0030008431060704790
:1027300094480830006800F00C0070470146002003
:10274000904A0832106820F0F0000843106070478B
:10275000014600208B4A0832106820F4E0500843FC
:102760001060704701460020864A0832106820F445
:10277000604040EAC10010607047F0B500210022BF
:1027800000240225002602237E4F08373F6807F009
:102790000C0121B1042905D0082937D105E07E4F6D
:1027A000076036E07D4F076033E0764F3F1D3F689E
:1027B000C7F38056734F3F1D3F6807F03F036EB16C
:1027C000764FB7FBF3F7DFF8BCC10CF1040CDCF873
:1027D00000C0CCF3881C07FB0CF40CE06E4FB7FB79
:1027E000F3F7DFF8A0C10CF1040CDCF800C0CCF367
:1027F000881C07FB0CF4634F3F1D3F68C7F301477C
:102800007F1C7D00B4FBF5F7076002E0624F0760B4
:1028100000BF00BF5B4F08373F6807F0F0010909B0
:102820005F4F7A5C0768D7404760564F08373F686C
:1028300007F4E051890A5A4F7A5C4768D7408760AD
:10284000504F08373F6807F46041490B544F7A5C9A
:102850004768D740C760F0BD002100F44072B2F570
:10286000407F0AD1474A0832116821F4F8114D4AD5
:1028700002401143434A08321160424A70321268E2
:10288000C0F30B031A433F4B70331A607047414942
:102890004439086070473F494039086070474249F1
:1028A0000860704739B1374A303212680243354BFD
:1028B00030331A6006E0334A303212688243314BBB
:1028C00030331A60704739B12E4A343212680243ED
:1028D0002C4B34331A6006E02A4A343212688243A1
:1028E000284B34331A60704739B1264A383212689F
:1028F0000243244B38331A6006E0224A3832126809
:102900008243204B38331A60704739B11D4A403238
:10291000126802431B4B40331A6006E0194A4032EA
:1029200012688243174B40331A60704739B1154A19
:10293000443212680243134B44331A6006E0114AD2
:102940004432126882430F4B44331A60704739B1E6
:102950000C4A1032126802430A4B10331A6006E028
:10296000084A103212688243064B10331A607047CF
:10297000E1B1044A143212680243024B14331A6064
:1029800019E0000000380240FFFFF6FE103000247E
:1029900000004742800E47420024F40000127A00F3
:1029A00050000020FFFCFF0F5C0147425B4A1268A9
:1029B00082435A4B1A60704739B1584A121D126847
:1029C0000243564B1B1D1A6006E0544A121D126842
:1029D0008243524B1B1D1A60704739B14F4A0C326B
:1029E000126802434D4B0C331A6006E04B4A0C321E
:1029F00012688243494B0C331A60704739B1474A19
:102A0000103212680243454B10331A6006E0434A05
:102A1000103212688243414B10331A60704739B14B
:102A20003E4A3C32126802433C4B3C331A6006E09B
:102A30003A4A3C3212688243384B3C331A60704742
:102A400039B1364A403212680243344B40331A607F
:102A500006E0324A403212688243304B40331A60FB
:102A6000704739B12D4A4432126802432B4B44332C
:102A70001A6006E0294A443212688243274B4433E5
:102A80001A60704739B1254A4C3212680243234B11
:102A90004C331A6006E0214A4C32126882431F4BC5
:102AA0004C331A60704739B11C4A503212680243E5
:102AB0001A4B50331A6006E0184A503212688243AB
:102AC000164B50331A60704739B1144AD21F12782E
:102AD0000243124BDB1F1A7006E0104AD21F127815
:102AE00082430E4BDB1F1A7070470C486030006841
:102AF00040F080700949603108607047014600204D
:102B0000064A083A12680A4201D0012000E000207B
:102B100070470249891F087070470000143802404E
:102B200010B50446F648844208D101218014FFF70D
:102B300065FF0021A014FFF761FF16E0F148844211
:102B400008D101210014FFF748FF00212014FFF7EE
:102B500044FF0AE0EC48844207D10121C013FFF78B
:102B60003CFF0021E013FFF738FF10BD10B5002235
:102B7000028802F441520B884C8823438C882343FB
:102B8000CC8823430C8923434C8923438C892343DA
:102B9000CC8923431A430280838B4FF2FF74234076
:102BA00083830B8A038210BD2DE9F04F0025022399
:102BB0000024012700220026944690469146B0F852
:102BC0001CA04FF2400B0AEA0B0AA0F81CA04FF021
:102BD000020AA0F820A0858BD1F808A0BAF1020F54
:102BE00001D100BF6AE0B1F804A0BAF1000F01D131
:102BF000012700E00227DFF814A3DAF800A01AF496
:102C0000000F09D0DFF804A3DAF800A02AF4000AC4
:102C1000DFF8F8B2CBF800A0DFF8F0A20AF17C0AE6
:102C2000DAF800A0CAF38818DFF8E0A20AF17C0AFB
:102C3000DAF800A0CAF30279DFF8D0A2AAF1040AF8
:102C4000DAF800A00AF03F0CDFF8C4A2BAFBFCFAE5
:102C50000AFB08FABAFBF9F6B1F806A0BAF5007F4C
:102C60000ED14FEA162A0AEB8A0A4FEA4A0AD1F82D
:102C700008B0BAFBFBFA0AF1050A1FFA8AF20FE064
:102C80004FEA471AB6FBFAFA0AEB8A0A4FEA4A0AEF
:102C9000D1F808B0BAFBFBFA0AF1050A1FFA8AF26A
:102CA0004FF00A0AB2FBFAF202F00104A2EB040AA6
:102CB000CAF34F034FF6FF7A0AEA0424022B01DB22
:102CC000FF2B01DD02230024B1F806A04AEA040A22
:102CD0004AEA030AA0F820A0B1F804A0B1F80CB0A9
:102CE0004AEA0B0AB1F802B04AEA0B0AB1F800B09E
:102CF0004AEA0B0A4AF4006A4AEA05058583BDE8F8
:102D0000F08F0021018041808180C180018141815B
:102D10008181C181072101827047002101804180AA
:102D20008180C1800221816000218181704721B1B1
:102D3000028842F04002028004E002884FF6BF732E
:102D40001A400280704721B1828B42F480628283F4
:102D500004E0828B4FF6FF331A408283704702886B
:102D60004FF2FF731A40028002880A4302807047C4
:102D7000B1F5804F04D1028842F48042028004E021
:102D800002884BF6FF731A4002807047A1F57E421D
:102D9000FF3A04D0028842F48072028004E0028884
:102DA0004FF6FF631A400280704721B1828842F0DB
:102DB0000402828004E082884FF6FB731A4082800E
:102DC000704721B1828842F01002828004E082883C
:102DD0004FF6EF731A408280704730B5002200230F
:102DE000848B4FF240052C40848302240484828B20
:102DF0000C88B4F5007F01D00C8814B94FF48073AF
:102E000008E00C88B4F5407F03D00C88B4F5807FCF
:102E100000D100238C888D892C434D882C431C4382
:102E200044F400642243828330BD014688897047A0
:102E30008181704721B1028842F40052028004E08F
:102E400002884DF6FF731A4002807047018841F4F2
:102E500080510180704702460020012901D0108B6B
:102E600000E0908A70470146088A70471AB183884B
:102E70000B43838002E083888B438380704730B5A7
:102E8000002400230C110125A540ABB21AB185889E
:102E90001D43858002E085889D43858030BD0246C4
:102EA000002013890B4201D0012000E00020704770
:102EB000CA4302817047F0B5024600200024002377
:102EC000002501F00F070126BE40B4B20B11012608
:102ED0009E40B3B2968806EA03051689264202D0C0
:102EE0000DB1012000E00020F0BD10B5002201F07E
:102EF0000F040123A3409AB2D343038110BD000005
:102F00000030014000380040003C004008380240DA
:102F100000127A0010B501218803FFF76FFD002130
:102F20004FF48040FFF76AFD10BD1A4908607047F2
:102F300030B500228B071C0F0F2303FA04F2154B48
:102F400008338C1053F824309343124C08348D10FE
:102F500044F8253023468C1053F824308C07240F76
:102F600000FA04F423430B4C08348D1044F8253048
:102F700030BD094908607047084908607047002063
:102F800004492031096811F4807F01D0012000E05C
:102F90000020704700380140DC002742000427422F
:102FA0002DE9FE4F81EA030404F0004421F00041C2
:102FB00000944FF0000B23F0004350EA010402D0CC
:102FC00052EA030404D10020014603B0BDE8F08FAB
:102FD000C3F30A54C1F30A552C44A4F2F334019408
:102FE000A0FB0254C1F3130141F48011C3F3130396
:102FF00043F4801301FB024400FB034E840A970A4A
:1030000044EA815447EA8357A4FB076802958D0A76
:1030100005FB07854FEA932C04FB0C542705029D02
:103020004FEA065847EA1637B5EB08056EEB070C72
:10303000870E920E47EA811742EA8312A7FB02012C
:10304000B6EB0B0164EB00042B0D43EA0C335E1866
:1030500044EB1C50DA465146E7FB0201C5F313046A
:103060004FEA0B3343EA14534FEA0432019C43EA1C
:103070000603A4F10C040294009CCDE900B400F016
:10308000BAF8A2E700F0004230F000400AD0C10DCB
:1030900001F56071C0F3160042EA0151C208400711
:1030A0001143704700200146704701F0004330B4DF
:1030B00021F0004150EA010206D00A0DA2F560722B
:1030C000C1F31301002A02DC30BC00207047440F1A
:1030D00044EAC104C100E01830BC00EBC25000F06B
:1030E00047B830B50B46014600202022012409E0F4
:1030F00021FA02F59D4205D303FA02F5491B04FAB1
:1031000002F52844151EA2F10102F1DC30BD2DE9C3
:10311000F05F0546002092469B468846064681465B
:1031200040241BE0284641464746224600F091FADB
:1031300053465A46C01A914110D3114618462246AA
:1031400000F078FA2D1A67EB01084F46224601205D
:10315000002100F06FFA17EB00094E41201EA4F188
:103160000104DFDC484631462A464346BDE8F09F6D
:103170000029A8BF7047401C490008BF20F001008B
:10318000704710B4B0FA80FC00FA0CF050EA010469
:1031900004BF10BC704749B1CCF1200421FA04F4FB
:1031A00011FA0CF118BF012121430843A3EB0C01D4
:1031B000CB1D0106000A002BBEBF002010BC7047CB
:1031C00000EBC35010440029A4BF10BC7047401C42
:1031D000490008BF20F0010010BC704710B5002B5B
:1031E00008DA401C41F1000192185B411A4301D1F9
:1031F00020F0010010BD2DE9F04D92469B4611B123
:10320000B1FA81F202E0B0FA80F22032904600F08A
:1032100011FA04460F4640EA0A0041EA0B01534600
:103220005A46084303D120463946BDE8F08D114681
:1032300053EA010015D0C8F14002504600F009FAE7
:1032400005460E4650465946424600F0F3F90843FB
:1032500001D0012000E00020054346EAE0762C433F
:1032600037430A984FEA4453A0EB08004FEAD424AE
:103270000A304FF0000244EA47544FEAD72502D5FE
:1032800000200146D1E7010510196941DDE9084533
:1032900000196941BDE8F04DA0E72DE9FE4F8046D9
:1032A00081EA0300C00F0C46009021F0004123F09A
:1032B0000045B8EB0200A94105D2404621469046A0
:1032C0001C460B46024623F00040104304D1404602
:1032D000214603B0BDE8F08F270DC7F30A00C3F302
:1032E0000A510290401A0190402866DAC3F3130095
:1032F00040F4801B0098924620B10023D2EB030AD1
:1033000063EB0B0B01985946C0F14002504600F0A8
:1033100091F906460D4650465946019A00F0A9F922
:1033200010EB08006141002487EA115284EAE77338
:103330001A433BD0009A3AB3019A012A4FEA075246
:1033400010DC001B61EB02014FF0004202EA075261
:10335000CDE90042001C41F5801132462B46FFF7B3
:103360004AFFB6E7001B61EB0201001C41F5801328
:1033700000185B412018A2F5001747EB030140EA53
:10338000D570B6196D4111E06D084FEA360645EA71
:10339000C0754FEA0752001B61EB0201001C41F5AA
:1033A000801149084FEA30000019514132462B463E
:1033B00003B0BDE8F04FFFF711BF009801224000B5
:1033C0000023D0EB020263EBE073009821464FEA42
:1033D000E074B8EB000061EB0401E9E783F000431F
:1033E0005BE781F0004158E72DE9F04D81EA0304E5
:1033F00004F0004B21F0004514464FF0000A23F082
:10340000004150EA050220D054EA01021DD0C5F364
:103410000A570246C5F31303C1F31300C1F30A565A
:1034200040F4801543F48013A7EB0608101BD64622
:1034300008F2FD3873EB050002D308F1010801E042
:1034400092185B41B8F1000F03DA00200146BDE895
:10345000F08D00204FF48011064684460EE0171BC5
:1034600073EB050705D3121B63EB050306434CEA18
:10347000010C49084FEA300092185B4150EA0107FD
:10348000EDD152EA030012D082EA040083EA05017A
:10349000084303D100224FF0004308E0101BAB416A
:1034A00002D20122002302E06FF0010253101AEB56
:1034B00006004CEB085110EB0A0041EB0B01BDE894
:1034C000F04DFFF78BBE70B521F0004303430CD0E5
:1034D000C1F30A550024D5EB040564EB0403D617A9
:1034E000AD1AB34102DB0020014670BD201841EB4C
:1034F000025170BD2DE9F04D00231A461B1A8A4176
:1035000003DB00200146BDE8F08DC1F30A52C1F390
:10351000130141F480154FF0000BD10702D10018C0
:103520006D41521E0027044640F2FF11384601EB60
:10353000620A3E468046024600204FF4801100F0A9
:1035400088F8C2197141BB1846EB0100B4EB030CBB
:1035500075EB000C04D3E41A65EB000517460E4624
:10356000241908F101006D4180463428E3DDF91982
:1035700046EB0600091BA84103D24FF0FF32134669
:1035800001E0002213461BEB070046EB0A51BDE8A1
:10359000F04DFFF723BE0EB5C10F80EAE07008447E
:1035A000CA07002140F233438DE80E000A460B465D
:1035B000FFF721FE03B000BDC1F30A52C1F31301AE
:1035C00040F2FF3341F480119A4202DA00200146B2
:1035D000704740F233439A42A2F2334202DC524235
:1035E00000F037B800F026B830B5002904DB4FF002
:1035F0000044404264EB0101002B04DB4FF0004427
:10360000524264EB0303994208BF904230BD000070
:10361000064C074D06E0E06840F0010394E807001F
:1036200098471034AC42F6D3FCF7B2FDF0620008C4
:1036300020630008202A04DB203A00FA02F100206F
:1036400070479140C2F1200320FA03F319439040E0
:103650007047202A04DB203A21FA02F0002170474B
:1036600021FA02F3D040C2F12002914008431946EA
:103670007047202A06DBCB17203A41FA02F043EAD2
:10368000E07306E041FA02F3D040C2F1200291401B
:103690000843194670470000000000000FB4054BB6
:1036A00010B503A9044A029801F0A6F910BC5DF810
:1036B00014FB000047140008400000200FB4084B22
:1036C00010B504A902AA039801F096F9044602A9CC
:1036D000002001F034FD204610BC5DF814FB000012
:1036E0003F51000803B401984100009850EAC120FE
:1036F00018BF04204A0D18BF40F0010040F2FF72CD
:10370000B2EB515F08BF40F00200012808BF05205E
:1037100002B070470000000070B59F482DED020B0D
:103720002DED068B079D25F00044A0421DDC9B4833
:10373000844202DC0FD1069868B19DED060B53EC74
:10374000102B51EC100BFFF7A8FDBDEC068B02B05F
:1037500041EC100B70BD002DCCBF9FED910B9FED88
:10376000920BBDEC068B02B070BD9148A04215DDF6
:103770009048A042D8BF4FF0FF3440DD9DED060BCE
:1037800051EC100BFFF7AEFF042808BF01F03CF826
:103790009DED060BBDEC068B02B070BD9DED060BDA
:1037A00051EC100B01F000FD41EC100B82488DED47
:1037B000060B9FED838BA0423CDD8348A0421FDDBA
:1037C00000249FED839B51EC100B53EC192BFFF75A
:1037D00064FD9DED060B41EC1A0B53EC192B51ECDB
:1037E000100BFFF7DDFB53EC182BFFF7F7FD53EC45
:1037F0001A2BFFF7F9FD41EC100B8DED060B49E09C
:10380000012453EC182B51EC100BFFF746FD9DEDF6
:10381000060B41EC190B53EC182B51EC100BFFF776
:10382000DDFD53EC192BFFF7DFFD41EC100B8DEDA7
:10383000060B2FE06848A0421FDD02249FED689B25
:1038400051EC100B53EC192BFFF7AAFB53EC182B80
:10385000FFF723FD9DED060B41EC180B53EC192BE4
:1038600051EC100BFFF7BAFD53EC182BFFF7BCFD22
:1038700041EC100B8DED060B0CE053EC102B0324E8
:103880009FED590B51EC100BFFF7AEFD41EC100B07
:103890008DED060B9DED060B53EC102B51EC100B30
:1038A000FFF77EFB41EC180B53EC182BFFF778FB6E
:1038B00041EC190B4E480621B0EE490AF0EE690AB8
:1038C000784400F022FF53EC182B51EC100BFFF75B
:1038D00067FB41EC180B4748B0EE490AF0EE690A65
:1038E0000521784400F011FF53EC192B51EC100B1B
:1038F000FFF756FB41EC100B51EC180B53EC102B5F
:10390000002C0EDAFFF7C9FC9DED061B53EC112BC2
:10391000FFF746FB9DED061B53EC112BFFF761FDF6
:1039200035E0FFF7BAFC9DED061B53EC112BFFF7BA
:1039300037FB41EC100B3048784400EBC40090EDAD
:10394000001B51EC100B53EC112BFFF747FD9DEDC5
:10395000061B53EC112BFFF741FD41EC110B2748DF
:10396000784400EBC40090ED000B51EC110B53ECCC
:10397000102BFFF736FD41EC100B002DA2BFBDEC64
:10398000068B02B070BD51EC100B81F0004141EC90
:10399000100BFFE600000000000010440000F07F64
:1039A000182D4454FB21F93F182D4454FB21F9BF35
:1039B0000000DC3F0000203E0000F33F000000005C
:1039C000000000000000F03F0000E63F00000000A3
:1039D00000000000000000400080034000000000E4
:1039E000000000000000F83F000000000000F0BFF1
:1039F0006C29000022290000AC2800006428000087
:103A00002DE9F04D2DED040B2DED0E8B94B0DDE97D
:103A10002350259CDDF888A025F0004624F00048BE
:103A2000BAF1000F14BF0121002101EB4502FE494C
:103A300053184A1093422AD3002814BF01230023AD
:103A400003EB44030B44F9498B4220D358EA0001AD
:103A50009FEDF78B6FD0DFF8E0B35D4503D1BAF18E
:103A6000000F05D181E0BAF1000F08BF002100D09E
:103A7000012101EB450111F5001F08D8002814BFF2
:103A80000121002101EB440111F5001F0AD99DED30
:103A9000240B53EC102B9DED220B51EC100BFFF778
:103AA000FCFB40E00027002DBCBFE449884521DA3B
:103AB000E3498845A8BF02271CDAC3451ADCE1495F
:103AC00001EB2851142908DDC1F1340220FA02F17A
:103AD00001FA02F282420DD108E058B9C1F1140294
:103AE00028FA02F101FA02F2424503D101F0010184
:103AF000C1F1020756EA0A019FEDD3AB1CD1002C9D
:103B00001ADA002D18BF022F01D0012F07D0022092
:103B100000F09AFE53EC1A2B51EC180B05E1022031
:103B200000F092FE7DE041EC100B14B0BDEC0E8B6A
:103B300004B0BDE8F08D18E09FEDC5BB9FEDC69BBE
:103B4000002877D1BD48804522D105F1804010F58D
:103B5000801008BFBAF1000F07D0B3450ADC002C73
:103B6000A8BF9DED240BE0DA0DE0B0EE480AF0EEC0
:103B7000680ADAE7002C06DA9DED240B51EC100BF5
:103B800081F00041CFE7B648784490ED000BCCE7D8
:103B9000D84553D1002C4EDA2EB1864240D1BAF12D
:103BA000000F48D12CE0BAF1000F19D0022000F02C
:103BB0004BFE53EC192B51EC190BFFF7F1F941ECCB
:103BC000100B8DED020B9DED220B8DED000B10EE19
:103BD000900A039961F31E0003909DED020BA4E788
:103BE0008DED02BB9DED220B1BEE901A10EE900A9C
:103BF0008DED000B61F31E0003909DED020B94E729
:103C00008DED02AB9DED220B1AEE901A10EE900A8C
:103C10008DED000B61F31E0003909DED020B84E718
:103C200009DA9DED220B51EC180B53EC102BFFF72A
:103C3000DBFB78E71DE09DED220B76E7864218DA84
:103C4000B4F1804F0DD0A4F10050B0F1FF5010D16D
:103C5000002D0EDB9DED220B51EC100B02F0FAF85B
:103C600061E79DED220B53EC102B51EC100B00F093
:103C7000E1BC9DED220B51EC100B01F095FA41ECEB
:103C8000100BBAF1000F8DED120B34D19FED760BB6
:103C9000DEB1A6F1E040B0F17F602CD1002D01DD56
:103CA000002C0DDA002D01DD002C1FDB002D16DAB3
:103CB000002C14DB012F08BF9FED6D0B3FF435AFD7
:103CC000B0EE4B0AF0EE6B0A2FE7022F18BF002D63
:103CD0000CD0012F0AD1002DFFF627AF06E0002DF2
:103CE000B8BF002C07DA012F3FF41FAFB0EE4A0A2D
:103CF000F0EE6A0A19E7012000EBE5700490384302
:103D00000CD05D48002580457DDD5C495C488845D8
:103D100013DDB0420CDB002C18DB30E0012000F09A
:103D200093FD53EC1A2B51EC1A0BFFF75DFBFAE6EF
:103D3000B34502DC002C09DC21E0864202DA002CCB
:103D40001DDA03E05E452DDD002C18DD022000F0B9
:103D50007BFD53EC192B51EC190BFFF721F941ECCA
:103D6000100B1BEE900A10EE901A8DED020B8DEDEC
:103D700000BB61F31E0003909DED020BD5E602200F
:103D800000F062FD00F040FD10EE901A18EE900A6F
:103D90008DED020B8DED008B61F31E0003909DED08
:103DA000020BC2E69DED220B53EC182B51EC100BCD
:103DB000FFF714FB41EC100B8DED0C0B9FED320B5C
:103DC00053EC102B9DED0C0B51EC100BFFF7E8F8AA
:103DD0009FED2F1B53EC112BFFF703FB9DED0C1BED
:103DE00053EC112BFFF7DCF89FED2B1B53EC112B41
:103DF000FFF7F7FA9DED0C0B41EC1A0B53EC102B6F
:103E000051EC100B00E08AE0FFF7CAF853EC1A2BD4
:103E1000FFF7C6F89FED220B41EC1B0B53EC102B68
:103E20009DED0C0B40E00000FFFF1F00FFFF0F00A7
:103E3000000000000000F03F0000F03F0000F07FB5
:103E40000000404301FCFFFF0000000000000000F4
:103E5000000000000000F07F000000000000007083
:103E60005C2700000000000000000000000000804F
:103E7000000000000000F0FF0000E0410000F043FF
:103E8000FFFFEF3F00000000000000000000D03FF7
:103E9000555555555555D53F000000000000E03FF1
:103EA000000000604715F73F51EC100BFFF778F862
:103EB00041EC1A0B9FEDFE0B51EC1B0B53EC102B3E
:103EC000FFF76EF841EC1B0B9FEDFB0B53EC102B37
:103ED0009DED0C0B51EC100BFFF762F853EC1B2B14
:103EE000FFF77CFA41EC1B0B51EC1A0B53EC1B2B2C
:103EF000FFF7D3F941EC100B53EC1A2B8DED080BA7
:103F000008959DED080B51EC100BFFF767FA53EC89
:103F10001B2BFFF766FA41EC100B00F0AFB9002045
:103F2000B6F5801F11DA9FEDE60B53EC102B9DEDDB
:103F3000120B51EC100BFFF733F841EC100B6FF044
:103F4000340010EE906A8DED120BDF4900EB265025
:103F5000A0F2FF38C6F3130040F07F6646F04056EB
:103F60008842D8BF002409DDD8498142C8BF012456
:103F700004DC002408F10108A6F58016D448784432
:103F800000EBC40A13969AED000B53EC102B9DED39
:103F9000120B51EC100BFFF721FA9AED000B41ECDC
:103FA0001B0B53EC102B9DED120B51EC100BFFF77C
:103FB00074F941EC100B51EC180B53EC102BFFF77C
:103FC00013FA41EC1C0B51EC1B0B53EC1C2BFEF7B2
:103FD000E7FF41EC1A0BBF488DED0AAB78440A9518
:103FE00090ED000B4FF0005040EA660000EB84407B
:103FF0008DED100B00F5002011909AED000B53ECA5
:10400000102B9DED100B51EC100BFFF7E7F99DED18
:10401000121B53EC112BFFF7E4F941EC100B53EC9E
:10402000102B9DED0A0B51EC100BFEF7B9FF9DED27
:10403000100B41EC1D0B53EC102B9DED0A0B51ECBA
:10404000100BFEF7ADFF53EC1B2BFFF7CAF953EC37
:104050001D2BFFF7C3F953EC1C2BFEF7A1FF41EC1E
:104060001C0B53EC1A2B51EC1A0BFEF799FF41EC89
:104070001B0B99480621B0EE4B0AF0EE6B0A784410
:1040800000F043FBB0EE40DAF0EE60DA53EC1B2BAD
:1040900051EC1B0BFEF784FF53EC1D2BFEF780FF4A
:1040A0009DED0A0B41EC1B0B53EC1A2B51EC100B42
:1040B000FFF7F3F853EC1C2BFEF772FF53EC1B2BAE
:1040C000FFF7EBF89DED0A0B41EC1D0B53EC102BA9
:1040D00051EC100BFEF764FF41EC1B0B9FED80EBE6
:1040E00053EC1E2BFFF7D9F853EC1D2BFFF7D5F837
:1040F00041EC100B53EC1E2B8DED100B10959DED2C
:10410000100B51EC100BFFF769F953EC1B2BFFF769
:1041100065F953EC1D2BFFF764F99DED100B41EC95
:104120001D0B53EC102B9DED0A0B51EC100BFEF701
:1041300037FF41EC1B0B53EC1A2B51EC1D0BFEF718
:104140002FFF9DED100B41EC1A0B53EC102B51EC93
:104150001C0BFEF725FF53EC1A2BFFF79EF841ECE2
:104160001A0B51EC1B0B53EC1A2BFFF796F841EC92
:10417000100B53EC1B2B8DED0A0B0A959DED0A0BD2
:1041800051EC100BFFF72AF953EC1A2BFFF729F922
:1041900041EC1A0B9FED540B53EC102B9DED0A0BC9
:1041A00051EC100BFEF7FCFE41EC1B0B9FED500B8E
:1041B00051EC1A0B53EC102BFEF7F2FE41EC1A0BEC
:1041C0009FED4D0B53EC102B9DED0A0B51EC100B9A
:1041D000FEF7E6FE53EC1A2BFFF75FF841EC100BED
:1041E0004748784400EBC40090ED001B51EC100BE5
:1041F00053EC112BFFF751F841EC1A0B4046FFF737
:10420000CAF941EC100B53EC1A2B8DED0C0B51EC51
:104210001B0BFFF742F841EC100B3A48784400EBD7
:10422000C40451EC100B94ED001B53EC112BFFF761
:1042300034F89DED0C1B53EC112BFFF72EF841ECDD
:10424000100B8DED080B08959DED0C0B53EC102B0E
:104250009DED080B51EC100BFFF7C0F894ED000B2F
:1042600053EC102BFFF7BAF853EC1B2BFFF7B6F803
:1042700053EC1A2BFFF7B5F841EC100B0498791E9C
:10428000B0EE48BAF0EE68BA084308BF9FED1E8B47
:104290009DED241B53EC102B8DED001B00959DED27
:1042A000240B51EC100BFEF77BFE41EC1A0B2FE0B8
:1042B000FE822B654715F73F44DF5DF80BAE543E99
:1042C00000000000000040438E9803007AB60B0007
:1042D000DE220000082300000E2200000000000083
:1042E0000000000000000840000000E009C7EE3FA9
:1042F000FD033ADC09C7EE3FF5015B14E02F3EBE3B
:104300009A20000050200000000000000000F0BFD4
:104310009DED000B53EC102B9DED240B51EC100B7D
:10432000FFF75CF89DED081B53EC112BFEF738FEF0
:1043300053EC1A2BFEF7B1FF9DED080B41EC1A0B65
:1043400053EC102B9DED000B51EC100BFEF728FEEB
:1043500041EC100B51EC1A0B8DED0A0B53EC102BAA
:10436000FEF79BFF41EC100BB54910EE904A10EEA2
:10437000100A8DED020B8C4235DB611A084318D10F
:104380009DED0A0B53EC102B9DED020B51EC100B25
:10439000FFF724F841EC1C0B9FEDAB0B51EC1A0B13
:1043A00053EC102BFEF779FF53EC1C2BFFF71CF995
:1043B00033D2022000F048FA53EC192B51EC190BC0
:1043C000FEF7EEFD41EC100B18EE900A10EE901A7D
:1043D0008DED020B8DED008B61F31E0003909DEDC2
:1043E000020BFFF7A2BB9A4A24F00041914214D37A
:1043F0009849214408437FF4C2AC9DED0A0B53EC6D
:10440000102B9DED020B51EC100BFEF7E7FF53EC68
:104410001A2BFFF7E9F87FF6B2AC24F000408E4982
:104420008E4A002601EB20519042D8BF9DED0A0B29
:104430002DDD481C4FF4801121FA00F02044C0F318
:104440000A51874AA1F2FF317A4492ED000B854A66
:104450008DED0C0BCA4020EA0202C0F3130040F4B9
:104460008010C1F1140120FA01F60D92002CB8BFA2
:1044700076429DED0C0B53EC102B9DED0A0B51EC8D
:10448000100BFEF7ABFF41EC100B8DED0A0B53EC5C
:10449000102B51EC1A0BFEF700FF41EC100B8DEDC9
:1044A0000C0B9FED710B0C9553EC102B9DED0C0B31
:1044B00051EC100BFEF774FD41EC190B9FED6C0BEA
:1044C00053EC102B9DED0C0B51EC100BFEF768FD1F
:1044D0009DED0A0B41EC1C0B53EC102B9DED0C0BCE
:1044E00051EC100BFEF77AFF53EC1A2BFEF779FF15
:1044F0009FED611B53EC112BFEF752FD53EC1C2B6F
:10450000FEF7CBFE41EC1A0B51EC190B53EC1A2BB6
:10451000FEF7C3FE41EC100B53EC192B8DED020B93
:10452000FEF75CFF53EC1A2BFEF75BFF9DED020BD1
:1045300041EC190B53EC102B51EC100BFEF730FD36
:1045400041EC100B4E488DED0C0B0521784400F02A
:10455000DCF89DED0C1B51EC100B53EC112BFEF70E
:104560001FFD9DED021B53EC112BFEF73AFF41ECB2
:10457000100B53EC192B8DED080B9DED020B51EC3C
:10458000100BFEF70DFD53EC192BFEF786FE9FED89
:104590003E0B41EC1A0B53EC102B9DED080B51EC2C
:1045A000100BFEF71BFF9DED080B41EC190B53ECB4
:1045B000102B9DED020B51EC100BFEF7F1FC53ECB0
:1045C000192BFEF711FF53EC1A2BFEF707FF9DED99
:1045D000021B53EC112BFEF701FF53EC1B2BFEF7D4
:1045E00000FF41EC100B10EE900A8DED020B00EB7A
:1045F000065001150029C4BF03909DED020B15DC88
:10460000324651EC100BFEF75EFFFFF76BF8042803
:1046100008BF00F0F9F832469DED020B51EC100B8B
:10462000FEF751FF41EC100B8DED020B53EC102BFC
:1046300051EC180BFEF7B4FCFFF775BA0000000050
:104640000000904000000000FE822B654715973C5B
:1046500000CC904000346F3F01FCFFFF0000E03FC2
:104660009C1E0000FFFF0F0000000000432EE63FED
:10467000396CA80C615C20BEEF39FAFE422EE63F91
:10468000701D00000000000000000000000000405D
:1046900000B52DED048BB0EE408AF0EE608A83B059
:1046A00051EC180BFEF726FF41EC190B19EE100A1E
:1046B00019EE901A8DED009B002818BF01200843C9
:1046C00020F00040C0F17F6000F1E040C00F14D046
:1046D00018EE101A18EE900A8DED008B002918BF05
:1046E0000121084320F00040C0F17F6000F1E0406C
:1046F000C00F04BF012000F0A7F8B0EE490A03B0D4
:10470000F0EE690ABDEC048B00BD70B504462DEDDA
:10471000028B4D1E00EBC500B0EE408AF0EE608AC1
:1047200090ED000B35F0060017D053EC182B51EC30
:10473000100BFEF735FC41EC100B6D1E04EBC500B1
:1047400090ED001B51EC100B53EC112BFEF7A5FD67
:1047500041EC100B35F00600E7D1022D36D0042DC8
:104760001CD0062D1CBFBDEC028B70BD53EC182B6A
:1047700051EC100BFEF714FC94ED0A1B53EC112BBB
:10478000FEF78BFD53EC182BFEF70AFC94ED080B9B
:1047900053EC102BFEF781FD41EC100B53EC182B62
:1047A00051EC100BFEF7FCFB94ED060B53EC102BB9
:1047B000FEF773FD53EC182BFEF7F2FB94ED041B90
:1047C00053EC112BFEF769FD41EC100B53EC182B49
:1047D00051EC100BFEF7E4FB94ED020B53EC102BA5
:1047E000FEF75BFD53EC182BFEF7DAFB94ED000BA4
:1047F00053EC102BFEF751FDBDEC028B41EC100B7E
:1048000070BD0000000000009FED050B10B553ECDB
:10481000102B51EC100BFEF7C3FB41EC100B10BD3D
:10482000000000000000001002E008C8121F08C1CC
:10483000002AFAD170477047002001E001C1121F21
:10484000002AFBD170470000014908607047000052
:104850007C0000202DE9FF5FDDE90220010DDDF87D
:1048600038B0024310D10F9801244CA2012808D07F
:10487000002100980F9BC0E90021C0E90243BDE878
:10488000FF9F6FEA0B01F4E7A1F2FF3144F61050ED
:1048900041430D140F9801280ED0A5EB0B00401CCE
:1048A0004FF000043E4EDFF8FC90B0F1000AA04645
:1048B00005DACAF1000717E0CBF10000F0E7074680
:1048C00012E0F80707D02246334640464946FEF735
:1048D00067FB804689462246334610461946FEF756
:1048E0005FFB04460E467F10002FEAD1DDE902018E
:1048F000BAF1000F42464B4602DAFEF751FB01E0E7
:10490000FEF772FD04460E460022274BFEF76CFEB2
:1049100003D84FF0FF30014607E00022234B20462A
:104920003146FEF7BAFCFEF747FE102409E0002CE2
:104930000ADB0A220023FEF7EAFB019B30321A55FC
:10494000641E50EA0102F2D1641C019AC4F1110301
:1049500014440F9A012A09D00122084301D15B4572
:104960000FDD4FF0000205F101050DE0084303D112
:10497000A3EB0B056D1E09E000204FF0110B0F900B
:1049800088E701DA00226D1E002A83D000980F9973
:10499000C0E90231C0E9004571E7000030000000C5
:1049A000000024400000F03F0000F0430000E03F22
:1049B00010B5002A06DA22F00042D21D22F00703C9
:1049C000102203E0D21C22F003030C2213B19C1826
:1049D0008C4201D9012010BD024401448360C0E92A
:1049E0000021C91AD018884202D810600246F9E79F
:1049F0000020106010BD00002DE9FF4F95B09B46D0
:104A000089460646002512E2252878D10024761C26
:104A1000F94A2746012105943378203B01FA03F037
:104A2000104202D00443761CF6E730782A2811D0D1
:104A30006FF02F033078A0F13002092A16D8059ABA
:104A400044F0020402EB820203EB42021044761CA3
:104A50000590EFE759F8042B0592002A03DA50423B
:104A600044F40054059044F00204761C30782E285B
:104A700016D116F8010F44F004042A280DD06FF067
:104A80002F023078A0F13003092B09D807EB8703F8
:104A900002EB4303C718761CF3E759F8047B761C36
:104AA00030786C280FD006DC4C2817D068280DD041
:104AB0006A2814D104E0742810D07A280FD10DE0B0
:104AC00044F400140AE044F4801401E044F4401477
:104AD0007278824202D1761C04F58014761C3078FC
:104AE00066280BD013DC582877D009DC002875D055
:104AF0004528F6D04628F4D047281AD19FE118E07F
:104B0000632835D0642879D0652812D197E17028C0
:104B100073D008DC6728F1D069286FD06E280DD0DB
:104B20006F2806D1B5E073282CD0752875D0782869
:104B300074D05A46179990476D1C76E1C4F3025021
:104B4000022809D003280DD0D9F8001004280DD070
:104B50000D6009F1040968E1D9F80010EA17C1E90C
:104B60000052F6E7D9F800100D80F2E70D70F0E77B
:104B700019F8041B8DF8001000208DF80100EA469A
:104B8000012003E059F804AB4FF0FF3061074FF00C
:104B9000000102D40DE008F101018846B9420FDAA4
:104BA0008045F8DB1AF808100029F4D108E008F174
:104BB000010188468142FADB1AF808100029F6D173
:104BC00005985B46A0EB080721463846179A00F087
:104BD0009EFA284400EB080507E04DE02BE10DE0CC
:104BE0001AF8010B5A4617999047B8F10108F7D205
:104BF0005B4621463846179A14E142E00A220092A9
:104C0000C4F302524FF0000A022A08D059F804CB2C
:104C1000032A4FEAEC710AD00DE029E02AE009F1FD
:104C2000070121F00702F2E802C1914609E00FFAFC
:104C30008CFC4FEAEC71042A03D14FFA8CFC4FEA4A
:104C4000EC71002907DA0A460021DCF1000C61EB67
:104C500002012D2202E0220504D52B228DF804202A
:104C6000012203E0E20701D02022F7E7904653E05B
:104C70000A2102E010220DE010214FF0000A0091FD
:104C80000BE010224FF0000A44F0040408270092C1
:104C900003E008224FF0000A0092C4F30252022AF5
:104CA00005D059F804CB0021032A08D009E009F106
:104CB000070121F00702F2E802C1914605E01FFA60
:104CC0008CFC042A01D10CF0FF0C4FF000082207E5
:104CD00022D5702827D0009B83F0100353EA0A03E3
:104CE00009D15CEA010206D030228DF804208DF84B
:104CF000050002229046009B83F0080353EA0A0352
:104D00000AD15CEA010201D1620705D530228DF893
:104D100004204FF001087F1E582809D037A00390C7
:104D20000EA8029013E040228DF804200122E1E752
:104D300037A0F4E753466046009AFEF7E8F9844648
:104D40000398825C0298A0F10100029002705CEA74
:104D50000100EFD1029806A9A1EB000000F1200AA2
:104D6000600702D524F4803400E00127574502DDB6
:104D7000A7EB0A0000E0002000EB0A010090059874
:104D80004144A0EB01000590E00306D45B462146B8
:104D9000179A059800F0BBF90544002706E001A822
:104DA0005A46C05D179990476D1C7F1C4745F6DB3E
:104DB000E0030CD55B462146179A059800F0A7F949
:104DC000054404E030205A46179990476D1C00991D
:104DD000481E00900029F5DC08E0029802995A4626
:104DE0000078491C0291179990476D1CBAF1000197
:104DF000AAF1010AF1DC6BE10928010030313233FC
:104E00003435363738396162636465660000000006
:104E100030313233343536373839414243444546F0
:104E20000000000000F060F9054406F1010630784A
:104E300000287FF4E9AD19B02846BDE8F08F62077D
:104E400000D4062709F1070222F0070CFCE8022330
:104E5000E14603F000485FEA080C02D00FF27C2C18
:104E60000DE05FEA045C02D50FF2742C07E05FEA04
:104E7000C47C02D00FF26C2C01E0AFF2700C4FF04A
:104E8000FF3823F00043CDF850C065280CD006DC75
:104E9000452809D046281DD047283ED13EE0662847
:104EA00018D0672839D139E00021112F01DB1120FA
:104EB00000E0781CCDE9000106A90EA8FFF7CAFCA6
:104EC000DDE90F010E9A03910021009207F1010A1A
:104ED00004914EE04FF000400097CDE9011006A983
:104EE0000EA8FFF7B7FCDDE90F0203920E9B1199A4
:104EF0000022DDF80CA00093049219B907F101011A
:104F000000EB010AB7EB0A0004D4C0F1FF3007F14F
:104F1000010A0490AAEB0700019046E0012F00DA95
:104F200001270021112F01DD112000E03846CDE9D5
:104F3000000106A90EA8FFF78DFCDDE90F010E9A0E
:104F40000391002104910092BA4621070CD40399E1
:104F5000514500DA8A46BAF1010F05DD009AAAF13F
:104F60000101515C302908D0B84202DA10F1040F77
:104F700006DA0121CDE9011017E0AAF10101E9E704
:104F8000002805DC049901440491AAEB000102E029
:104F9000411C514500DD8A460499A0EB010000F157
:104FA000010001904FF000400290200704D40198C6
:104FB000504501DBCDF8048000208DF84F000298A9
:104FC0000DF14F07B0F1004F25D02B200E90029825
:104FD0004FF0020800280CDA404202902D200E907B
:104FE00007E00A210298FEF77CF83031029007F8BA
:104FF000011DB8F10001A8F10108F2DC02980028B7
:10500000EFD1791E0E980870307800F0200040F043
:10501000450007F8020D12A8A0EB070000F10708F1
:105020001498007800B1012000EB0A01019801EB0F
:10503000E07105984144A0EB0100A0F1010005904A
:10504000E00306D45B462146179A059800F05FF806
:1050500005441498007820B15A461799904705F1F5
:105060000105E00323D55B462146179A059800F019
:105070004EF805441BE00498002807DBDDE9030136
:10508000884203DD0098405C179901E017993020B1
:105090005A46904704986D1C401C04900198401E8D
:1050A000019004D12E205A46179990476D1CBAF1F1
:1050B0000001AAF1010ADEDC05E017F8010B5A46EF
:1050C000179990476D1CB8F10001A8F10108F4DCB4
:1050D0005B462146179A0598A4E600002D000000C3
:1050E0002B000000200000002DE9F04104460025BF
:1050F0001E461746880405D406E039462020B047EE
:1051000005F10105641EF8D52846BDE8F0812DE9BA
:10511000F041044600251E469046C80301D53027BD
:1051200000E02027880405D506E041463846B04710
:1051300005F10105641EF8D52846BDE8F0810A682E
:10514000531C0B601070704708480068C0010BD5F5
:1051500007480068C00707D0054880380068002865
:1051600002DA04490120087070470000FCED00E0FD
:10517000800E00E0720000204FF06042D36F002BE1
:10518000FCD0C36AD367D36F002BFCD0C07840EA51
:105190000120A2F87C0070474FF06041CA6F002ADE
:1051A000FCD081F87C00704741EC100B82B010EE0F
:1051B000900A8DED000B20F0004001909DED000B5A
:1051C00002B051EC100B704770B504000D4603D0CF
:1051D00012B92078012801D0802070BD204600F04F
:1051E0005FFA28B12946204600F02CF8002070BD57
:1051F000812070BD10B504468089002821D06089C7
:1052000004EB8000006908606078022805D1002165
:10521000204600F099FB00F087FB04F10C0000BF72
:10522000D0E85F1F491EC0E8521F002AF8D16089EC
:10523000401C80B26081E189884201D100206081F8
:10524000042010BD10B500F07FFBBDE8104000F059
:105250006BBB0000EFF3058109B182207047DFF8D6
:1052600008C000DF70470000C35E0008EFF305824E
:105270000AB182207047EFF31482144B12F003023C
:1052800006D0012A1BD0022A11D0032A19D113E01B
:10529000EFF3088282F309881A78D2070AD0022233
:1052A00082F31488BFF34F8FBFF36F8F09E01A7832
:1052B000D20706D10322F3E71A78D20701D0FF20E4
:1052C0007047DFF80CC000DF704700004C61000839
:1052D000D95E00082DE90E40EFF30582B2B102005D
:1052E0004FF0800000D021B10090DDE9011203B041
:1052F00000BD11780129F7D101A91046FFF77AFF07
:10530000042801D00020EFE71020EDE7DFF804C00B
:1053100000DFECE7D15F0008EFF305820AB100205F
:105320007047DFF808C000DF704700000D6000081C
:10533000DFF80CC000DFDFF80CC000DFFEE7000084
:105340007D60000899600008DFF804C000DF704746
:10535000D1600008094C4FF0FF3529462068FFF75F
:10536000B9FF02460846102AF7D1FFF7EDFF0028E3
:10537000F3D0024608469047EFE7000020000020E7
:105380004FEA000151E8000F28B1036841E80032FC
:10539000002AF7D17047BFF32F8F704710B568B15F
:1053A00061B10B3121F00302016844680B1A1B1B29
:1053B000934205D2084609680029F5D1002010BDA6
:1053C0003CB121180368C1E90032016001F1080015
:1053D00010BD4260083010BD70B50C46002812D0D8
:1053E0004FF6FF71084D884204D22A6801461046E4
:1053F00000F0D6FA28684470044800F0D7F8BDE8F9
:10540000704000F08FBB70BD64000020B000002031
:105410000F4810B50D4942680E480B68008893424A
:1054200004D00A60CB88421E1A448A808A8882424D
:105430000AD100200860064800F0B8F80146BDE82F
:105440001040034800F0DABA10BD000074000020DC
:10545000B00000207000002070B5194DE8680028E9
:105460002CD0A88A401EA882002621E0A06838B16E
:1054700061684160606810B1A16881606660A66083
:105480000F482146183800F0B9FAA08AA88260783F
:10549000042804D10B49E08A09880844A08201202D
:1054A0006070E068E860E06808B10561E660266168
:1054B000A88A002802D1EC68002CD7D170BD00006A
:1054C000C80000207000002070B504000FD00D4D02
:1054D000A17801262868827891420CD900F0AAFAB6
:1054E000286846702046BDE8704000F01BBB0648A7
:1054F00000F05CF8F7E766702146BDE870400248AE
:1055000000F07CBA64000020B00000200321FFF707
:1055100063BF000010B50446008B08432083627807
:10552000618B062A18D0052A19D1084217D001EA42
:105530000002628388432083204600F09BFA01200A
:105540006070628B0821204600F08CFA2146BDE88D
:105550001040034800F052BA31EA0002EAD010BD10
:10556000B0000020814202D342688A4201D8012063
:10557000704750E8002F0A6040E80012002AF8D176
:105580000020704768B161B10839002202E002468C
:10559000006830B18842FAD12AB10068106000205A
:1055A00070470120704700214160F8E701464068DC
:1055B00042684A600B780022022B05D0012B03D0F1
:1055C000032B01D04260704743680BB19960426081
:1055D00082607047810700D00020704770B5044694
:1055E00000201546207001226270A1706060A060EA
:1055F000E0602061A082E0822083608384F8200044
:10560000608C18B90448FFF7BBFEA062294620460B
:10561000BDE8704000F01CB86001001008B1082916
:1056200001D2012070470144091F002201600A6075
:1056300042601046704700000348002101600349A2
:105640000968C180704700007400002044610008B0
:1056500010B5428C920803D10F4A1268C2F38D0232
:10566000836A03EB8202530700D5121F403A4FF0C2
:105670008073C2E90E1300234FEA030442F823406B
:105680005B1C0E2BFAD3C36913624262C162806A4B
:105690000249016010BD000040610008A52E5AE2D9
:1056A000C1898089081A7047012202700022427065
:1056B0008270426002814281103982818908C181F1
:1056C000704700002DE9F0410446407800270E465F
:1056D0004FF00108012855D004F10C0502282BD009
:1056E000032818D0A089E189884262D2208904EB7E
:1056F00080000661D5E85F0F401CC5E8510F002906
:10570000F8D12089401C80B22081E189884200D1F3
:105710002781BDE8F0810846FFF732FE0600F8D089
:105720002046FFF743FF0546606800B967703146C1
:10573000284600F091F931E02046FFF737FF064692
:10574000606800B967700021304600F085F9218952
:10575000F06904EB81010861D5E85F0F401CC5E8E2
:10576000510F0029F8D12089401C80B22081E189A5
:10577000884200D1278186F80180304600F07AF90E
:10578000314611E02046FFF711FF0546606800B979
:10579000677032461021284600F064F985F80180D0
:1057A000284600F067F92946BDE8F041034800F0BB
:1057B00025B9BDE8F0410320FAF7C8BEB0000020CB
:1057C00070B50446808915460026C8B3608904EB8D
:1057D0008000006908606089401C80B26081E189B6
:1057E000884200D16681607802280AD014F10C0446
:1057F000D4E85F0F401EC4E8510F0029F8D1002003
:1058000070BD2046FFF7D2FE0546606800B966709D
:105810000021284600F020F92189E86904EB810184
:1058200008612089401C80B22081E189884200D132
:105830002681284600F01EF92846FFF745FEDEE7E0
:10584000FFE73DB10A48626801682AB1204600F0CE
:10585000D5F807E0012070BD61600068C0E901640F
:105860000120607008212846FFF7B6FDF2E700002E
:1058700064000020411C13D00B4A4FF6FE71904289
:105880000CD800EB4002C2EBC0120848036803EBDF
:10589000C202521EB2FBF3F0884200D9084670479C
:1058A0004FF6FF707047000000093D00506100088E
:1058B00070B51A4801210068417000F0BBF8184D1E
:1058C0006C7816E005EBC40148680278E2B1012A61
:1058D0001FD000F0FBF8E878641C844200D100245B
:1058E0000F48801CD0E84F1F491EC0E8421F002A05
:1058F000F8D1A8780028E5D16C700A48FFF756FE69
:10590000BDE8704000F00EB9896889B2FFF702FE69
:10591000E1E78968FFF7D6FEDDE7000064000020BC
:10592000901A0010B00000200548017811B1012143
:105930004170704703494FF0805008607047000085
:105940006C00002004ED00E0F0B4144B9C1CDD78EA
:105950004FEA030CD4E84F2FAA4202D1BFF32F8F96
:105960000EE0521CC4E8462F002EF3D1DCE84F2F86
:10597000541CAC4200D10024CCE8464F002EF5D197
:10598000DC78944205D903EBC202C2E90101F0BC04
:105990007047F0BC0220FAF7D9BD0000901A001041
:1059A000154A10B5D368FBB113469B8A09E000BFC6
:1059B000D2F80CC0BCF1000F16D0BCF814406246FF
:1059C00023448B42F4D3D468C460D0600261D0F821
:1059D0000CC0BCF1000F01D0CCF81000591A818224
:1059E000908A401A908210BD0024C460D060C91A09
:1059F00002619182848210BDC800002010B5027837
:105A00000023022A03D0012A01D0032A00D1012356
:105A100091F802C000E01046426812B194786445E3
:105A2000F9D24A6041601BB102B19160886010BD3B
:105A30000020FBE703494A68426000228260486018
:105A400070470000B000002090F82010406A09B1B3
:105A5000603070472030704710B50C46FFF7F4FFF8
:105A6000046010BD70B50C461546FFF7EDFFC0E9A8
:105A7000004570BD10B5016900290ED0C268CA602A
:105A8000C36800223BB18B8A848A23448B82C3681B
:105A90001961C26000E08A82026110BD816839B17B
:105AA00042684A604168002901D080688860704778
:105AB000054906E04A68824202D140684860704762
:105AC00011460029F6D17047B000002010B541689A
:105AD00081B1FFF76BFD0446FFF7CCFF012060703A
