:020000040800F2
:10000000C8040020250500082D0500082F0500085C
:100010003105000833050008350500080000000020
:1000200000000000000000000000000009020008BD
:100030003905000800000000AD0200080D030008AB
:100040003F0500083F0500083F0500083F05000880
:100050003F0500083F0500083F0500083F05000870
:100060003F0500083F0500083F0500083F05000860
:100070003F0500083F0500083F0500083F05000850
:100080003F0500083F0500083F0500083F05000840
:100090003F0500083F0500083F0500083F05000830
:1000A0003F0500083F0500083F0500083F05000820
:1000B0003F0500083F0500083F0500083F05000810
:1000C0003F0500083F0500083F0500083F05000800
:1000D0003F0500083F0500083F0500083F050008F0
:1000E0003F0500083F0500083F0500083F050008E0
:1000F0003F0500083F0500083F0500083F050008D0
:100100003F0500083F0500083F0500083F050008BF
:100110003F0500083F0500083F0500083F050008AF
:100120003F0500083F0500083F0500083F0500089F
:100130003F0500083F0500083F0500083F0500088F
:100140003F0500083F0500083F0500083F0500087F
:100150003F0500083F0500083F0500083F0500086F
:100160003F0500083F0500083F0500083F0500085F
:100170003F0500083F0500083F0500083F0500084F
:100180003F0500083F050008DFF814D002F088FFA3
:100190000021024803F0FAFCFEE70000344A0008A0
:1001A000C804002080F309887047684680F30988F6
:1001B00004480078C00714BF0220032080F314888D
:1001C00070470000FC490008DFF818C0EFF3058312
:1001D0001B0618BF6047EFF31483DB0708BF6047B7
:1001E00000DF7047A13C0008DFF818C0EFF305837B
:1001F0001B0618BF6047EFF31483DB0708BF604797
:1002000000DF7047853E0008EFF30980816911F82F
:10021000021C002933D190E80F1010B5E047BDE86B
:100220001040EFF3098C8CE807001D4B93E80600A3
:10023000914208BF704781B11EF0100F06BF2CED30
:10024000108A0120002081F820002CE9F00FC1F86D
:1002500024C00CB404F0E4F80CBC1A60D2F824C03A
:10026000BCE8F00F92F8200000281ABFBCEC108AFE
:100270006FF0120E6FF0020E8CF30988704710B504
:10028000084A1268914209D8074C54F8214090E876
:100290000F10A047EFF3098C8CE80F0010BD000091
:1002A0004C000020283100082831000810B503F068
:1002B0008FFFBDE81040174B93E80600914208BF3E
:1002C0007047EFF3098C1EF0100F06BF2CED108A5B
:1002D0000120002081F820002CE9F00FC1F824C093
:1002E0000CB404F09DF80CBC1A60D2F824C0BCE831
:1002F000F00F92F8200000281ABFBCEC108A6FF0B3
:10030000120E6FF0020E8CF30988704710B504F0DE
:100310004DF9CEE74C0000200CB500200190009074
:100320007548006840F480307349086000BF724827
:10033000006800F4003000900198401C0190009883
:1003400018B90198B0F5A06FF1D16B48006810F4AE
:10035000003F02D00120009001E0002000900098B2
:10036000012845D164484030006840F0805062491F
:10037000403108606148006840F480405F4908608F
:100380005D48083000685C4908310860084600682C
:1003900040F4004008600846006840F4A05008603F
:1003A0005748091F0860081F006840F08070091F47
:1003B000086000BF5048006810F0007FFAD040F29B
:1003C0000560504908604C480830006820F0030080
:1003D0004949083108600846006840F0020008609A
:1003E00000BF45480830006800F00C000828F8D12C
:1003F0000CBD10B54448006840F4700042490860E4
:100400003D48006840F001003B49086000203A493F
:1004100008310860384800683C490840364908609F
:100420003B48091D0860081F006820F48020091F50
:100430000860002030490C310860FFF76DFF4FF075
:10044000006031498039086010BD70B5002000227D
:10045000022300240221284D08352D6805F00C00E8
:1004600020B1042806D0082834D107E0294D2A4EAF
:10047000356033E0294D284E35602FE01E4D2D1D8F
:100480002D68C5F380541C4D2D1D2D6805F03F01CE
:1004900054B1224DB5FBF1F5174E361D3668C6F343
:1004A000881605FB06F209E01A4DB5FBF1F5124E70
:1004B000361D3668C6F3881605FB06F20E4D2D1D57
:1004C0002D68C5F301456D1C6B00B2FBF3F5124EB0
:1004D000356003E00F4D104E356000BF00BF064D84
:1004E00008352D68C5F303150D4E705D0A4D2D6856
:1004F000C540094E356070BD0038024000700040B4
:1005000008544007003C024088ED00E0FFFFF6FE83
:10051000103000240024F4000000002000127A00B3
:10052000040000200648804706480047FEE7FEE733
:10053000FEE7FEE7FEE7FEE7FEE7FEE7FEE7FEE793
:10054000F30300088901000800BFFEE700BFFEE7D3
:100550001CB50121082001F0B7FF4FF48050009036
:1005600001208DF8040000208DF8060003208DF88E
:10057000050000208DF807006946274801F05EFD60
:1005800000F03EFF4CF2503000F063FB01F009F840
:100590004CF2503000F05DFB4CF2503000F059FB53
:1005A00001F00BF800F0C9FF00F0E3FF00F0EDFFF1
:1005B0004B2001F00EF8562001F00BF800F0BDFFC3
:1005C000502001F006F8642001F003F800211348E0
:1005D00003F032FB0021124803F02EFB00211148EA
:1005E00003F02AFB03E04FF0FF3003F0C3FAFAE711
:1005F00011E04FF47A7003F0BDFA4FF480500649D1
:10060000183108804FF47A7003F0B4FA4FF4805038
:1006100001491A310880ECE7000C0240444A000806
:10062000544A0008644A00081CB540208DF80000B8
:1006300000208DF8010007208DF8020000208DF8C1
:1006400003008DF80400684600F052FD1CBD000058
:1006500000B58DB00121080201F07AFF01210420CC
:1006600001F032FF01A801F031FD102001900120BE
:100670008DF8080003208DF8090000208DF80A008D
:100680008DF80B0001A9294801F0D8FC102127485A
:1006900001F050FD1021254801F04EFD01221021EE
:1006A000224801F04BFD1621204801F04CFD0020AE
:1006B000039004900590069003A801F0C5F900206E
:1006C00007908DF820008DF8210009900B900120F3
:1006D0008DF8300007A9164801F087F90121144868
:1006E00001F0CEF9012001F0E9F9062301221021E1
:1006F0000F4801F005FA0DB000BD10B50C4801F02F
:100700005BFA00BF02210A4801F078FB0028F9D00B
:10071000074801F08DFA0221054801F078FB0448F2
:1007200001F086FA0446204610BD00000000024099
:10073000002001401CB50121082001F0C5FE6846DB
:1007400001F0C4FC40F2FF70009001208DF804001D
:1007500003208DF8050000208DF806008DF80700B5
:100760006946FB4801F06AFC1CBD70B505460C46A5
:10077000002D05DB0C2D03DC012C01DB032C00DD3F
:1007800070BD032C11D101221102F14801F0D6FCF9
:1007900000224FF40071EE4801F0D0FC00224FF42B
:1007A0008061EB4801F0CAFC22E0022C0FD100224C
:1007B000E101E74801F0C2FC01225102E44801F0E6
:1007C000BDFC00226102E24801F0B8FC10E000220A
:1007D0004FF48071DE4801F0B1FC00224FF400714B
:1007E000DB4801F0ABFC01229102D94801F0A6FCE4
:1007F0000D2D7CD2DFE805F007305984ADD6FEFD23
:10080000FCFBFAF9F80001221146D14801F096FCF0
:1008100001220221CE4801F091FC01220421CC48A2
:1008200001F08CFC00220821C94801F087FC01225C
:100830001021C74801F082FC01222021C44801F0A8
:100840007DFC01224021C24801F078FC0022802179
:10085000BF4801F073FCF9E100220121BC4801F01E
:100860006DFC00220221BA4801F068FC012204213B
:10087000B74801F063FC00220821B54801F05EFC96
:1008800000221021B24801F059FC01222021B04879
:1008900001F054FC00224021AD4801F04FFC002241
:1008A0008021AB4801F04AFCD0E100220121A84898
:1008B00001F044FC01220221A54801F03FFC012285
:1008C0000421A34801F03AFC01220821A04801F0CC
:1008D00035FC012210219E4801F030FC002220212D
:1008E0009B4801F02BFC01224021994800E0ACE13B
:1008F00001F024FC00228021954801F01FFCA5E1B5
:1009000000220121924801F019FC012202219048A5
:1009100001F014FC012204218D4801F00FFC01229A
:1009200008218B4801F00AFC00221021884801F0C0
:1009300005FC01222021864801F000FC0122402113
:10094000834801F0FBFB00228021814801F0F6FB87
:100950007CE1012211467E4801F0F0FB00220221D9
:100960007B4801F0EBFB01220421794801F0E6FB12
:1009700001220821764801F0E1FB00221021744891
:1009800001F0DCFB01222021714801F0D7FB00229D
:1009900040216F4801F0D2FB002280216C4801F019
:1009A000CDFB53E101221146694801F0C7FB01224A
:1009B0000221674801F0C2FB00220421644801F0D3
:1009C000BDFB01220821624801F0B8FB0022102182
:1009D0005F4801F0B3FB012220215D4801F0AEFB2E
:1009E000012240215A4806E006E1DCE0B2E085E061
:1009F0005BE031E007E001F0A1FB002280215448D8
:100A000001F09CFB22E101221146514801F096FBC6
:100A1000012202214E4801F091FB002204214C48A2
:100A200001F08CFB01220821494801F087FB0122DB
:100A30001021474801F082FB01222021444801F0A7
:100A40007DFB01224021424801F078FB00228021F9
:100A50003F4801F073FBF9E0002201213C4801F01E
:100A60006DFB012202213A4801F068FB01220421BA
:100A7000374801F063FB00220821354801F05EFB96
:100A800000221021324801F059FB01222021304878
:100A900001F054FB002240212D4801F04FFB0022C1
:100AA00080212B4801F04AFBD0E001221146284862
:100AB00001F044FB01220221254801F03FFB012205
:100AC0000421234801F03AFB01220821204801F0CB
:100AD00035FB012210211E4801F030FB01222021AC
:100AE0001B4801F02BFB01224021194801F026FB95
:100AF00000228021164801F021FBA7E001221146C7
:100B0000134801F01BFB01220221114801F016FBE2
:100B1000012204210E4801F011FB012208210C489A
:100B200001F00CFB00221021094801F007FB012213
:100B30002021074801F002FB01224021044801F076
:100B4000FDFA00228021024801F0F8FA7EE0000060
:100B5000000C024000220121E64801F0EFFA0022D9
:100B60000221E44801F0EAFA00220421E14801F000
:100B7000E5FA00220821DF4801F0E0FA0022102106
:100B8000DC4801F0DBFA00222021DA4801F0D6FA35
:100B900000224021D74801F0D1FA01228021D54816
:100BA00001F0CCFA52E000220121D24801F0C6FA4D
:100BB00000220221CF4801F0C1FA00220421CD48D1
:100BC00001F0BCFA01220821CA4801F0B7FA00225C
:100BD0001021C84801F0B2FA00222021C54801F0D6
:100BE000ADFA00224021C34801F0A8FA002280217A
:100BF000C04801F0A3FA29E000220121BD4801F01C
:100C00009DFA00220221BB4801F098FA002204213B
:100C1000B84801F093FA00220821B64801F08EFA94
:100C200000221021B34801F089FA00222021B148A6
:100C300001F084FA00224021AE4801F07FFA002240
:100C40008021AC4801F07AFA00BF99E500BF00BFEF
:100C500096E500BF0100A0F10100FBD1704730B55F
:100C60002DED068B85B0B0EE408A002001900290F9
:100C7000039004900A246425B2EE040AB0EE409A70
:100C800008EE900AB5EEC08AF1EE10FA12D218EE14
:100C9000100A02F009F841EC100BB0EE40AAF0EE99
:100CA00060AA53EC1A2B94A002F040FA05B0BDECF8
:100CB000068B30BD9FED990AB4EEC08AF1EE10FAB2
:100CC00042D200EE104AB8EEC00AC8EE000ABDEEED
:100CD000E00A8DED010A0198604300EE100AB8EEBB
:100CE000C00A38EE400ABDEEC00A8DED020A0A20A5
:100CF0000390BDEEC80AF0EE408AB8EEE80A38EE7E
:100D0000400A20EE090ABDEEC00A8DED040A032157
:100D10000198FFF72AFD8248FFF79BFF0221029806
:100D2000FFF723FD7E48FFF794FF02210398FFF7AA
:100D30001CFD7B48FFF78DFF01210498FFF715FD8F
:100D40007748FFF786FF3CE000EE105AB8EEC00A85
:100D5000C8EE000ABDEEE00A8DED010A0198684375
:100D600000EE100AB8EEC00A78EE400A00EE104A13
:100D7000B8EEC00A80EE801ABDEEC10A8DED020AFF
:100D800001986843029901FB040000EE100AB8EED6
:100D9000C00A38EE400ABDEEC00A8DED030A0321F9
:100DA0000198FFF7E2FC5E48FFF753FF022102982B
:100DB000FFF7DBFC5A48FFF74CFF01210398FFF7D0
:100DC000D4FC00BF72E710B50446E2B24FF4804194
:100DD000484801F0B3F910BD10B504462069F8B1D8
:100DE00005E00120FFF7EFFF6069401E6061606968
:100DF0000028F6D1FFF7E7FFD4E90012881AFFF7C1
:100E000028FFA169A068401AA060A0686061A0687E
:100E1000002805DC002020610120E060A069A060BE
:100E2000E06820B305E00120FFF7CDFF6069401CBA
:100E30006061A16860698842F5DD0020FFF7C3FFAB
:100E4000D4E90112881AFFF704FFA169A0680844D9
:100E5000A06000206061D4E90110884207DB012016
:100E600020610020E0606068A0606068606110BD83
:100E700070B52DED028B84B0B0EE408A04460020A0
:100E80000190029003900A26BDEEC80A10EE105A97
:100E9000002D03DA0B2001906D4201E00C2001903F
:100EA0009FED1E0AB4EEC08AF1EE10FA07D295FB50
:100EB000F6F00290029800FB1650039003E004B095
:100EC000BDEC028B70BD012C04D103210198FFF70A
:100ED0004CFC0CE0022C04D102210298FFF745FCE7
:100EE00005E0032C03D101210398FFF73EFC00BF6E
:100EF000E5E70000000C0240546D65706572617496
:100F00007572653A2566206973206C657373207469
:100F100068656E207A65726F2E0A00000000C84274
:100F2000EB300400704710B504464FF48050EA4996
:100F3000086009E0E8490868411EE74A116018B9ED
:100F4000FFF7F0FFC0B210BD0221E44801F0B9FD87
:100F50000028EFD02146E14801F07CFD4FF480509D
:100F6000DD49086009E0DC490868411EDA4A116081
:100F700018B9FFF7D7FFC0B2E5E70121D74801F064
:100F8000A0FD0028EFD0D54801F061FDC0B2DAE73E
:100F900070B505460E461446012C01DD46F04006AC
:100FA0000821CF4801F0C8F83046FFF7BCFF05E044
:100FB0002878FFF7B8FF601E84B26D1C012CF7DAA9
:100FC0000821C74801F0B6F870BD00B587B001210F
:100FD000080301F0BDFA0121084601F075FA01216C
:100FE000102001F071FA0121102001F06DFA0121A9
:100FF000102001F069FA05221146BA4801F0A9F85B
:1010000005220621B74801F0A4F805220721B548BA
:1010100001F09FF802208DF8180000208DF81A00CA
:1010200002208DF81B008DF819002020059005A9DD
:10103000AC4801F003F88020059005A9A94800F00C
:10104000FDFF4020059005A9A64800F0F7FFA34842
:1010500001F078FB0020ADF80000ADF80400ADF819
:101060000600ADF808004FF40070ADF80A00082043
:10107000ADF80C000020ADF80E000720ADF8100010
:101080004FF48270ADF802006946944801F080FB8D
:101090000121924801F05DFC0820059001208DF8A7
:1010A000180000208DF81A0002208DF8190005A9FB
:1010B0008B4800F0C3FF0821894801F03BF801206C
:1010C000059000208DF818008DF81A0002208DF888
:1010D000190000208DF81B0005A9814800F0AEFF23
:1010E0000220059005A97E4800F0A8FF07B000BDCA
:1010F00038B5044600200090FFF767FF607821783C
:101100000843E178084321790843A1780843009017
:10111000012220216846FFF73BFF38BD70B5064627
:101120000C461546012D02DD44F0C00401E044F0F8
:10113000800408216A4800F0FFFF2046FFF7F3FE15
:1011400006E00020FFF7EFFE3070681E85B2761CC7
:10115000002DF6DC0821624800F0ECFF70BD38B5C8
:10116000044600200090012221216846FFF7D6FFA7
:101170009DF8000000F0D0000090207861780843CE
:10118000A17808439DF80010084300900122212116
:101190006846FFF7FDFE38BD38B5044600200090D4
:1011A000012238216846FFF7B9FF207861780843AB
:1011B000A17808430090012238216846FFF7E8FE35
:1011C00038BD38B50446012220216846FFF7A6FF46
:1011D0009DF8000000F0BF0000909DF80000204343
:1011E0000090012220216846FFF7D2FE38BD38B5B5
:1011F0000446012220216846FFF790FF9DF8000079
:1012000000F07F0000909DF8000020430090012234
:1012100020216846FFF7BCFE38BD38B504460122E0
:1012200020216846FFF77AFF9DF8000000F0DF00FC
:1012300000909DF800002043009001222021684684
:10124000FFF7A6FE38BD08B5012221216846FFF749
:1012500065FF9DF8000040F0400000900122212130
:101260006846FFF795FE08BD3EB5054600240122FD
:1012700020216846FFF752FF0622292101A8FFF727
:101280004DFF9DF8000010F0200002D0202820D152
:101290000FE000240AE001A911F8140040B200EBAD
:1012A000C000400028602D1D601CC4B2032CF2DB7E
:1012B00010E000240AE001A911F8140040B200EB8C
:1012C000C000C00028602D1D601CC4B2032CF2DBDE
:1012D00000E000BF00BF3EBD240000200030014000
:1012E00000100240000002402DED048BFFF7B0F922
:1012F000B0EE080AB0EE409A9FED100AF0EE409A68
:1013000000BF1AE0FFF7F9F9044600EE104AB8EE04
:10131000400A29EE000ADFED0A0AC0EE208A78EEC4
:10132000E90A9FED081AB3EE090AB0EE408A00EE12
:10133000818AB0EE480A00F084F9E3E75C8F423F0F
:1013400000F07F450000C84398B00020159016902B
:101350001790FFF769F96420FFF77BFC00F0B0FA03
:101360006420FFF776FC002400200E900F9004E02C
:10137000002110A840F82410641C052CF8DB002480
:1013800000200790089004E0002109A840F82410EC
:10139000641C052CF8DB002400200090019004E080
:1013A000002102A840F82410641C052CF8DB00BFC3
:1013B000FEE700001149096811F0010F0ED00F4936
:1013C0008039096811F0010F08D000BF4FF060416B
:1013D00009680029FAD04FF060421070704770B56C
:1013E00004460D462046FFF7E5FF70BD10B50446E4
:1013F0002046FFF7DFFF10BD00BFFEE7800E00E0D4
:101400001CB50121082001F05FF8684600F05EFE7F
:1014100044F2FF70009001208DF804008DF8050063
:1014200000208DF806008DF807006946EF4800F0AF
:1014300005FE01221102ED4800F080FE1CBD00E017
:10144000401E0028FCD1704700B5024604E04CF273
:101450005030FFF7F4FF521E002AF8D100BD10B53E
:10146000044600224FF48071E04800F067FE2046F9
:10147000FFF7EAFF01221102DC4800F05FFE10BD19
:1014800070B588B005460126002406E005EA06008E
:101490004DF824007006060E641C082CF6DB00983C
:1014A000C2B20121D14800F049FE0198C2B2022126
:1014B000CE4800F043FE0298C2B20421CB4800F0AF
:1014C0003DFE0398C2B20821C84800F037FE0498D8
:1014D000C2B21021C54800F031FE0598C2B22021E9
:1014E000C24800F02BFE0698C2B24021BF4800F06F
:1014F00025FE0798C2B28021BC4800F01FFE08B04C
:1015000070BD10B5044664B900224FF40071B748AD
:1015100000F014FE00224FF48061B44800F00EFE8B
:101520000AE000224FF40071B04800F007FE0122EB
:101530009102AE4800F002FE10BD10B50020FFF78A
:10154000E0FF0120FFF79CFF0520FFF788FF10BD9B
:1015500010B5044600224FF48071A44800F0EEFD5F
:101560002046FFF76CFF01221102A04800F0E6FDC3
:1015700010BD10B50020FFF7C4FF0220FFF780FF69
:101580004CF25030FFF7E4FF10BD10B50020FFF71C
:10159000B8FF0620FFF774FF4CF25030FFF7D8FF7A
:1015A00010BD10B50020FFF7ACFF3820FFF768FF33
:1015B0004CF25030FFF7CCFF10BD10B50020FFF704
:1015C000A0FF0F20FFF75CFF4FF47A70FFF747FF93
:1015D00010BD10B504460120FFF793FF2046FFF72A
:1015E0004FFF4CF25030FFF7B3FF10BD10B504466B
:1015F0000020FFF786FF2046FFF742FF4CF25030F5
:10160000FFF7A6FF10BD70B505460C462846FFF74C
:10161000EDFF03E02078FFF7DCFF641C2078002852
:10162000F8D170BD70B505460E460024FFF785FF62
:1016300004E0285DFFF7CDFF601CC4B2B442F8DBC4
:1016400070BDF0B52DED068B8BB0B0EE408A00205A
:101650000790089009900A900A246426B2EE040AC2
:10166000B0EE409A08EE900A00250027B5EEC08A39
:10167000F1EE10FA12D218EE100A01F015FB41EC4F
:10168000100BB0EE40AAF0EE60AA53EC1A2B58A053
:1016900001F04CFD0BB0BDEC068BF0BD9FED5D0A7B
:1016A000B4EEC08AF1EE10FA26D200EE104AB8EE7F
:1016B000C00AC8EE000ABDEEE00A8DED070A0798E1
:1016C000604300EE100AB8EEC00A38EE400ABDEEE4
:1016D000C00A8DED080A0A200990BDEEC80AF0EE96
:1016E000408AB8EEE80A38EE400A20EE090ABDEE5C
:1016F000C00A8DED0A0A00E0CCE74748006880B1D7
:1017000046A103A801F022FD0546C820FFF79CFE74
:10171000294603A8FFF786FF3F480068401E3E4960
:1017200008600A98009041A101A8DDE9072301F0B3
:101730000DFD0746C820FFF787FE01A98C20FFF7A3
:1017400062FF00BFA6E700B52DED048B8BB0B0EEB5
:10175000408AF0EE608A37A103C9CDE9090137A1BB
:1017600003C9CDE9070118EE100A01F09DFA41EC1A
:10177000100BB0EE409AF0EE609A53EC192B31A1A9
:1017800004A801F0E3FC18EE900A01F08DFA41EC98
:10179000100BB0EE409AF0EE609A53EC192B29A191
:1017A00001A801F0D3FC2848006878B1C820FFF7F1
:1017B0004BFE09A98020FFF726FF07A9C020FFF7ED
:1017C00022FF21480068401E1F490860C820FFF71B
:1017D0003BFE04A98520FFF716FF01A9C620FFF7ED
:1017E00012FF0BB0BDEC048B00BD0000000C0240EA
:1017F000546D6570657261747572653A256620690D
:1018000073206C657373207468656E207A65726FDF
:101810002E0A00000000C8423000002054656D70A0
:10182000657261747572653A000000002564256474
:101830002E256400526F6C6C3A000000506974638E
:10184000683A0000256600003400002000B585B02D
:101850000121102000F038FE0121880300F078FEFD
:1018600003A800F033FC00208DF810000220039044
:1018700000208DF8130003A91C4800F0DFFB0121B4
:10188000042001F067F90220019000208DF8080083
:1018900008208DF8090001208DF80A0001A800F049
:1018A000DFFA07208DF8000001208DF801008DF887
:1018B00002008DF80300684600F01FF805B000BD77
:1018C0001CB500208DF804008DF805008DF8060089
:1018D00001A8FFF761FC0020009020200090012269
:1018E00022216846FFF754FB1CBD00000010024097
:1018F00033490143334A1160704770B5002100231A
:101900000F22C47824B32F4C246804F4E064C4F597
:10191000E064C4F30721C1F10404E3B20A4144784E
:101920009C40E1B28478144021430C07210E264CE0
:1019300005786155047804F01F050124AC40057852
:101940006D114FF0E02606EB8505C5F8004109E072
:10195000047804F01F040125A5401C4C067876117C
:1019600044F8265070BD1A4A0A400243154B1B1F0B
:101970001A60704739B1134A121D12680243114BA5
:101980001B1D1A6006E00F4A121D126882430D4BA0
:101990001B1D1A607047042808D14FF0E021096927
:1019A00041F004014FF0E022116107E04FF0E02127
:1019B000096921F004014FF0E02211617047000035
:1019C0000000FA050CED00E000E400E080E100E03A
:1019D00080FFFF1F10B50121080200F021FE002149
:1019E0004FF4807000F01CFE10BD30B502460020A0
:1019F00000235068F84C20400D790C6844EA052417
:101A0000204350609068F54C2040D1E903542C43AA
:101A10008D682C434D7944EA450420439060D06A98
:101A200020F470000C7D641EE4B2234340EA0350AE
:101A3000D06230BD00210160017141718160C160DF
:101A400001610121017570470021E54A1168E54AED
:101A500001EA0201D0E9002342EA0302836842EA74
:101A60000302C36842EA030242EA0101DE4AC2F805
:101A7000041370470021016041608160C1607047BC
:101A800021B1826842F00102826003E0826822F0A4
:101A90000102826070470A4600214168D34B194019
:101AA0001143416070474162826270470A460021DB
:101AB000416821F01F0111434160704738B1C849A6
:101AC000096841F40001C84AC2F8041306E0C44999
:101AD000096821F40001C44AC2F80413704738B100
:101AE000BF49096841F48001BF4AC2F8041306E007
:101AF000BB49096821F48001BB4AC2F8041370474E
:101B0000F0B504460D4600200021092D11DDE068E6
:101B1000A5F10A0606EB4607072606FA07F18843F1
:101B2000A5F10A0606EB460603FA06F10843E06053
:101B30000CE0206905EB4507072606FA07F1884304
:101B400005EB450603FA06F108432061072A0FDA80
:101B5000606B561E06EB86071F2606FA07F18843C0
:101B6000561E06EB860605FA06F10843606322E07E
:101B70000D2A0FDA206BD61F06EB86071F2606FA02
:101B800007F18843D61F06EB860605FA06F10843DF
:101B9000206310E0E06AA2F10D0606EB86071F261F
:101BA00006FA07F18843A2F10D0606EB860605FA50
:101BB00006F10843E062F0BD816841F08041816038
:101BC0007047014600208A6812F4800F01D001207E
:101BD00000E00020704721B1826842F48062826098
:101BE00003E0826822F480628260704721B18268DB
:101BF00042F00202826003E0826822F00202826008
:101C0000704710B50A4600210023416821F4604165
:101C1000531E41EA4331416010BD21B1426842F494
:101C20000062426003E0426822F400624260704752
:101C30000146C86C80B270476D480068704721B19A
:101C4000826842F48072826003E0826822F48072CB
:101C50008260704721B1826842F40072826003E0C2
:101C6000826822F400728260704738B15C4909686A
:101C700041F400515C4AC2F8041306E0584909686F
:101C800021F40051584AC2F804137047F0B50446D5
:101C90001546002000220026092911DDE068A1F187
:101CA0000A0707EB470C072707FA0CF29043A1F14C
:101CB0000A0707EB470703FA07F21043E0600CE05E
:101CC000206901EB410C072707FA0CF2904301EB66
:101CD000410703FA07F210432061A06BC0F30156DD
:101CE000EF1C06F1010CA7EB0C0707EB870C1F2775
:101CF00007FA0CF29043EF1C06F1010CA7EB0C075E
:101D000007EB870701FA07F21043A063F0BD10B597
:101D10000A4600210023816B21F44011531E41EA41
:101D20000351816310BD08B5002300930090009B10
:101D30000B440093009B1A6008BD0A46002181688D
:101D400021F470211143816070470A4600218168A7
:101D500021F44011114381607047816841F4800192
:101D600081607047014600208A6812F4800F01D01C
:101D7000012000E00020704721B1426842F48062F7
:101D8000426003E0426822F480624260704721B101
:101D9000426842F48052426003E0426822F480527A
:101DA0004260704708B5024600200090009201F1A1
:101DB0002800009B184400900098006880B208BD7D
:101DC00010B50B460021D9B2012404FA01F18AB101
:101DD00044680C43446010E0FFFEFFFCFDF7FFC0C9
:101DE00004230140E030FCFF00200140FFFD3FFFE5
:101DF0000823014044688C43446010BD0246002023
:101E000013680B4201D0012000E000207047CA4354
:101E10000260704770B502460020002300240B12B8
:101E2000556801268E4005EA060415681D4202D059
:101E30000CB1012000E0002070BD00220A12D34343
:101E400003607047002044490860091D0860091DAF
:101E50000860091D086041483F4914310860704717
:101E600000213D498279002A3AD00A461268036867
:101E70009A430B461A600A1D126803689A430B1DA9
:101E80001A60027911440A6803681A430A60324AE8
:101E90000832126803689A432F4B08331A601A1DE0
:101EA000126803689A432C4B0C331A604279102A4B
:101EB0000ED11A1F126803681A43274B08331A60A1
:101EC0001A1D126803681A43234B0C331A600DE085
:101ED0002149427911440A6803681A430A6005E0FF
:101EE000027911440A6803689A430A607047002126
:101EF000016001710C214171002181717047164907
:101F0000103109680143144A1032116070470146CC
:101F10000020114A143212680A4201D0012000E068
:101F2000002070470C4914310860704701460020BA
:101F30000022094B1B6803EA0102074B14331B689C
:101F40000B4202D00AB1012000E000207047024994
:101F50001431086070470000003C0140FFFF7F0023
:101F600010B504468C48844208D10121084600F08F
:101F700000FB0021012000F0FCFA5EE0874884426B
:101F800008D10121022000F0F4FA0021022000F023
:101F9000F0FA52E08248844208D10121042000F086
:101FA000E8FA0021042000F0E4FA46E07D4884428B
:101FB00008D10121082000F0DCFA0021082000F0FF
:101FC000D8FA3AE07848844208D10121102000F084
:101FD000D0FA0021102000F0CCFA2EE073488442A1
:101FE00008D10121202000F0C4FA0021202000F0B7
:101FF000C0FA22E06E48844208D10121402000F05E
:10200000B8FA0021402000F0B4FA16E06948844292
:1020100008D10121802000F0ACFA0021802000F0DE
:10202000A8FA0AE06448844207D10121801500F033
:10203000A0FA0021A01500F09CFA10BDF0B50A46E8
:1020400000210023002400BF3DE0012505FA01F333
:10205000156805EA03049C4234D105684F00032645
:10206000BE40B543056015794E00B540066835435E
:1020700005601579012D02D01579022D16D18568DC
:102080004F000326BE40B543856055794E00B540EC
:10209000866835438560456801268E40B5434560B6
:1020A000456896798E40B6B235434560C5684F00A5
:1020B0000326BE40B543C560D5794E00B540C6681D
:1020C0003543C560491C1029BFD3F0BD4FF6FF71E1
:1020D00001600021017141718171C171704708B5C2
:1020E0004FF480320092009A0A430092009AC26133
:1020F000C161009AC261C2690092C269009208BDC2
:102100000246002013690B4201D0012000E00020AC
:1021100070470146086980B2704702460020536943
:102120000B4201D0012000E00020704701464869C1
:1021300080B2704701837047418370470AB10183C1
:1021400000E0418370474161704742694A40426103
:102150007047F0B5002300244D07ED0E02FA05F399
:10216000CE1000F1200555F826504E07F70E0F2629
:10217000BE40B543CF1000F1200646F82750CE10E0
:1021800000F1200555F8265045EA0304CE1000F171
:10219000200545F82640F0BD000002400004024042
:1021A00000080240000C02400010024000140240EF
:1021B00000180240001C024000200240FA4800685B
:1021C00040F00100F84908600020F7490831086034
:1021D000F5480068F5490840F3490860F448091DCE
:1021E0000860081F006820F48020091F0860002094
:1021F000ED490C31086070470021EB4A921C1170C8
:1022000011460870704710B50146002200230020D7
:102210004A11012A02D1E44C236808E0022A03D1C2
:10222000E14C7034236802E0DF4C7434236801F021
:102230001F02012494401C4201D0012000E0002034
:1022400010BD38B5002000900024002500BF3120CB
:10225000FFF7D9FF05460098401C00900098B0F5A4
:10226000A06F01D0002DF2D03120FFF7CCFF08B1D4
:10227000012400E00024204638BD01460020CA4A5F
:10228000106820F0F80040EAC10010607047C949AA
:10229000086070470021C44A703211701170012823
:1022A00002D004280AD104E00121BF4A7032117023
:1022B00005E00521BC4A7032117000E000BF00BF8C
:1022C0007047BD490860704770B5049C41EA8215AB
:1022D0000126C6EB530645EA0645054345EA046573
:1022E000B14E361D356070BDB24908667047820137
:1022F00042EA0172AC4B84331A607047AD4988667C
:102300007047AC49C864704702460020A64B0833AA
:10231000186820F0EC6042EA01031843A24B08332E
:1023200018607047024600209F4B0833186820F061
:10233000784042EA010318439B4B0833186070470A
:1023400001460020984A0832106820F00300084334
:102350001060704794480830006800F00C00704727
:1023600001460020904A0832106820F0F00008432F
:1023700010607047014600208B4A0832106820F434
:10238000E05008431060704701460020864A08323A
:10239000106820F4604040EAC10010607047F0B55A
:1023A0000021002200240225002602237E4F083748
:1023B0003F6807F00C0121B1042905D0082937D165
:1023C00005E07E4F076036E07D4F076033E0764FD3
:1023D0003F1D3F68C7F38056734F3F1D3F6807F0AE
:1023E0003F036EB1764FB7FBF3F7DFF8BCC10CF1DA
:1023F000040CDCF800C0CCF3881C07FB0CF40CE0E8
:102400006E4FB7FBF3F7DFF8A0C10CF1040CDCF85A
:1024100000C0CCF3881C07FB0CF4634F3F1D3F68E2
:10242000C7F301477F1C7D00B4FBF5F7076002E0AE
:10243000624F076000BF00BF5B4F08373F6807F07F
:10244000F00109095F4F7A5C0768D7404760564F33
:1024500008373F6807F4E051890A5A4F7A5C4768A9
:10246000D7408760504F08373F6807F46041490BF9
:10247000544F7A5C4768D740C760F0BD002100F434
:102480004072B2F5407F0AD1474A0832116821F400
:10249000F8114D4A02401143434A08321160424A42
:1024A00070321268C0F30B031A433F4B70331A604B
:1024B000704741494439086070473F4940390860D6
:1024C000704742490860704739B1374A3032126864
:1024D0000243354B30331A6006E0334A303212681B
:1024E0008243314B30331A60704739B12E4A34324F
:1024F000126802432C4B34331A6006E02A4A343205
:1025000012688243284B34331A60704739B1264A27
:10251000383212680243244B38331A6006E0224AEC
:10252000383212688243204B38331A60704739B111
:102530001D4A4032126802431B4B40331A6006E0CA
:10254000194A403212688243174B40331A60704771
:1025500039B1154A443212680243134B44331A60AE
:1025600006E0114A4432126882430F4B44331A602A
:10257000704739B10C4A1032126802430A4B1033CB
:102580001A6006E0084A103212688243064B103384
:102590001A607047E1B1044A143212680243024BD8
:1025A00014331A6019E0000000380240FFFFF6FE05
:1025B0001030002400004742800E47420024F400FF
:1025C00000127A0038000020FFFCFF0F5C01474238
:1025D0005B4A126882435A4B1A60704739B1584AB5
:1025E000121D12680243564B1B1D1A6006E0544A26
:1025F000121D12688243524B1B1D1A60704739B17D
:102600004F4A0C32126802434D4B0C331A6006E0FD
:102610004B4A0C3212688243494B0C331A607047A4
:1026200039B1474A103212680243454B10331A60E1
:1026300006E0434A103212688243414B10331A605D
:10264000704739B13E4A3C32126802433C4B3C333E
:102650001A6006E03A4A3C3212688243384B3C33F7
:102660001A60704739B1364A403212680243344B1F
:1026700040331A6006E0324A403212688243304BDF
:1026800040331A60704739B12D4A44321268024310
:102690002B4B44331A6006E0294A443212688243C5
:1026A000274B44331A60704739B1254A4C321268BF
:1026B0000243234B4C331A6006E0214A4C32126825
:1026C00082431F4B4C331A60704739B11C4A503259
:1026D000126802431A4B50331A6006E0184A50320F
:1026E00012688243164B50331A60704739B1144A4E
:1026F000D21F12780243124BDB1F1A7006E0104AF9
:10270000D21F127882430E4BDB1F1A7070470C48A1
:102710006030006840F0807009496031086070479F
:1027200001460020064A083A12680A4201D00120F8
:1027300000E0002070470249891F087070470000C0
:102740001438024010B50446F648844208D10121ED
:102750008014FFF765FF0021A014FFF761FF16E06A
:10276000F148844208D101210014FFF748FF0021FD
:102770002014FFF744FF0AE0EC48844207D101210E
:10278000C013FFF73CFF0021E013FFF738FF10BD37
:1027900010B50022028802F441520B884C88234372
:1027A0008C882343CC8823430C8923434C892343BF
:1027B0008C892343CC8923431A430280838B4FF2B5
:1027C000FF74234083830B8A038210BD2DE9F04FF1
:1027D000002502230024012700220026944690466B
:1027E0009146B0F81CA04FF2400B0AEA0B0AA0F881
:1027F0001CA04FF0020AA0F820A0858BD1F808A0F9
:10280000BAF1020F01D100BF6AE0B1F804A0BAF139
:10281000000F01D1012700E00227DFF814A3DAF846
:1028200000A01AF4000F09D0DFF804A3DAF800A022
:102830002AF4000ADFF8F8B2CBF800A0DFF8F0A223
:102840000AF17C0ADAF800A0CAF38818DFF8E0A2DF
:102850000AF17C0ADAF800A0CAF30279DFF8D0A204
:10286000AAF1040ADAF800A00AF03F0CDFF8C4A2CB
:10287000BAFBFCFA0AFB08FABAFBF9F6B1F806A0B3
:10288000BAF5007F0ED14FEA162A0AEB8A0A4FEA00
:102890004A0AD1F808B0BAFBFBFA0AF1050A1FFA96
:1028A0008AF20FE04FEA471AB6FBFAFA0AEB8A0AF5
:1028B0004FEA4A0AD1F808B0BAFBFBFA0AF1050A56
:1028C0001FFA8AF24FF00A0AB2FBFAF202F0010490
:1028D000A2EB040ACAF34F034FF6FF7A0AEA042474
:1028E000022B01DBFF2B01DD02230024B1F806A03F
:1028F0004AEA040A4AEA030AA0F820A0B1F804A0B0
:10290000B1F80CB04AEA0B0AB1F802B04AEA0B0A75
:10291000B1F800B04AEA0B0A4AF4006A4AEA05052F
:102920008583BDE8F08F0021018041808180C180D6
:10293000018141818181C18107210182704700218C
:10294000018041808180C1800221816000218181DC
:10295000704721B1028842F04002028004E0028800
:102960004FF6BF731A400280704721B1828B42F448
:102970008062828304E0828B4FF6FF331A408283A9
:10298000704702884FF2FF731A40028002880A43A0
:1029900002807047B1F5804F04D1028842F4804232
:1029A000028004E002884BF6FF731A4002807047F1
:1029B000A1F57E42FF3A04D0028842F48072028080
:1029C00004E002884FF6FF631A400280704721B18D
:1029D000828842F00402828004E082884FF6FB7312
:1029E0001A408280704721B1828842F010028280B2
:1029F00004E082884FF6EF731A408280704730B54A
:102A000000220023848B4FF240052C408483022453
:102A10000484828B0C88B4F5007F01D00C8814B933
:102A20004FF4807308E00C88B4F5407F03D00C8825
:102A3000B4F5807F00D100238C888D892C434D888C
:102A40002C431C4344F400642243828330BD01467E
:102A5000888970478181704721B1028842F4005211
:102A6000028004E002884DF6FF731A40028070472E
:102A7000018841F4805101807047024600200129FD
:102A800001D0108B00E0908A70470146088A704799
:102A90001AB183880B43838002E083888B43838051
:102AA000704730B5002400230C110125A540ABB2BE
:102AB0001AB185881D43858002E085889D43858005
:102AC00030BD0246002013890B4201D0012000E0F6
:102AD00000207047CA4302817047F0B502460020CB
:102AE00000240023002501F00F070126BE40B4B2E8
:102AF0000B1101269E40B3B2968806EA030516899B
:102B0000264202D00DB1012000E00020F0BD10B53A
:102B1000002201F00F040123A3409AB2D3430381A2
:102B200010BD00000030014000380040003C004073
:102B30000838024000127A0010B501218803FFF71F
:102B40006FFD00214FF48040FFF76AFD10BD1A4968
:102B50000860704730B500228B071C0F0F2303FA63
:102B600004F2154B08338C1053F824309343124C65
:102B700008348D1044F8253023468C1053F8243047
:102B80008C07240F00FA04F423430B4C08348D10F7
:102B900044F8253030BD094908607047084908608D
:102BA0007047002004492031096811F4807F01D06A
:102BB000012000E00020704700380140DC0027427F
:102BC000000427422DE9FE4F81EA030404F000448B
:102BD00021F0004100944FF0000B23F0004350EA35
:102BE000010402D052EA030404D10020014603B0DC
:102BF000BDE8F08FC3F30A54C1F30A552C44A4F284
:102C0000F3340194A0FB0254C1F3130141F4801189
:102C1000C3F3130343F4801301FB024400FB034E90
:102C2000840A970A44EA815447EA8357A4FB076859
:102C300002958D0A05FB07854FEA932C04FB0C5483
:102C40002705029D4FEA065847EA1637B5EB0805F7
:102C50006EEB070C870E920E47EA811742EA831249
:102C6000A7FB0201B6EB0B0164EB00042B0D43EA5A
:102C70000C335E1844EB1C50DA465146E7FB020168
:102C8000C5F313044FEA0B3343EA14534FEA0432FB
:102C9000019C43EA0603A4F10C040294009CCDE9D4
:102CA00000B400F068F8A2E700F0004230F0004005
:102CB0000AD0C10D01F56071C0F3160042EA01515E
:102CC000C20840071143704700200146704730B5E5
:102CD0000B46014600202022012409E021FA02F5DA
:102CE0009D4205D303FA02F5491B04FA02F5284474
:102CF000151EA2F10102F1DC30BD2DE9F05F0546A1
:102D0000002092469B4688460646814640241BE0AA
:102D1000284641464746224600F0E3F953465A46C4
:102D2000C01A914110D311461846224600F0CAF944
:102D30002D1A67EB01084F4622460120002100F0C2
:102D4000C1F917EB00094E41201EA4F10104DFDC9C
:102D5000484631462A464346BDE8F09F10B5002B51
:102D600008DA401C41F1000192185B411A4301D17D
:102D700020F0010010BD2DE9F04D92469B4611B1A7
:102D8000B1FA81F202E0B0FA80F22032904600F00F
:102D900099F904460F4640EA0A0041EA0B015346FE
:102DA0005A46084303D120463946BDE8F08D114606
:102DB00053EA010015D0C8F14002504600F091F9E5
:102DC00005460E4650465946424600F07BF90843F8
:102DD00001D0012000E00020054346EAE0762C43C4
:102DE00037430A984FEA4453A0EB08004FEAD42433
:102DF0000A304FF0000244EA47544FEAD72502D583
:102E000000200146D1E7010510196941DDE90845B7
:102E100000196941BDE8F04DA0E72DE9FE4F80465D
:102E200081EA0300C00F0C46009021F0004123F01E
:102E30000045B8EB0200A94105D240462146904624
:102E40001C460B46024623F00040104304D1404686
:102E5000214603B0BDE8F08F270DC7F30A00C3F386
:102E60000A510290401A0190402866DAC3F3130019
:102E700040F4801B0098924620B10023D2EB030A55
:102E800063EB0B0B01985946C0F14002504600F02D
:102E900019F906460D4650465946019A00F031F997
:102EA00010EB08006141002487EA115284EAE773BD
:102EB0001A433BD0009A3AB3019A012A4FEA0752CB
:102EC00010DC001B61EB02014FF0004202EA0752E6
:102ED000CDE90042001C41F5801132462B46FFF738
:102EE0004AFFB6E7001B61EB0201001C41F58013AD
:102EF00000185B412018A2F5001747EB030140EAD8
:102F0000D570B6196D4111E06D084FEA360645EAF5
:102F1000C0754FEA0752001B61EB0201001C41F52E
:102F2000801149084FEA30000019514132462B46C2
:102F300003B0BDE8F04FFFF711BF00980122400039
:102F40000023D0EB020263EBE073009821464FEAC6
:102F5000E074B8EB000061EB0401E9E783F00043A3
:102F60005BE781F0004158E72DE9F04D81EA030469
:102F700004F0004B21F0004514464FF0000A23F006
:102F8000004150EA050220D054EA01021DD0C5F3E9
:102F90000A570246C5F31303C1F31300C1F30A56DF
:102FA00040F4801543F48013A7EB0608101BD646A7
:102FB00008F2FD3873EB050002D308F1010801E0C7
:102FC00092185B41B8F1000F03DA00200146BDE81A
:102FD000F08D00204FF48011064684460EE0171B4A
:102FE00073EB050705D3121B63EB050306434CEA9D
:102FF000010C49084FEA300092185B4150EA010782
:10300000EDD152EA030012D082EA040083EA0501FE
:10301000084303D100224FF0004308E0101BAB41EE
:1030200002D20122002302E06FF0010253101AEBDA
:1030300006004CEB085110EB0A0041EB0B01BDE818
:10304000F04DFFF78BBEC1F30A52C1F3130140F2FA
:10305000FF3341F480119A4202DA002001467047A2
:1030600040F233439A42A2F2334202DC524200F071
:1030700038B800F027B8000030B5002904DB4FF065
:103080000044404264EB0101002B04DB4FF000449C
:10309000524264EB0303994208BF904230BD0000E6
:1030A000064C074D06E0E06840F0010394E8070095
:1030B00098471034AC42F6D3FDF76AF8744A00081A
:1030C000A44A0008202A04DB203A00FA02F100207A
:1030D00070479140C2F1200320FA03F31943904056
:1030E0007047202A04DB203A21FA02F000217047C1
:1030F00021FA02F3D040C2F1200291400843194660
:103100007047202A06DBCB17203A41FA02F043EA47
:10311000E07306E041FA02F3D040C2F12002914090
:103120000843194670470000000000000FB4054B2B
:1031300010B503A9044A029800F0FEF810BC5DF82F
:1031400014FB0000DF130008280000200FB4084B18
:1031500010B504A902AA039800F0EEF8044602A9EB
:10316000002000F08CFC204610BC5DF814FB000031
:103170007F3A000802E008C8121F08C1002AFAD1ED
:1031800070477047002001E001C1121F002AFBD1E7
:10319000704700002DE9FF5FDDE90220010DDDF839
:1031A00038B0024310D10F9801244CA2012808D056
:1031B000002100980F9BC0E90021C0E90243BDE84F
:1031C000FF9F6FEA0B01F4E7A1F2FF3144F61050C4
:1031D00041430D140F9801280ED0A5EB0B00401CA5
:1031E0004FF000043E4EDFF8FC90B0F1000AA0461C
:1031F00005DACAF1000717E0CBF10000F0E7074657
:1032000012E0F80707D02246334640464946FFF70A
:10321000D9FC804689462246334610461946FFF7B8
:10322000D1FC04460E467F10002FEAD1DDE90201F1
:10323000BAF1000F42464B4602DAFFF7C3FC01E049
:10324000FFF792FE04460E460022274BFFF714FFBD
:1032500003D84FF0FF30014607E00022234B204601
:103260003146FFF7DAFDFFF7EEFE102409E0002CEF
:103270000ADB0A220023FFF740FD019B30321A557A
:10328000641E50EA0102F2D1641C019AC4F11103D8
:1032900014440F9A012A09D00122084301D15B4549
:1032A0000FDD4FF0000205F101050DE0084303D1E9
:1032B000A3EB0B056D1E09E000204FF0110B0F90E2
:1032C00088E701DA00226D1E002A83D000980F994A
:1032D000C0E90231C0E9004571E70000300000009C
:1032E000000024400000F03F0000F0430000E03FF9
:1032F00010B5002A06DA22F00042D21D22F00703A0
:10330000102203E0D21C22F003030C2213B19C18FC
:103310008C4201D9012010BD024401448360C0E900
:103320000021C91AD018884202D810600246F9E775
:103330000020106010BD00002DE9FF4F95B09B46A6
:1033400089460646002512E2252878D10024761CFD
:10335000F94A2746012105943378203B01FA03F00E
:10336000104202D00443761CF6E730782A2811D0A8
:103370006FF02F033078A0F13002092A16D8059A91
:1033800044F0020402EB820203EB42021044761C7A
:103390000590EFE759F8042B0592002A03DA504212
:1033A00044F40054059044F00204761C30782E2832
:1033B00016D116F8010F44F004042A280DD06FF03E
:1033C0002F023078A0F13003092B09D807EB8703CF
:1033D00002EB4303C718761CF3E759F8047B761C0D
:1033E00030786C280FD006DC4C2817D068280DD018
:1033F0006A2814D104E0742810D07A280FD10DE087
:1034000044F400140AE044F4801401E044F440144D
:103410007278824202D1761C04F58014761C3078D2
:1034200066280BD013DC582877D009DC002875D02B
:103430004528F6D04628F4D047281AD19FE118E055
:10344000632835D0642879D0652812D197E1702897
:1034500073D008DC6728F1D069286FD06E280DD0B2
:103460006F2806D1B5E073282CD0752875D0782840
:1034700074D05A46179990476D1C76E1C4F30250F8
:10348000022809D003280DD0D9F8001004280DD047
:103490000D6009F1040968E1D9F80010EA17C1E9E3
:1034A0000052F6E7D9F800100D80F2E70D70F0E752
:1034B00019F8041B8DF8001000208DF80100EA4671
:1034C000012003E059F804AB4FF0FF3061074FF0E3
:1034D000000102D40DE008F101018846B9420FDA7B
:1034E0008045F8DB1AF808100029F4D108E008F14B
:1034F000010188468142FADB1AF808100029F6D14A
:1035000005985B46A0EB080721463846179A00F05D
:103510009EFA284400EB080507E04DE02BE10DE0A2
:103520001AF8010B5A4617999047B8F10108F7D2DB
:103530005B4621463846179A14E142E00A2200927F
:10354000C4F302524FF0000A022A08D059F804CB03
:10355000032A4FEAEC710AD00DE029E02AE009F1D4
:10356000070121F00702F2E802C1914609E00FFAD3
:103570008CFC4FEAEC71042A03D14FFA8CFC4FEA21
:10358000EC71002907DA0A460021DCF1000C61EB3E
:1035900002012D2202E0220504D52B228DF8042001
:1035A000012203E0E20701D02022F7E7904653E032
:1035B0000A2102E010220DE010214FF0000A0091D4
:1035C0000BE010224FF0000A44F004040827009298
:1035D00003E008224FF0000A0092C4F30252022ACC
:1035E00005D059F804CB0021032A08D009E009F1DD
:1035F000070121F00702F2E802C1914605E01FFA37
:103600008CFC042A01D10CF0FF0C4FF000082207BB
:1036100022D5702827D0009B83F0100353EA0A03B9
:1036200009D15CEA010206D030228DF804208DF821
:10363000050002229046009B83F0080353EA0A0328
:103640000AD15CEA010201D1620705D530228DF86A
:1036500004204FF001087F1E582809D037A003909E
:103660000EA8029013E040228DF804200122E1E729
:1036700037A0F4E753466046009AFFF73EFB8446C6
:103680000398825C0298A0F10100029002705CEA4B
:103690000100EFD1029806A9A1EB000000F1200A79
:1036A000600702D524F4803400E00127574502DD8D
:1036B000A7EB0A0000E0002000EB0A01009005984B
:1036C0004144A0EB01000590E00306D45B4621468F
:1036D000179A059800F0BBF90544002706E001A8F9
:1036E0005A46C05D179990476D1C7F1C4745F6DB15
:1036F000E0030CD55B462146179A059800F0A7F920
:10370000054404E030205A46179990476D1C0099F3
:10371000481E00900029F5DC08E0029802995A46FC
:103720000078491C0291179990476D1CBAF100016D
:10373000AAF1010AF1DC6BE10928010030313233D2
:1037400034353637383961626364656600000000DD
:1037500030313233343536373839414243444546C7
:103760000000000000F060F9054406F10106307821
:1037700000287FF4E9AD19B02846BDE8F08F620754
:1037800000D4062709F1070222F0070CFCE8022307
:10379000E14603F000485FEA080C02D00FF27C2CEF
:1037A0000DE05FEA045C02D50FF2742C07E05FEADB
:1037B000C47C02D00FF26C2C01E0AFF2700C4FF021
:1037C000FF3823F00043CDF850C065280CD006DC4C
:1037D000452809D046281DD047283ED13EE066281E
:1037E00018D0672839D139E00021112F01DB1120D1
:1037F00000E0781CCDE9000106A90EA8FFF7CAFC7D
:10380000DDE90F010E9A03910021009207F1010AF0
:1038100004914EE04FF000400097CDE9011006A959
:103820000EA8FFF7B7FCDDE90F0203920E9B11997A
:103830000022DDF80CA00093049219B907F10101F0
:1038400000EB010AB7EB0A0004D4C0F1FF3007F126
:10385000010A0490AAEB0700019046E0012F00DA6C
:1038600001270021112F01DD112000E03846CDE9AC
:10387000000106A90EA8FFF78DFCDDE90F010E9AE5
:103880000391002104910092BA4621070CD40399B8
:10389000514500DA8A46BAF1010F05DD009AAAF116
:1038A0000101515C302908D0B84202DA10F1040F4E
:1038B00006DA0121CDE9011017E0AAF10101E9E7DB
:1038C000002805DC049901440491AAEB000102E000
:1038D000411C514500DD8A460499A0EB010000F12E
:1038E000010001904FF000400290200704D401989D
:1038F000504501DBCDF8048000208DF84F00029880
:103900000DF14F07B0F1004F25D02B200E900298FB
:103910004FF0020800280CDA404202902D200E9051
:1039200007E00A210298FFF7D2F93031029007F838
:10393000011DB8F10001A8F10108F2DC029800288D
:10394000EFD1791E0E980870307800F0200040F01A
:10395000450007F8020D12A8A0EB070000F10708C8
:103960001498007800B1012000EB0A01019801EBE6
:10397000E07105984144A0EB0100A0F10100059021
:10398000E00306D45B462146179A059800F05FF8DD
:1039900005441498007820B15A461799904705F1CC
:1039A0000105E00323D55B462146179A059800F0F0
:1039B0004EF805441BE00498002807DBDDE903010D
:1039C000884203DD0098405C179901E01799302088
:1039D0005A46904704986D1C401C04900198401E64
:1039E000019004D12E205A46179990476D1CBAF1C8
:1039F0000001AAF1010ADEDC05E017F8010B5A46C6
:103A0000179990476D1CB8F10001A8F10108F4DC8A
:103A10005B462146179A0598A4E600002D00000099
:103A20002B000000200000002DE9F0410446002595
:103A30001E461746880405D406E039462020B047C4
:103A400005F10105641EF8D52846BDE8F0812DE991
:103A5000F041044600251E469046C80301D5302794
:103A600000E02027880405D506E041463846B047E7
:103A700005F10105641EF8D52846BDE8F0810A6805
:103A8000531C0B601070704708480068C0010BD5CC
:103A900007480068C00707D005488038006800283C
:103AA00002DA04490120087070470000FCED00E0D4
:103AB000800E00E05A0000204FF06042D36F002BD0
:103AC000FCD0C36AD367D36F002BFCD0C07840EA28
:103AD0000120A2F87C0070474FF06041CA6F002AB5
:103AE000FCD081F87C00704770B504000D4603D00F
:103AF00012B92078012801D0802070BD204600F046
:103B00005FFA28B12946204600F02CF8002070BD4D
:103B1000812070BD10B504468089002821D06089BD
:103B200004EB8000006908606078022805D100215C
:103B3000204600F099FB00F087FB04F10C0000BF69
:103B4000D0E85F1F491EC0E8521F002AF8D16089E3
:103B5000401C80B26081E189884201D100206081EF
:103B6000042010BD10B500F07FFBBDE8104000F050
:103B70006BBB0000EFF3058109B182207047DFF8CD
:103B800008C000DF7047000075470008EFF30582AA
:103B90000AB182207047EFF31482144B12F0030233
:103BA00006D0012A1BD0022A11D0032A19D113E012
:103BB000EFF3088282F309881A78D2070AD002222A
:103BC00082F31488BFF34F8FBFF36F8F09E01A7829
:103BD000D20706D10322F3E71A78D20701D0FF20DB
:103BE0007047DFF80CC000DF70470000FC49000898
:103BF000894700082DE90E40EFF30582B2B10200BB
:103C00004FF0800000D021B10090DDE9011203B037
:103C100000BD11780129F7D101A91046FFF77AFFFD
:103C2000042801D00020EFE71020EDE7DFF804C002
:103C300000DFECE781480008EFF305820AB10020BD
:103C40007047DFF808C000DF70470000BD4800087B
:103C5000DFF80CC000DFDFF80CC000DFFEE700007B
:103C60002D49000849490008DFF804C000DF70470B
:103C700081490008094C4FF0FF3529462068FFF7BD
:103C8000B9FF02460846102AF7D1FFF7EDFF0028DA
:103C9000F3D0024608469047EFE7000020000020DE
:103CA0004FEA000151E8000F28B1036841E80032F3
:103CB000002AF7D17047BFF32F8F704710B568B156
:103CC00061B10B3121F00302016844680B1A1B1B20
:103CD000934205D2084609680029F5D1002010BD9D
:103CE0003CB121180368C1E90032016001F108000C
:103CF00010BD4260083010BD70B50C46002812D0CF
:103D00004FF6FF71084D884204D22A6801461046DA
:103D100000F0D6FA28684470044800F0D7F8BDE8EF
:103D2000704000F08FBB70BD4C000020940000205C
:103D30000F4810B50D4942680E480B680088934241
:103D400004D00A60CB88421E1A448A808A88824244
:103D50000AD100200860064800F0B8F80146BDE826
:103D60001040034800F0DABA10BD00005C000020EB
:103D7000940000205800002070B5194DE868002814
:103D80002CD0A88A401EA882002621E0A06838B165
:103D900061684160606810B1A16881606660A6607A
:103DA0000F482146183800F0B9FAA08AA882607836
:103DB000042804D10B49E08A09880844A082012024
:103DC0006070E068E860E06808B10561E66026615F
:103DD000A88A002802D1EC68002CD7D170BD000061
:103DE000AC0000205800002070B504000FD00D4D2D
:103DF000A17801262868827891420CD900F0AAFAAD
:103E0000286846702046BDE8704000F01BBB06489D
:103E100000F05CF8F7E766702146BDE870400248A4
:103E200000F07CBA4C000020940000200321FFF732
:103E300063BF000010B50446008B084320836278FE
:103E4000618B062A18D0052A19D1084217D001EA39
:103E50000002628388432083204600F09BFA012001
:103E60006070628B0821204600F08CFA2146BDE884
:103E70001040034800F052BA31EA0002EAD010BD07
:103E800094000020814202D342688A4201D8012076
:103E9000704750E8002F0A6040E80012002AF8D16D
:103EA0000020704768B161B10839002202E0024683
:103EB000006830B18842FAD12AB100681060002051
:103EC00070470120704700214160F8E701464068D3
:103ED00042684A600B780022022B05D0012B03D0E8
:103EE000032B01D04260704743680BB19960426078
:103EF00082607047810700D00020704770B504468B
:103F000000201546207001226270A1706060A060E0
:103F1000E0602061A082E0822083608384F820003A
:103F2000608C18B90448FFF7BBFEA0622946204602
:103F3000BDE8704000F01CB86001001008B108290D
:103F400001D2012070470144091F002201600A606C
:103F50004260104670470000034800210160034999
:103F60000968C180704700005C000020F449000827
:103F700010B5428C920803D10F4A1268C2F38D0229
:103F8000836A03EB8202530700D5121F403A4FF0B9
:103F90008073C2E90E1300234FEA030442F8234062
:103FA0005B1C0E2BFAD3C36913624262C162806A42
:103FB0000249016010BD0000F0490008A52E5AE238
:103FC000C1898089081A704701220270002242705C
:103FD0008270426002814281103982818908C181E8
:103FE000704700002DE9F0410446407800270E4656
:103FF0004FF00108012855D004F10C0502282BD000
:10400000032818D0A089E189884262D2208904EB74
:1040100080000661D5E85F0F401CC5E8510F0029FC
:10402000F8D12089401C80B22081E189884200D1EA
:104030002781BDE8F0810846FFF732FE0600F8D080
:104040002046FFF743FF0546606800B967703146B8
:10405000284600F091F931E02046FFF737FF064689
:10406000606800B967700021304600F085F9218949
:10407000F06904EB81010861D5E85F0F401CC5E8D9
:10408000510F0029F8D12089401C80B22081E1899C
:10409000884200D1278186F80180304600F07AF905
:1040A000314611E02046FFF711FF0546606800B970
:1040B000677032461021284600F064F985F80180C7
:1040C000284600F067F92946BDE8F041034800F0B2
:1040D00025B9BDE8F0410320FCF738BA9400002070
:1040E00070B50446808915460026C8B3608904EB84
:1040F0008000006908606089401C80B26081E189AD
:10410000884200D16681607802280AD014F10C043C
:10411000D4E85F0F401EC4E8510F0029F8D10020F9
:1041200070BD2046FFF7D2FE0546606800B9667094
:104130000021284600F020F92189E86904EB81017B
:1041400008612089401C80B22081E189884200D129
:104150002681284600F01EF92846FFF745FEDEE7D7
:10416000FFE73DB10A48626801682AB1204600F0C5
:10417000D5F807E0012070BD61600068C0E9016406
:104180000120607008212846FFF7B6FDF2E7000025
:104190004C000020411C13D00B4A4FF6FE71904298
:1041A0000CD800EB4002C2EBC0120848036803EBD6
:1041B000C202521EB2FBF3F0884200D90846704793
:1041C0004FF6FF707047000000093D00004A0008EC
:1041D00070B51A4801210068417000F0BBF8184D15
:1041E0006C7816E005EBC40148680278E2B1012A58
:1041F0001FD000F0FBF8E878641C844200D1002452
:104200000F48801CD0E84F1F491EC0E8421F002AFB
:10421000F8D1A8780028E5D16C700A48FFF756FE5F
:10422000BDE8704000F00EB9896889B2FFF702FE60
:10423000E1E78968FFF7D6FEDDE700004C000020CB
:10424000901A0010940000200548017811B1012156
:104250004170704703494FF080500860704700007C
:104260005400002004ED00E0F0B4144B9C1CDD78F9
:104270004FEA030CD4E84F2FAA4202D1BFF32F8F8D
:104280000EE0521CC4E8462F002EF3D1DCE84F2F7D
:10429000541CAC4200D10024CCE8464F002EF5D18E
:1042A000DC78944205D903EBC202C2E90101F0BCFB
:1042B0007047F0BC0220FCF749B90000901A0010CA
:1042C000154A10B5D368FBB113469B8A09E000BFBD
:1042D000D2F80CC0BCF1000F16D0BCF814406246F6
:1042E00023448B42F4D3D468C460D0600261D0F818
:1042F0000CC0BCF1000F01D0CCF81000591A81821B
:10430000908A401A908210BD0024C460D060C91AFF
:1043100002619182848210BDAC00002010B5027849
:104320000023022A03D0012A01D0032A00D101234D
:1043300091F802C000E01046426812B194786445DA
:10434000F9D24A6041601BB102B19160886010BD32
:104350000020FBE703494A6842600022826048600F
:10436000704700009400002090F82010406A09B1C6
:10437000603070472030704710B50C46FFF7F4FFEF
:10438000046010BD70B50C461546FFF7EDFFC0E99F
:10439000004570BD10B5016900290ED0C268CA6021
:1043A000C36800223BB18B8A848A23448B82C36812
:1043B0001961C26000E08A82026110BD816839B172
:1043C00042684A604168002901D08068886070476F
:1043D000054906E04A68824202D140684860704759
:1043E00011460029F6D170479400002010B54168AD
:1043F00081B1FFF76BFD0446FFF7CCFF0120607031
:1044000001462046FFF7B8FF2146BDE810400348AB
:10441000FFF784BF4188491C418010BD94000020F3
:1044200006480068D0E90910814203D300680449B6
:10443000884202D00120FCF789B870474C00002068
:10444000A52E5AE20749022248604270064A1278B5
:10445000002A05D006C98A4202D0C078FFF73CBBCB
:10446000704700004C0000205A0000202DE9F04168
:1044700004460D469046FFF707FB002006463849E4
:10448000384B02E041F82060401C1A889042F9D372
:104490003548302201883548FEF72AFF3448006845
:1044A00080B240F00042334801683348FEF720FFF5
:1044B00032480822018832480068FEF719FF314F60
:1044C000FF20314AF8707E8400213846FFF716FD40
:1044D0002E480421017046602D480170C6600661B7
:1044E0008682786A2030FBF75DFE2A482B490760F8
:1044F000022078702848067046700978C1702848F4
:1045000001684FF0E0204161866107210161254883
:104510000168254A114301600068224900F07F408C
:10452000C0431439B0FA80F00968C0F10800C1F343
:104530000221814200DB481C1A49091F0B686FF0F9
:104540008072824063F317020A60FFF705FD42465E
:1045500029462046BDE8F041002300F06DB8000078
:10456000141B0010EC490008084A00080000001065
:10457000F04900080C4A000860010010304A0008A9
:104580001800002064000020490500089400002065
:10459000AC0000204C000020901A0010144A0008C3
:1045A000F849000820ED00E00000FFFF0B4810B5BF
:1045B000006801214170FFF7CDFEFFF7B9FB084904
:1045C0000888401C0880FFF7D7FB00F0E5F9054894
:1045D000FFF77CFCBDE81040FFF734BF4C00002023
:1045E0005800002094000020002805D0810702D147
:1045F0000178002900D000207047000030B50D4C34
:104600000023226808E000BFB2F808C08C4505D836
:1046100013461268A1EB0C01002AF5D189B20260A1
:10462000018112B11589691A11810BB1186030BD71
:10463000206030BD480000202DE9F041804616463C
:104640001F460D4611F0FF0F00D14D1C1648FFF715
:1046500027FB040026D0280AA6626084E9B24246FD
:104660002046E761FFF74AFC01251048104905E0A4
:1046700000EB850252F8042C22B16D1C0A88954289
:10468000F6D9002500EB850040F8044C0948E57098
:10469000007818B101212046FFF70EFA2046FFF7F7
:1046A000A3FB2846BDE8F08100000010141B001099
:1046B000EC4900085A0000202DE9F041244C234F1A
:1046C000244B22680026D17808B1814218D103EB2F
:1046D0008100567040F8046C1F48916AFFF7D2FBC6
:1046E00020688662397811B10021FFF7E5F91B488F
:1046F0002168FFF7C7FB00202660FFF775FB1FE06E
:104700001749098888421ED803EB800555F8044CE8
:10471000CCB12046FFF752FE2046FFF73BFE45F89E
:10472000046C0D48A16AFFF7ADFBA662387818B19A
:1047300000212046FFF7C0F921460848FFF7A2FBF9
:104740000020BDE8F081FF20FBE700005A000020B8
:104750004C000020141B001060010010000000102D
:10476000EC49000802480068002800D0C078704773
:104770004C00002010B5002805D0FFF70BFD80B2DB
:10478000FFF754FB402010BD70B504000D4608D063
:10479000206830B1B4F9040010F1030F01DB0328E5
:1047A00001DD862070BD244E306840B1204600F007
:1047B00085F8A0B100F0BAF800F0C6F837E01F485D
:1047C00040070CD11E4801681C48FFF7B7FB30B901
:1047D000E16831B11948FFF771FA020002D1852072
:1047E00070BD0022B4F90400E168001D40EA012117
:1047F0002068FFF73BFE7068D8B1C078114901EB23
:10480000800050F8040C3060416A0D62406A0E4925
:10481000416300210D4800F021F80D490860002196
:104820000C4800F04BF80C49086000203060002074
:1048300070BDFF2070BD00004C000020301400103F
:10484000104A0008141B0010513C0008284A0008B8
:1048500020000020184A00081C00002010B50400A9
:1048600005D0216819B1606808B102780AB100204A
:1048700010BD8900103189B2FFF7A6FB606810BD3A
:104880003EB504000D464FF0800012D0217801297A
:104890000FD12846FFF77EFC82B201A92046FFF720
:1048A0001FFC012801D0102003E00DB1402000E0E2
:1048B0000020DDE9011203B030BD000070B5040036
:1048C0000E462BD0206848B3B4F9040010F1030F52
:1048D00024DB032822DCE16829B11148FFF7EEF957
:1048E000050015D000E00025B4F90400E168001DC2
:1048F00040EA012133462A462068FFF79DFE40B179
:10490000084901EB8000084950F8040C426A5163E1
:1049100070BD1DB129460248FFF7C4FA002070BDE2
:1049200030140010141B0010513C000810B5FFF7A4
:1049300019FF002804D0034901EB800050F8040C53
:1049400010BD0000141B001070B5FFF74DFE0400F1
:1049500003D0608C18B1A56A02E0802070BD0025EC
:10496000E078FFF7A9FEFF2806D01DB10348A16A31
:10497000FFF798FA002070BD812070BD3014001040
:1049800010B5FFF7B7FA20B101690A68C16810468F
:1049900010BD0020014610BD2DE9F041114E3468D4
:1049A000002C18D02089104F401E20814FF00108A4
:1049B0000EE0254624683460002229463868FFF757
:1049C00093F86879012808D085F80480002C02D07B
:1049D00020890028EDD0BDE8F08169892846FFF7DD
:1049E0000DFEF3E748000020200000200700000033
:1049F00020030201050001003F90020001000000B9
:104A0000E8030000000000005C010000D01200007C
:104A10006006000010000000753C00080200000065
:104A2000010000002003000004000000301B001003
:104A30000000000051050008000000000100000017
:104A400020030000F1050008000000000100000044
:104A500000000000E9120008000000000100000052
:104A600000000000491300080000000001000000E1
:104A700000000000A44A00080000002064000000BC
:104A800074310008A44A000800000010501B000008
:104A900084310008084B0008640000206404000012
:104AA00084310008007A030A0000000000000000C2
:104AB00001020304060708090000000000000000CE
:104AC00000000000000000000010000000000000D6
:104AD00000000000010000000100000000000000D4
:104AE0000102030401020304060708090000000094
:104AF00000000000000000000000000000000000B6
:084B00000000000000000000AD
:040000050800018965
:00000001FF
