:020000040800F2
:10000000B0040020250500082D0500082F05000874
:100010003105000833050008350500080000000020
:1000200000000000000000000000000009020008BD
:100030003905000800000000AD0200080D030008AB
:100040003F0500083F0500083F0500083F05000880
:100050003F0500083F0500083F0500083F05000870
:100060003F0500083F0500083F0500083F05000860
:100070003F0500083F0500083F0500083F05000850
:100080003F0500083F0500083F0500083F05000840
:100090003F0500083F0500083F0500083F05000830
:1000A0003F0500083F0500083F0500083F05000820
:1000B0003F0500083F0500083F0500083F05000810
:1000C0003F0500083F0500083F0500083F05000800
:1000D0003F0500083F0500083F0500083F050008F0
:1000E0003F0500083F0500083F0500083F050008E0
:1000F0003F0500083F0500083F0500083F050008D0
:100100003F0500083F0500083F0500083F050008BF
:100110003F0500083F0500083F0500083F050008AF
:100120003F0500083F0500083F0500083F0500089F
:100130003F0500083F0500083F0500083F0500088F
:100140003F0500083F0500083F0500083F0500087F
:100150003F0500083F0500083F0500083F0500086F
:100160003F0500083F0500083F0500083F0500085F
:100170003F0500083F0500083F0500083F0500084F
:100180003F0500083F050008DFF814D000F024FE0A
:100190000021024800F0E8FEFEE70000101E000803
:1001A000B004002080F309887047684680F309880E
:1001B00004480078C00714BF0220032080F314888D
:1001C00070470000D81D0008DFF818C0EFF3058362
:1001D0001B0618BF6047EFF31483DB0708BF6047B7
:1001E00000DF70477D100008DFF818C0EFF30583CB
:1001F0001B0618BF6047EFF31483DB0708BF604797
:1002000000DF704761120008EFF30980816911F87F
:10021000021C002933D190E80F1010B5E047BDE86B
:100220001040EFF3098C8CE807001D4B93E80600A3
:10023000914208BF704781B11EF0100F06BF2CED30
:10024000108A0120002081F820002CE9F00FC1F86D
:1002500024C00CB401F0D2FA0CBC1A60D2F824C04D
:10026000BCE8F00F92F8200000281ABFBCEC108AFE
:100270006FF0120E6FF0020E8CF30988704710B504
:10028000084A1268914209D8074C54F8214090E876
:100290000F10A047EFF3098C8CE80F0010BD000091
:1002A00038000020FC0D0008FC0D000810B501F01E
:1002B0007DF9BDE81040174B93E80600914208BF56
:1002C0007047EFF3098C1EF0100F06BF2CED108A5B
:1002D0000120002081F820002CE9F00FC1F824C093
:1002E0000CB401F08BFA0CBC1A60D2F824C0BCE844
:1002F000F00F92F8200000281ABFBCEC108A6FF0B3
:10030000120E6FF0020E8CF30988704710B501F0E1
:100310003BFBCEE7380000200CB500200190009098
:100320007548006840F480307349086000BF724827
:10033000006800F4003000900198401C0190009883
:1003400018B90198B0F5A06FF1D16B48006810F4AE
:10035000003F02D00120009001E0002000900098B2
:10036000012845D164484030006840F0805062491F
:10037000403108606148006840F480405F4908608F
:100380005D48083000685C4908310860084600682C
:1003900040F4004008600846006840F4A05008603F
:1003A0005748091F0860081F006840F08070091F47
:1003B000086000BF5048006810F0007FFAD040F29B
:1003C0000560504908604C480830006820F0030080
:1003D0004949083108600846006840F0020008609A
:1003E00000BF45480830006800F00C000828F8D12C
:1003F0000CBD10B54448006840F4700042490860E4
:100400003D48006840F001003B49086000203A493F
:1004100008310860384800683C490840364908609F
:100420003B48091D0860081F006820F48020091F50
:100430000860002030490C310860FFF76DFF4FF075
:10044000006031498039086010BD70B5002000227D
:10045000022300240221284D08352D6805F00C00E8
:1004600020B1042806D0082834D107E0294D2A4EAF
:10047000356033E0294D284E35602FE01E4D2D1D8F
:100480002D68C5F380541C4D2D1D2D6805F03F01CE
:1004900054B1224DB5FBF1F5174E361D3668C6F343
:1004A000881605FB06F209E01A4DB5FBF1F5124E70
:1004B000361D3668C6F3881605FB06F20E4D2D1D57
:1004C0002D68C5F301456D1C6B00B2FBF3F5124EB0
:1004D000356003E00F4D104E356000BF00BF064D84
:1004E00008352D68C5F303150D4E705D0A4D2D6856
:1004F000C540094E356070BD0038024000700040B4
:1005000008544007003C024088ED00E0FFFFF6FE83
:10051000103000240024F4000000002000127A00B3
:10052000040000200648804706480047FEE7FEE733
:10053000FEE7FEE7FEE7FEE7FEE7FEE7FEE7FEE793
:10054000F30300088901000800BFFEE700BFFEE7D3
:100550001CB50121082000F001FB4FF480500090F1
:1005600001208DF8040000208DF8060003208DF88E
:10057000050000208DF807006946144800F0A8F82F
:100580000021134800F046FD0021124800F042FD12
:100590000021114800F03EFD03E04FF0FF3000F075
:1005A000D7FCFAE711E04FF47A7000F0D1FC4FF479
:1005B00080500649183108804FF47A7000F0C8FC6A
:1005C0004FF4805001491A310880ECE7000C0240DA
:1005D000201E0008301E0008401E000803E04FF4F3
:1005E0007A7000F0B5FCFAE703E04FF47A7000F09F
:1005F000AFFCFAE710B504468C48844208D10121CB
:10060000084600F000FB0021012000F0FCFA5EE04B
:100610008748844208D10121022000F0F4FA002129
:10062000022000F0F0FA52E08248844208D1012111
:10063000042000F0E8FA0021042000F0E4FA46E08B
:100640007D48844208D10121082000F0DCFA002115
:10065000082000F0D8FA3AE07848844208D1012115
:10066000102000F0D0FA0021102000F0CCFA2EE08B
:100670007348844208D10121202000F0C4FA0021EF
:10068000202000F0C0FA22E06E48844208D1012107
:10069000402000F0B8FA0021402000F0B4FA16E043
:1006A0006948844208D10121802000F0ACFA002181
:1006B000802000F0A8FA0AE06448844207D10121B2
:1006C000801500F0A0FA0021A01500F09CFA10BDE2
:1006D000F0B50A4600210023002400BF3DE00125BB
:1006E00005FA01F3156805EA03049C4234D1056854
:1006F0004F000326BE40B543056015794E00B54056
:100700000668354305601579012D02D01579022D53
:1007100016D185684F000326BE40B54385605579E4
:100720004E00B540866835438560456801268E4099
:10073000B5434560456896798E40B6B2354345600D
:10074000C5684F000326BE40B543C560D5794E004D
:10075000B540C6683543C560491C1029BFD3F0BDFC
:100760004FF6FF7101600021017141718171C1710A
:10077000704708B54FF480320092009A0A43009205
:10078000009AC261C161009AC261C2690092C269E5
:10079000009208BD0246002013690B4201D00120DF
:1007A00000E0002070470146086980B270470246A9
:1007B000002053690B4201D0012000E00020704767
:1007C0000146486980B27047018370474183704792
:1007D0000AB1018300E0418370474161704742697B
:1007E0004A4042617047F0B5002300244D07ED0EEA
:1007F00002FA05F3CE1000F1200555F826504E07F9
:10080000F70E0F26BE40B543CF1000F1200646F884
:100810002750CE1000F1200555F8265045EA030474
:10082000CE1000F1200545F82640F0BD0000024042
:100830000004024000080240000C02400010024088
:100840000014024000180240001C02400020024038
:10085000FA48006840F00100F84908600020F749B4
:1008600008310860F5480068F5490840F349086018
:10087000F448091D0860081F006820F48020091F43
:1008800008600020ED490C31086070470021EB4AF8
:10089000921C117011460870704710B50146002275
:1008A000002300204A11012A02D1E44C236808E009
:1008B000022A03D1E14C7034236802E0DF4C743427
:1008C000236801F01F02012494401C4201D0012042
:1008D00000E0002010BD38B5002000900024002565
:1008E00000BF3120FFF7D9FF05460098401C00905B
:1008F0000098B0F5A06F01D0002DF2D03120FFF7A5
:10090000CCFF08B1012400E00024204638BD014698
:100910000020CA4A106820F0F80040EAC1001060C8
:100920007047C949086070470021C44A703211708D
:100930001170012802D004280AD104E00121BF4A25
:100940007032117005E00521BC4A7032117000E070
:1009500000BF00BF7047BD490860704770B5049C78
:1009600041EA82150126C6EB530645EA06450543D2
:1009700045EA0465B14E361D356070BDB249086662
:100980007047820142EA0172AC4B84331A607047AF
:10099000AD4988667047AC49C8647047024600207C
:1009A000A64B0833186820F0EC6042EA01031843B4
:1009B000A24B083318607047024600209F4B083353
:1009C000186820F0784042EA010318439B4B083333
:1009D0001860704701460020984A0832106820F0DD
:1009E000030008431060704794480830006800F026
:1009F0000C00704701460020904A0832106820F031
:100A0000F000084310607047014600208B4A08320E
:100A1000106820F4E0500843106070470146002041
:100A2000864A0832106820F4604040EAC100106035
:100A30007047F0B500210022002402250026022381
:100A40007E4F08373F6807F00C0121B1042905D01B
:100A5000082937D105E07E4F076036E07D4F0760FB
:100A600033E0764F3F1D3F68C7F38056734F3F1DFD
:100A70003F6807F03F036EB1764FB7FBF3F7DFF83F
:100A8000BCC10CF1040CDCF800C0CCF3881C07FBE3
:100A90000CF40CE06E4FB7FBF3F7DFF8A0C10CF1DC
:100AA000040CDCF800C0CCF3881C07FB0CF4634F8B
:100AB0003F1D3F68C7F301477F1C7D00B4FBF5F77E
:100AC000076002E0624F076000BF00BF5B4F08375E
:100AD0003F6807F0F00109095F4F7A5C0768D7406B
:100AE0004760564F08373F6807F4E051890A5A4F6C
:100AF0007A5C4768D7408760504F08373F6807F4F3
:100B00006041490B544F7A5C4768D740C760F0BDDD
:100B1000002100F44072B2F5407F0AD1474A083202
:100B2000116821F4F8114D4A02401143434A08323A
:100B30001160424A70321268C0F30B031A433F4BF4
:100B400070331A60704741494439086070473F4923
:100B500040390860704742490860704739B1374AE8
:100B6000303212680243354B30331A6006E0334AA4
:100B7000303212688243314B30331A60704739B1DA
:100B80002E4A3432126802432C4B34331A6006E08A
:100B90002A4A343212688243284B34331A60704731
:100BA00039B1264A383212680243244B38331A606E
:100BB00006E0224A383212688243204B38331A60EA
:100BC000704739B11D4A4032126802431B4B403313
:100BD0001A6006E0194A403212688243174B4033CC
:100BE0001A60704739B1154A443212680243134BF8
:100BF00044331A6006E0114A4432126882430F4BB4
:100C000044331A60704739B10C4A103212680243FB
:100C10000A4B10331A6006E0084A10321268824309
:100C2000064B10331A607047E1B1044A143212685F
:100C30000243024B14331A6019E0000000380240EE
:100C4000FFFFF6FE1030002400004742800E4742AE
:100C50000024F40000127A0024000020FFFCFF0FA3
:100C60005C0147425B4A126882435A4B1A607047E4
:100C700039B1584A121D12680243564B1B1D1A60A7
:100C800006E0544A121D12688243524B1B1D1A6023
:100C9000704739B14F4A0C32126802434D4B0C3346
:100CA0001A6006E04B4A0C3212688243494B0C33FF
:100CB0001A60704739B1474A103212680243454BF7
:100CC00010331A6006E0434A103212688243414BE7
:100CD00010331A60704739B13E4A3C321268024301
:100CE0003C4B3C331A6006E03A4A3C32126882437D
:100CF000384B3C331A60704739B1364A403212687B
:100D00000243344B40331A6006E0324A40321268E4
:100D10008243304B40331A60704739B12D4A443218
:100D2000126802432B4B44331A6006E0294A4432CE
:100D300012688243274B44331A60704739B1254A01
:100D40004C3212680243234B4C331A6006E0214AAE
:100D50004C32126882431F4B4C331A60704739B1D2
:100D60001C4A5032126802431A4B50331A6006E094
:100D7000184A503212688243164B50331A6070473B
:100D800039B1144AD21F12780243124BDB1F1A707A
:100D900006E0104AD21F127882430E4BDB1F1A70F6
:100DA00070470C486030006840F08070094960313D
:100DB0000860704701460020064A083A12680A4255
:100DC00001D0012000E0002070470249891F08700F
:100DD0007047000014380240064C074D06E0E068FA
:100DE00040F0010394E8070098471034AC42F6D372
:100DF000FFF7CEF9501E0008801E0008000000001A
:100E000002E008C8121F08C1002AFAD170477047D3
:100E1000002001E001C1121F002AFBD1704710B56C
:100E2000002A06DA22F00042D21D22F00703102227
:100E300003E0D21C22F003030C2213B19C188C4255
:100E400001D9012010BD024401448360C0E90021A2
:100E5000C91AD018884202D810600246F9E700206B
:100E6000106010BD08480068C0010BD50748006835
:100E7000C00707D0054880380068002802DA044916
:100E80000120087070470000FCED00E0800E00E0DB
:100E9000460000204FF06042D36F002BFCD0C36AA5
:100EA000D367D36F002BFCD0C07840EA0120A2F8B2
:100EB0007C0070474FF06041CA6F002AFCD081F877
:100EC0007C00704770B504000D4603D012B920783D
:100ED000012801D0802070BD204600F05FFA28B1C3
:100EE0002946204600F02CF8002070BD812070BDFE
:100EF00010B504468089002821D0608904EB800069
:100F0000006908606078022805D10021204600F0C1
:100F100099FB00F087FB04F10C0000BFD0E85F1FD5
:100F2000491EC0E8521F002AF8D16089401C80B2D7
:100F30006081E189884201D100206081042010BDD8
:100F400010B500F07FFBBDE8104000F06BBB000067
:100F5000EFF3058109B182207047DFF808C000DF98
:100F600070470000511B0008EFF305820AB1822090
:100F70007047EFF31482144B12F0030206D0012ADB
:100F80001BD0022A11D0032A19D113E0EFF30882F3
:100F900082F309881A78D2070AD0022282F31488D1
:100FA000BFF34F8FBFF36F8F09E01A78D20706D1D6
:100FB0000322F3E71A78D20701D0FF207047DFF849
:100FC0000CC000DF70470000D81D0008651B00083A
:100FD0002DE90E40EFF30582B2B102004FF0800020
:100FE00000D021B10090DDE9011203B000BD1178FD
:100FF0000129F7D101A91046FFF77AFF042801D093
:101000000020EFE71020EDE7DFF804C000DFECE799
:101010005D1C0008EFF305820AB100207047DFF87D
:1010200008C000DF70470000991C0008DFF80CC002
:1010300000DFDFF80CC000DFFEE70000091D00083C
:10104000251D0008DFF804C000DF70475D1D0008A3
:10105000094C4FF0FF3529462068FFF7B9FF0246DB
:101060000846102AF7D1FFF7EDFF0028F3D002461B
:1010700008469047EFE70000200000204FEA0001FB
:1010800051E8000F28B1036841E80032002AF7D187
:101090007047BFF32F8F704710B568B161B10B3146
:1010A00021F00302016844680B1A1B1B934205D20E
:1010B000084609680029F5D1002010BD3CB121186F
:1010C0000368C1E90032016001F1080010BD42600F
:1010D000083010BD70B50C46002812D04FF6FF71D5
:1010E000084D884204D22A680146104600F0D6FA1C
:1010F00028684470044800F0D7F8BDE8704000F05C
:101100008FBB70BD38000020800000200F4810B554
:101110000D4942680E480B680088934204D00A606B
:10112000CB88421E1A448A808A8882420AD10020D3
:101130000860064800F0B8F80146BDE810400348D2
:1011400000F0DABA10BD0000480000208000002046
:101150004400002070B5194DE86800282CD0A88AFA
:10116000401EA882002621E0A06838B16168416075
:10117000606810B1A16881606660A6600F48214672
:10118000183800F0B9FAA08AA8826078042804D13F
:101190000B49E08A09880844A08201206070E06859
:1011A000E860E06808B10561E6602661A88A002869
:1011B00002D1EC68002CD7D170BD0000980000204F
:1011C0004400002070B504000FD00D4DA178012619
:1011D0002868827891420CD900F0AAFA28684670F3
:1011E0002046BDE8704000F01BBB064800F05CF8EC
:1011F000F7E766702146BDE87040024800F07CBA0F
:1012000038000020800000200321FFF763BF0000AA
:1012100010B50446008B084320836278618B062A50
:1012200018D0052A19D1084217D001EA00026283BA
:1012300088432083204600F09BFA01206070628B77
:101240000821204600F08CFA2146BDE810400348F2
:1012500000F052BA31EA0002EAD010BD800000204E
:10126000814202D342688A4201D80120704750E887
:10127000002F0A6040E80012002AF8D100207047D1
:1012800068B161B10839002202E00246006830B15D
:101290008842FAD12AB1006810600020704701200E
:1012A000704700214160F8E70146406842684A60A3
:1012B0000B780022022B05D0012B03D0032B01D089
:1012C0004260704743680BB199604260826070472A
:1012D000810700D00020704770B5044600201546F5
:1012E000207001226270A1706060A060E0602061E7
:1012F000A082E0822083608384F82000608C18B98B
:101300000448FFF7BBFEA06229462046BDE87040B6
:1013100000F01CB86001001008B1082901D20120BA
:1013200070470144091F002201600A6042601046B4
:101330007047000003480021016003490968C1802B
:101340007047000048000020D01D000810B5428CF6
:10135000920803D10F4A1268C2F38D02836A03EB2D
:101360008202530700D5121F403A4FF08073C2E942
:101370000E1300234FEA030442F823405B1C0E2B9C
:10138000FAD3C36913624262C162806A0249016092
:1013900010BD0000CC1D0008A52E5AE2C18980892D
:1013A000081A704701220270002242708270426067
:1013B00002814281103982818908C1817047000011
:1013C0002DE9F0410446407800270E464FF0010811
:1013D000012855D004F10C0502282BD0032818D081
:1013E000A089E189884262D2208904EB80000661ED
:1013F000D5E85F0F401CC5E8510F0029F8D12089BE
:10140000401C80B22081E189884200D12781BDE85B
:10141000F0810846FFF732FE0600F8D02046FFF7BD
:1014200043FF0546606800B967703146284600F002
:1014300091F931E02046FFF737FF0646606800B9B2
:1014400067700021304600F085F92189F06904EBCE
:1014500081010861D5E85F0F401CC5E8510F0029E4
:10146000F8D12089401C80B22081E189884200D1D6
:10147000278186F80180304600F07AF9314611E084
:101480002046FFF711FF0546606800B967703246D5
:101490001021284600F064F985F80180284600F004
:1014A00067F92946BDE8F041034800F025B9BDE8D9
:1014B000F0410320FFF74AB88000002070B50446D1
:1014C000808915460026C8B3608904EB8000006956
:1014D00008606089401C80B26081E189884200D147
:1014E0006681607802280AD014F10C04D4E85F0FFA
:1014F000401EC4E8510F0029F8D1002070BD2046DD
:10150000FFF7D2FE0546606800B9667000212846E4
:1015100000F020F92189E86904EB81010861208944
:10152000401C80B22081E189884200D12681284672
:1015300000F01EF92846FFF745FEDEE7FFE73DB164
:101540000A48626801682AB1204600F0D5F807E031
:10155000012070BD61600068C0E901640120607015
:1015600008212846FFF7B6FDF2E70000380000200A
:10157000411C13D00B4A4FF6FE7190420CD800EB81
:101580004002C2EBC0120848036803EBC202521EBD
:10159000B2FBF3F0884200D9084670474FF6FF705F
:1015A0007047000000093D00DC1D000870B51A48B6
:1015B00001210068417000F0BBF8184D6C7816E00E
:1015C00005EBC40148680278E2B1012A1FD000F09F
:1015D000FBF8E878641C844200D100240F48801C8A
:1015E000D0E84F1F491EC0E8421F002AF8D1A87852
:1015F0000028E5D16C700A48FFF756FEBDE8704040
:1016000000F00EB9896889B2FFF702FEE1E7896848
:10161000FFF7D6FEDDE7000038000020901A00102A
:10162000800000200548017811B101214170704708
:1016300003494FF0805008607047000040000020D0
:1016400004ED00E0F0B4144B9C1CDD784FEA030C71
:10165000D4E84F2FAA4202D1BFF32F8F0EE0521CC5
:10166000C4E8462F002EF3D1DCE84F2F541CAC42C7
:1016700000D10024CCE8464F002EF5D1DC7894420E
:1016800005D903EBC202C2E90101F0BC7047F0BC0E
:101690000220FEF75BBF0000901A0010154A10B53B
:1016A000D368FBB113469B8A09E000BFD2F80CC097
:1016B000BCF1000F16D0BCF81440624623448B42A4
:1016C000F4D3D468C460D0600261D0F80CC0BCF11F
:1016D000000F01D0CCF81000591A8182908A401A6C
:1016E000908210BD0024C460D060C91A026191824A
:1016F000848210BD9800002010B502780023022AD1
:1017000003D0012A01D0032A00D1012391F802C09D
:1017100000E01046426812B194786445F9D24A60FC
:1017200041601BB102B19160886010BD0020FBE7F1
:1017300003494A68426000228260486070470000A6
:101740008000002090F82010406A09B16030704796
:101750002030704710B50C46FFF7F4FF046010BD51
:1017600070B50C461546FFF7EDFFC0E9004570BDAA
:1017700010B5016900290ED0C268CA60C368002292
:101780003BB18B8A848A23448B82C3681961C2600F
:1017900000E08A82026110BD816839B142684A6006
:1017A0004168002901D0806888607047054906E0DB
:1017B0004A68824202D14068486070471146002959
:1017C000F6D170478000002010B5416881B1FFF765
:1017D0006BFD0446FFF7CCFF0120607001462046F8
:1017E000FFF7B8FF2146BDE810400348FFF784BF6C
:1017F0004188491C418010BD8000002006480068D7
:10180000D0E90910814203D300680449884202D01C
:101810000120FEF79BBE704738000020A52E5AE23B
:101820000749022248604270064A1278002A05D011
:1018300006C98A4202D0C078FFF73CBB704700005F
:1018400038000020460000202DE9F04104460D46F6
:101850009046FFF707FB002006463849384B02E068
:1018600041F82060401C1A889042F9D33548302254
:1018700001883548FFF7D3FA3448006880B240F059
:101880000042334801683348FFF7C9FA324808225A
:10189000018832480068FFF7C2FA314FFF20314A11
:1018A000F8707E8400213846FFF716FD2E4804218B
:1018B000017046602D480170C66006618682786AB4
:1018C0002030FEF76FFC2A482B4907600220787011
:1018D0002848067046700978C170284801684FF0A2
:1018E000E020416186610721016125480168254AA0
:1018F000114301600068224900F07F40C043143961
:10190000B0FA80F00968C0F10800C1F302218142F9
:1019100000DB481C1A49091F0B686FF08072824077
:1019200063F317020A60FFF705FD42462946204689
:10193000BDE8F041002300F06DB80000141B00105A
:10194000C81D0008E41D000800000010CC1D0008A0
:10195000E81D0008600100100C1E0008180000209F
:101960005000002049050008800000209800002059
:1019700038000020901A0010F01D0008D41D000847
:1019800020ED00E00000FFFF0B4810B500680121CA
:101990004170FFF7CDFEFFF7B9FB08490888401CEE
:1019A0000880FFF7D7FB00F0E5F90548FFF77CFC5E
:1019B000BDE81040FFF734BF38000020440000208D
:1019C00080000020002805D0810702D1017800297D
:1019D00000D000207047000030B50D4C0023226875
:1019E00008E000BFB2F808C08C4505D8134612685D
:1019F000A1EB0C01002AF5D189B20260018112B17C
:101A00001589691A11810BB1186030BD206030BD95
:101A1000340000202DE9F041804616461F460D4651
:101A200011F0FF0F00D14D1C1648FFF727FB0400F3
:101A300026D0280AA6626084E9B242462046E761C1
:101A4000FFF74AFC01251048104905E000EB85022C
:101A500052F8042C22B16D1C0A889542F6D9002553
:101A600000EB850040F8044C0948E570007818B197
:101A700001212046FFF70EFA2046FFF7A3FB284678
:101A8000BDE8F08100000010141B0010C81D000804
:101A9000460000202DE9F041244C234F244B2268BE
:101AA0000026D17808B1814218D103EB810056702D
:101AB00040F8046C1F48916AFFF7D2FB20688662E9
:101AC000397811B10021FFF7E5F91B482168FFF7CC
:101AD000C7FB00202660FFF775FB1FE01749098848
:101AE00088421ED803EB800555F8044CCCB1204643
:101AF000FFF752FE2046FFF73BFE45F8046C0D4809
:101B0000A16AFFF7ADFBA662387818B10021204624
:101B1000FFF7C0F921460848FFF7A2FB0020BDE807
:101B2000F081FF20FBE70000460000203800002085
:101B3000141B00106001001000000010C81D0008F8
:101B400002480068002800D0C078704738000020A4
:101B500010B5002805D0FFF70BFD80B2FFF754FB4E
:101B6000402010BD70B504000D4608D0206830B18B
:101B7000B4F9040010F1030F01DB032801DD862016
:101B800070BD244E306840B1204600F085F8A0B109
:101B900000F0BAF800F0C6F837E01F4840070CD153
:101BA0001E4801681C48FFF7B7FB30B9E16831B146
:101BB0001948FFF771FA020002D1852070BD00229A
:101BC000B4F90400E168001D40EA01212068FFF734
:101BD0003BFE7068D8B1C078114901EB800050F825
:101BE000040C3060416A0D62406A0E494163002175
:101BF0000D4800F021F80D49086000210C4800F064
:101C00004BF80C49086000203060002070BDFF20B8
:101C100070BD00003800002030140010EC1D0008DA
:101C2000141B00102D100008041E000820000020C6
:101C3000F41D00081C00002010B5040005D0216828
:101C400019B1606808B102780AB1002010BD89009E
:101C5000103189B2FFF7A6FB606810BD3EB50400E5
:101C60000D464FF0800012D0217801290FD128466F
:101C7000FFF77EFC82B201A92046FFF71FFC012876
:101C800001D0102003E00DB1402000E00020DDE98C
:101C9000011203B030BD000070B504000E462BD019
:101CA000206848B3B4F9040010F1030F24DB0328C3
:101CB00022DCE16829B11148FFF7EEF9050015D0E3
:101CC00000E00025B4F90400E168001D40EA0121AC
:101CD00033462A462068FFF79DFE40B1084901EBD4
:101CE0008000084950F8040C426A516370BD1DB170
:101CF00029460248FFF7C4FA002070BD30140010D6
:101D0000141B00102D10000810B5FFF719FF002854
:101D100004D0034901EB800050F8040C10BD000012
:101D2000141B001070B5FFF74DFE040003D0608C4B
:101D300018B1A56A02E0802070BD0025E078FFF7A9
:101D4000A9FEFF2806D01DB10348A16AFFF798FA43
:101D5000002070BD812070BD3014001010B5FFF759
:101D6000B7FA20B101690A68C168104610BD0020A9
:101D7000014610BD2DE9F041114E3468002C18D0F9
:101D80002089104F401E20814FF001080EE02546AB
:101D900024683460002229463868FFF793F8687990
:101DA000012808D085F80480002C02D02089002862
:101DB000EDD0BDE8F08169892846FFF70DFEF3E715
:101DC0003400002020000020070000002003020152
:101DD000050001003F90020001000000E803000040
:101DE000000000005C010000D0120000600600004E
:101DF0001000000051100008020000000100000067
:101E00002003000004000000301B00100000000050
:101E10005105000800000000010000002003000040
:101E2000A5050008000000000100000000000000FF
:101E3000DD050008000000000100000000000000B7
:101E4000E90500080000000001000000000000009B
:101E5000801E00080000002050000000000E000856
:101E6000801E000800000010501B0000100E00082B
:101E7000D01E00085000002060040000100E000872
:101E8000007A030A000000000000000001020304C1
:101E90000607080900000000000000000000000024
:101EA000000000000000000001020304010203041E
:101EB0000607080900000000000000000000000004
:101EC0000000000000000000000000000000000012
:040000050800018965
:00000001FF
