:020000040800F2
:10000000B8040020250500082D0500082F0500086C
:100010003105000833050008350500080000000020
:1000200000000000000000000000000009020008BD
:100030003905000800000000AD0200080D030008AB
:100040003F0500083F0500083F0500083F05000880
:100050003F0500083F0500083F0500083F05000870
:100060003F0500083F0500083F0500083F05000860
:100070003F0500083F0500083F0500083F05000850
:100080003F0500083F0500083F0500083F05000840
:100090003F0500083F0500083F0500083F05000830
:1000A0003F0500083F0500083F0500083F05000820
:1000B0003F0500083F0500083F0500083F05000810
:1000C0003F0500083F0500083F0500083F05000800
:1000D0003F0500083F0500083F0500083F050008F0
:1000E0003F0500083F0500083F0500083F050008E0
:1000F0003F0500083F0500083F0500083F050008D0
:100100003F0500083F0500083F0500083F050008BF
:100110003F0500083F0500083F0500083F050008AF
:100120003F0500083F0500083F0500083F0500089F
:100130003F0500083F0500083F0500083F0500088F
:100140003F0500083F0500083F0500083F0500087F
:100150003F0500083F0500083F0500083F0500086F
:100160003F0500083F0500083F0500083F0500085F
:100170003F0500083F0500083F0500083F0500084F
:100180003F0500083F050008DFF814D001F022FB0E
:100190000021024802F0E4F8FEE7000008320008FF
:1001A000B804002080F309887047684680F3098806
:1001B00004480078C00714BF0220032080F314888D
:1001C00070470000D0310008DFF818C0EFF3058356
:1001D0001B0618BF6047EFF31483DB0708BF6047B7
:1001E00000DF704775240008DFF818C0EFF30583BF
:1001F0001B0618BF6047EFF31483DB0708BF604797
:1002000000DF704759260008EFF30980816911F873
:10021000021C002933D190E80F1010B5E047BDE86B
:100220001040EFF3098C8CE807001D4B93E80600A3
:10023000914208BF704781B11EF0100F06BF2CED30
:10024000108A0120002081F820002CE9F00FC1F86D
:1002500024C00CB402F0CEFC0CBC1A60D2F824C04E
:10026000BCE8F00F92F8200000281ABFBCEC108AFE
:100270006FF0120E6FF0020E8CF30988704710B504
:10028000084A1268914209D8074C54F8214090E876
:100290000F10A047EFF3098C8CE80F0010BD000091
:1002A00038000020181900081819000810B502F0CD
:1002B00079FBBDE81040174B93E80600914208BF58
:1002C0007047EFF3098C1EF0100F06BF2CED108A5B
:1002D0000120002081F820002CE9F00FC1F824C093
:1002E0000CB402F087FC0CBC1A60D2F824C0BCE845
:1002F000F00F92F8200000281ABFBCEC108A6FF0B3
:10030000120E6FF0020E8CF30988704710B502F0E0
:1003100037FDCEE7380000200CB50020019000909A
:100320007548006840F480307349086000BF724827
:10033000006800F4003000900198401C0190009883
:1003400018B90198B0F5A06FF1D16B48006810F4AE
:10035000003F02D00120009001E0002000900098B2
:10036000012845D164484030006840F0805062491F
:10037000403108606148006840F480405F4908608F
:100380005D48083000685C4908310860084600682C
:1003900040F4004008600846006840F4A05008603F
:1003A0005748091F0860081F006840F08070091F47
:1003B000086000BF5048006810F0007FFAD040F29B
:1003C0000560504908604C480830006820F0030080
:1003D0004949083108600846006840F0020008609A
:1003E00000BF45480830006800F00C000828F8D12C
:1003F0000CBD10B54448006840F4700042490860E4
:100400003D48006840F001003B49086000203A493F
:1004100008310860384800683C490840364908609F
:100420003B48091D0860081F006820F48020091F50
:100430000860002030490C310860FFF76DFF4FF075
:10044000006031498039086010BD70B5002000227D
:10045000022300240221284D08352D6805F00C00E8
:1004600020B1042806D0082834D107E0294D2A4EAF
:10047000356033E0294D284E35602FE01E4D2D1D8F
:100480002D68C5F380541C4D2D1D2D6805F03F01CE
:1004900054B1224DB5FBF1F5174E361D3668C6F343
:1004A000881605FB06F209E01A4DB5FBF1F5124E70
:1004B000361D3668C6F3881605FB06F20E4D2D1D57
:1004C0002D68C5F301456D1C6B00B2FBF3F5124EB0
:1004D000356003E00F4D104E356000BF00BF064D84
:1004E00008352D68C5F303150D4E705D0A4D2D6856
:1004F000C540094E356070BD0038024000700040B4
:1005000008544007003C024088ED00E0FFFFF6FE83
:10051000103000240024F4000000002000127A00B3
:10052000040000200648804706480047FEE7FEE733
:10053000FEE7FEE7FEE7FEE7FEE7FEE7FEE7FEE793
:10054000F30300088901000800BFFEE700BFFEE7D3
:100550001CB50121082000F0F1FD4FF480500090FF
:1005600001208DF8040000208DF8060003208DF88E
:10057000050000208DF807006946144800F098FB3C
:100580000021134801F042FF0021124801F03EFF14
:100590000021114801F03AFF03E04FF0FF3001F075
:1005A000D3FEFAE711E04FF47A7001F0CDFE4FF47C
:1005B00080500649183108804FF47A7001F0C4FE6B
:1005C0004FF4805001491A310880ECE7000C0240DA
:1005D0001832000828320008383200082DED068B4A
:1005E00000F04EF8B0EE080AB0EE409A9FED180AFF
:1005F000F0EE409A00BF29E04FF47A7001F0A4FEBB
:1006000000F093F8044600EE104AB8EE400A29EED6
:10061000000ADFED100AC0EE208A78EEE90A9FEDAD
:100620000E1AB3EE090AB0EE408A00EE818A18EE87
:10063000100A00F0C1FE41EC100BB0EE40AAF0EE43
:1006400060AA53EC1A2B05A001F068F9D4E700006A
:100650005C8F423F00F07F450000C843546865202E
:1006600074656D70657261747572653A2025660AED
:100670000000000003E04FF47A7001F065FEFAE735
:1006800000B58DB00121080200F09CFD012104207D
:1006900000F054FD01A800F053FB10200190012050
:1006A0008DF8080003208DF8090000208DF80A005D
:1006B0008DF80B0001A9294800F0FAFA102127480B
:1006C00000F072FB1021254800F070FB0122102180
:1006D000224800F06DFB1621204800F06EFB002040
:1006E000039004900590069003A800F075F8002090
:1006F00007908DF820008DF8210009900B900120C3
:100700008DF8300007A9164800F037F80121144889
:1007100000F07EF8012000F099F806230122102154
:100720000F4800F0B5F80DB000BD10B50C4800F052
:100730000BF900BF02210A4800F028FA0028F9D07E
:10074000074800F03DF90221054800F028FA044866
:1007500000F036F90446204610BD000000000240BB
:100760000020014010B50121080200F093FD002196
:100770004FF4807000F08EFD10BD30B502460020B1
:1007800000235068F84C20400D790C6844EA052499
:10079000204350609068F54C2040D1E903542C432D
:1007A0008D682C434D7944EA450420439060D06A1B
:1007B00020F470000C7D641EE4B2234340EA035031
:1007C000D06230BD00210160017141718160C16062
:1007D00001610121017570470021E54A1168E54A70
:1007E00001EA0201D0E9002342EA0302836842EAF7
:1007F0000302C36842EA030242EA0101DE4AC2F888
:10080000041370470021016041608160C16070473E
:1008100021B1826842F00102826003E0826822F026
:100820000102826070470A4600214168D34B19409B
:100830001143416070474162826270470A4600215D
:10084000416821F01F0111434160704738B1C84928
:10085000096841F40001C84AC2F8041306E0C4491B
:10086000096821F40001C44AC2F80413704738B182
:10087000BF49096841F48001BF4AC2F8041306E089
:10088000BB49096821F48001BB4AC2F804137047D0
:10089000F0B504460D4600200021092D11DDE06869
:1008A000A5F10A0606EB4607072606FA07F1884374
:1008B000A5F10A0606EB460603FA06F10843E060D6
:1008C0000CE0206905EB4507072606FA07F1884387
:1008D00005EB450603FA06F108432061072A0FDA03
:1008E000606B561E06EB86071F2606FA07F1884343
:1008F000561E06EB860605FA06F10843606322E001
:100900000D2A0FDA206BD61F06EB86071F2606FA84
:1009100007F18843D61F06EB860605FA06F1084361
:10092000206310E0E06AA2F10D0606EB86071F26A1
:1009300006FA07F18843A2F10D0606EB860605FAD2
:1009400006F10843E062F0BD816841F080418160BA
:100950007047014600208A6812F4800F01D0012000
:1009600000E00020704721B1826842F4806282601A
:1009700003E0826822F480628260704721B182685D
:1009800042F00202826003E0826822F0020282608A
:10099000704710B50A4600210023416821F46041E8
:1009A000531E41EA4331416010BD21B1426842F417
:1009B0000062426003E0426822F4006242607047D5
:1009C0000146C86C80B270476D480068704721B11D
:1009D000826842F48072826003E0826822F480724E
:1009E0008260704721B1826842F40072826003E045
:1009F000826822F400728260704738B15C490968ED
:100A000041F400515C4AC2F8041306E058490968F1
:100A100021F40051584AC2F804137047F0B5044657
:100A20001546002000220026092911DDE068A1F109
:100A30000A0707EB470C072707FA0CF29043A1F1CE
:100A40000A0707EB470703FA07F21043E0600CE0E0
:100A5000206901EB410C072707FA0CF2904301EBE8
:100A6000410703FA07F210432061A06BC0F301565F
:100A7000EF1C06F1010CA7EB0C0707EB870C1F27F7
:100A800007FA0CF29043EF1C06F1010CA7EB0C07E0
:100A900007EB870701FA07F21043A063F0BD10B51A
:100AA0000A4600210023816B21F44011531E41EAC4
:100AB0000351816310BD08B5002300930090009B93
:100AC0000B440093009B1A6008BD0A460021816810
:100AD00021F470211143816070470A46002181682A
:100AE00021F44011114381607047816841F4800115
:100AF00081607047014600208A6812F4800F01D09F
:100B0000012000E00020704721B1426842F4806279
:100B1000426003E0426822F480624260704721B183
:100B2000426842F48052426003E0426822F48052FC
:100B30004260704708B5024600200090009201F123
:100B40002800009B184400900098006880B208BDFF
:100B500010B50B460021D9B2012404FA01F18AB183
:100B600044680C43446010E0FFFEFFFCFDF7FFC04B
:100B700004230140E030FCFF00200140FFFD3FFF67
:100B80000823014044688C43446010BD02460020A5
:100B900013680B4201D0012000E000207047CA43D7
:100BA0000260704770B502460020002300240B123B
:100BB000556801268E4005EA060415681D4202D0DC
:100BC0000CB1012000E0002070BD00220A12D343C6
:100BD0000360704710B504468C48844208D1012157
:100BE000084600F000FB0021012000F0FCFA5EE066
:100BF0008748844208D10121022000F0F4FA002144
:100C0000022000F0F0FA52E08248844208D101212B
:100C1000042000F0E8FA0021042000F0E4FA46E0A5
:100C20007D48844208D10121082000F0DCFA00212F
:100C3000082000F0D8FA3AE07848844208D101212F
:100C4000102000F0D0FA0021102000F0CCFA2EE0A5
:100C50007348844208D10121202000F0C4FA002109
:100C6000202000F0C0FA22E06E48844208D1012121
:100C7000402000F0B8FA0021402000F0B4FA16E05D
:100C80006948844208D10121802000F0ACFA00219B
:100C9000802000F0A8FA0AE06448844207D10121CC
:100CA000801500F0A0FA0021A01500F09CFA10BDFC
:100CB000F0B50A4600210023002400BF3DE00125D5
:100CC00005FA01F3156805EA03049C4234D105686E
:100CD0004F000326BE40B543056015794E00B54070
:100CE0000668354305601579012D02D01579022D6E
:100CF00016D185684F000326BE40B54385605579FF
:100D00004E00B540866835438560456801268E40B3
:100D1000B5434560456896798E40B6B23543456027
:100D2000C5684F000326BE40B543C560D5794E0067
:100D3000B540C6683543C560491C1029BFD3F0BD16
:100D40004FF6FF7101600021017141718171C17124
:100D5000704708B54FF480320092009A0A4300921F
:100D6000009AC261C161009AC261C2690092C269FF
:100D7000009208BD0246002013690B4201D00120F9
:100D800000E0002070470146086980B270470246C3
:100D9000002053690B4201D0012000E00020704781
:100DA0000146486980B270470183704741837047AC
:100DB0000AB1018300E04183704741617047426995
:100DC0004A4042617047F0B5002300244D07ED0E04
:100DD00002FA05F3CE1000F1200555F826504E0713
:100DE000F70E0F26BE40B543CF1000F1200646F89F
:100DF0002750CE1000F1200555F8265045EA03048F
:100E0000CE1000F1200545F82640F0BD000002405C
:100E10000004024000080240000C024000100240A2
:100E20000014024000180240001C02400020024052
:100E3000FA48006840F00100F84908600020F749CE
:100E400008310860F5480068F5490840F349086032
:100E5000F448091D0860081F006820F48020091F5D
:100E600008600020ED490C31086070470021EB4A12
:100E7000921C117011460870704710B5014600228F
:100E8000002300204A11012A02D1E44C236808E023
:100E9000022A03D1E14C7034236802E0DF4C743441
:100EA000236801F01F02012494401C4201D001205C
:100EB00000E0002010BD38B500200090002400257F
:100EC00000BF3120FFF7D9FF05460098401C009075
:100ED0000098B0F5A06F01D0002DF2D03120FFF7BF
:100EE000CCFF08B1012400E00024204638BD0146B3
:100EF0000020CA4A106820F0F80040EAC1001060E3
:100F00007047C949086070470021C44A70321170A7
:100F10001170012802D004280AD104E00121BF4A3F
:100F20007032117005E00521BC4A7032117000E08A
:100F300000BF00BF7047BD490860704770B5049C92
:100F400041EA82150126C6EB530645EA06450543EC
:100F500045EA0465B14E361D356070BDB24908667C
:100F60007047820142EA0172AC4B84331A607047C9
:100F7000AD4988667047AC49C86470470246002096
:100F8000A64B0833186820F0EC6042EA01031843CE
:100F9000A24B083318607047024600209F4B08336D
:100FA000186820F0784042EA010318439B4B08334D
:100FB0001860704701460020984A0832106820F0F7
:100FC000030008431060704794480830006800F040
:100FD0000C00704701460020904A0832106820F04B
:100FE000F000084310607047014600208B4A083229
:100FF000106820F4E050084310607047014600205C
:10100000864A0832106820F4604040EAC10010604F
:101010007047F0B50021002200240225002602239B
:101020007E4F08373F6807F00C0121B1042905D035
:10103000082937D105E07E4F076036E07D4F076015
:1010400033E0764F3F1D3F68C7F38056734F3F1D17
:101050003F6807F03F036EB1764FB7FBF3F7DFF859
:10106000BCC10CF1040CDCF800C0CCF3881C07FBFD
:101070000CF40CE06E4FB7FBF3F7DFF8A0C10CF1F6
:10108000040CDCF800C0CCF3881C07FB0CF4634FA5
:101090003F1D3F68C7F301477F1C7D00B4FBF5F798
:1010A000076002E0624F076000BF00BF5B4F083778
:1010B0003F6807F0F00109095F4F7A5C0768D74085
:1010C0004760564F08373F6807F4E051890A5A4F86
:1010D0007A5C4768D7408760504F08373F6807F40D
:1010E0006041490B544F7A5C4768D740C760F0BDF8
:1010F000002100F44072B2F5407F0AD1474A08321D
:10110000116821F4F8114D4A02401143434A083254
:101110001160424A70321268C0F30B031A433F4B0E
:1011200070331A60704741494439086070473F493D
:1011300040390860704742490860704739B1374A02
:10114000303212680243354B30331A6006E0334ABE
:10115000303212688243314B30331A60704739B1F4
:101160002E4A3432126802432C4B34331A6006E0A4
:101170002A4A343212688243284B34331A6070474B
:1011800039B1264A383212680243244B38331A6088
:1011900006E0224A383212688243204B38331A6004
:1011A000704739B11D4A4032126802431B4B40332D
:1011B0001A6006E0194A403212688243174B4033E6
:1011C0001A60704739B1154A443212680243134B12
:1011D00044331A6006E0114A4432126882430F4BCE
:1011E00044331A60704739B10C4A10321268024316
:1011F0000A4B10331A6006E0084A10321268824324
:10120000064B10331A607047E1B1044A1432126879
:101210000243024B14331A6019E000000038024008
:10122000FFFFF6FE1030002400004742800E4742C8
:101230000024F40000127A0024000020FFFCFF0FBD
:101240005C0147425B4A126882435A4B1A607047FE
:1012500039B1584A121D12680243564B1B1D1A60C1
:1012600006E0544A121D12688243524B1B1D1A603D
:10127000704739B14F4A0C32126802434D4B0C3360
:101280001A6006E04B4A0C3212688243494B0C3319
:101290001A60704739B1474A103212680243454B11
:1012A00010331A6006E0434A103212688243414B01
:1012B00010331A60704739B13E4A3C32126802431B
:1012C0003C4B3C331A6006E03A4A3C321268824397
:1012D000384B3C331A60704739B1364A4032126895
:1012E0000243344B40331A6006E0324A40321268FF
:1012F0008243304B40331A60704739B12D4A443233
:10130000126802432B4B44331A6006E0294A4432E8
:1013100012688243274B44331A60704739B1254A1B
:101320004C3212680243234B4C331A6006E0214AC8
:101330004C32126882431F4B4C331A60704739B1EC
:101340001C4A5032126802431A4B50331A6006E0AE
:10135000184A503212688243164B50331A60704755
:1013600039B1144AD21F12780243124BDB1F1A7094
:1013700006E0104AD21F127882430E4BDB1F1A7010
:1013800070470C486030006840F080700949603157
:101390000860704701460020064A083A12680A426F
:1013A00001D0012000E0002070470249891F087029
:1013B000704700001438024000F0004230F0004056
:1013C0000AD0C10D01F56071C0F3160042EA015167
:1013D000C20840071143704700200146704730B5EE
:1013E0000B46014600202022012409E021FA02F5E3
:1013F0009D4205D303FA02F5491B04FA02F528447D
:10140000151EA2F10102F1DC30BD2DE9F05F0546A9
:10141000002092469B4688460646814640241BE0B3
:10142000284641464746224600F0F5F953465A46BB
:10143000C01A914110D311461846224600F0DCF93B
:101440002D1A67EB01084F4622460120002100F0CB
:10145000D3F917EB00094E41201EA4F10104DFDC93
:10146000484631462A464346BDE8F09F2DE9FE4FE7
:10147000804681EA0300C00F0C46009021F0004135
:1014800023F00045B8EB0200A94105D240462146B1
:1014900090461C460B46024623F00040104304D100
:1014A0004046214603B0BDE8F08F270DC7F30A0080
:1014B000C3F30A510290401A0190402866DAC3F340
:1014C000130040F4801B0098924620B10023D2EB19
:1014D000030A63EB0B0B01985946C0F140025046DA
:1014E00000F08AF906460D4650465946019A00F02A
:1014F000A2F910EB08006141002487EA115284EA46
:10150000E7731A433BD0009A3AB3019A012A4FEA93
:10151000075210DC001B61EB02014FF0004202EAAF
:101520000752CDE90042001C41F5801132462B469E
:1015300000F0A0F9B6E7001B61EB0201001C41F5C9
:10154000801300185B412018A2F5001747EB030138
:1015500040EAD570B6196D4111E06D084FEA3606C4
:1015600045EAC0754FEA0752001B61EB0201001CFF
:1015700041F5801149084FEA3000001951413246C7
:101580002B4603B0BDE8F04F00F067B90098012288
:1015900040000023D0EB020263EBE0730098214689
:1015A0004FEAE074B8EB000061EB0401E9E783F077
:1015B00000435BE781F0004158E72DE9FE4F81EAE7
:1015C000030404F0004421F0004100944FF0000BAC
:1015D00023F0004350EA010402D052EA030404D18C
:1015E0000020014603B0BDE8F08FC3F30A54C1F3F5
:1015F0000A552C44A4F2F3340194A0FB0254C1F325
:10160000130141F48011C3F3130343F4801301FB6E
:10161000024400FB034E840A970A44EA815447EAD5
:101620008357A4FB076802958D0A05FB07854FEADF
:10163000932C04FB0C542705029D4FEA065847EAF9
:101640001637B5EB08056EEB070C870E920E47EACE
:10165000811742EA8312A7FB0201B6EB0B0164EB90
:1016600000042B0D43EA0C335E1844EB1C50DA46A1
:101670005146E7FB0201C5F313044FEA0B3343EA7B
:1016800014534FEA0432019C43EA0603A4F10C040C
:101690000294009CCDE900B400F0ECF8A2E72DE93B
:1016A000F04D81EA030404F0004B21F0004514469C
:1016B0004FF0000A23F0004150EA050220D054EA1E
:1016C00001021DD0C5F30A570246C5F31303C1F347
:1016D0001300C1F30A5640F4801543F48013A7EBBE
:1016E0000608101BD64608F2FD3873EB050002D33E
:1016F00008F1010801E092185B41B8F1000F03DA2C
:1017000000200146BDE8F08D00204FF48011064610
:1017100084460EE0171B73EB050705D3121B63EB22
:10172000050306434CEA010C49084FEA30009218C1
:101730005B4150EA0107EDD152EA030012D082EA80
:10174000040083EA0501084303D100224FF000435F
:1017500008E0101BAB4102D20122002302E06FF02F
:10176000010253101AEB06004CEB085110EB0A0073
:1017700041EB0B01BDE8F04D00F06FB8C1F30A5228
:10178000C1F3130140F2FF3341F480119A4202DAAF
:1017900000200146704740F233439A42A2F233429E
:1017A00002DC524200F037B800F026B830B500290C
:1017B00004DB4FF00044404264EB0101002B04DBEA
:1017C0004FF00044524264EB0303994208BF904239
:1017D00030BD0000064C074D06E0E06840F0010314
:1017E00094E8070098471034AC42F6D3FEF7D0FCDB
:1017F0004832000878320008202A04DB203A00FA38
:1018000002F1002070479140C2F1200320FA03F357
:10181000194390407047202A04DB203A21FA02F055
:101820000021704721FA02F3D040C2F1200291401A
:10183000084319467047202A06DBCB17203A41FAA5
:1018400002F043EAE07306E041FA02F3D040C2F14D
:101850002002914008431946704710B5002B08DA62
:10186000401C41F1000192185B411A4301D120F064
:10187000010010BD2DE9F04D92469B4611B1B1FA21
:1018800081F202E0B0FA80F220329046FFF7B4FF16
:1018900004460F4640EA0A0041EA0B0153465A4605
:1018A000084303D120463946BDE8F08D114653EA7E
:1018B000010015D0C8F140025046FFF7ACFF0546C5
:1018C0000E46504659464246FFF796FF084301D060
:1018D000012000E00020054346EAE0762C43374330
:1018E0000A984FEA4453A0EB08004FEAD4240A3088
:1018F0004FF0000244EA47544FEAD72502D50020B2
:101900000146D1E7010510196941DDE908450019D3
:101910006941BDE8F04DA0E7000000000FB4054BA1
:1019200010B503A9044A029800F0EAF810BC5DF86B
:1019300014FB0000A92200085000002002E008C8A3
:10194000121F08C1002AFAD170477047002001E039
:1019500001C1121F002AFBD1704700002DE9FF5F73
:10196000DDE90220010DDDF838B0024310D10F98F7
:1019700001244CA2012808D0002100980F9BC0E947
:101980000021C0E90243BDE8FF9F6FEA0B01F4E7C5
:10199000A1F2FF3144F6105041430D140F98012875
:1019A0000ED0A5EB0B00401C4FF000043E4EDFF8BC
:1019B000FC90B0F1000AA04605DACAF1000717E072
:1019C000CBF10000F0E7074612E0F80707D0224607
:1019D000334640464946FFF7F0FD80468946224699
:1019E000334610461946FFF7E8FD04460E467F10C1
:1019F000002FEAD1DDE90201BAF1000F42464B4661
:101A000002DAFFF7DAFD01E0FFF749FE04460E4671
:101A10000022274BFFF7CAFE03D84FF0FF300146E4
:101A200007E00022234B20463146FFF71FFDFFF75A
:101A3000A5FE102409E0002C0ADB0A220023FFF790
:101A4000E4FC019B30321A55641E50EA0102F2D1C7
:101A5000641C019AC4F1110314440F9A012A09D09D
:101A60000122084301D15B450FDD4FF0000205F173
:101A700001050DE0084303D1A3EB0B056D1E09E042
:101A800000204FF0110B0F9088E701DA00226D1E45
:101A9000002A83D000980F99C0E90231C0E90045BF
:101AA00071E7000030000000000024400000F03F1B
:101AB0000000F0430000E03F10B5002A06DA22F0F3
:101AC0000042D21D22F00703102203E0D21C22F0B4
:101AD00003030C2213B19C188C4201D9012010BDC4
:101AE000024401448360C0E90021C91AD018884229
:101AF00002D810600246F9E70020106010BD000017
:101B00002DE9FF4F95B09B4689460646002512E217
:101B1000252878D10024761CF94A2746012105940E
:101B20003378203B01FA03F0104202D00443761CC4
:101B3000F6E730782A2811D06FF02F033078A0F123
:101B40003002092A16D8059A44F0020402EB8202F8
:101B500003EB42021044761C0590EFE759F8042B82
:101B60000592002A03DA504244F40054059044F0F0
:101B70000204761C30782E2816D116F8010F44F096
:101B800004042A280DD06FF02F023078A0F1300322
:101B9000092B09D807EB870302EB4303C718761C10
:101BA000F3E759F8047B761C30786C280FD006DCFC
:101BB0004C2817D068280DD06A2814D104E0742866
:101BC00010D07A280FD10DE044F400140AE044F458
:101BD000801401E044F440147278824202D1761CF1
:101BE00004F58014761C307866280BD013DC582856
:101BF00077D009DC002875D04528F6D04628F4D0E7
:101C000047281AD19FE118E0632835D0642879D09D
:101C1000652812D197E1702873D008DC6728F1D0CD
:101C200069286FD06E280DD06F2806D1B5E07328D3
:101C30002CD0752875D0782874D05A4617999047BB
:101C40006D1C76E1C4F30250022809D003280DD0A0
:101C5000D9F8001004280DD00D6009F1040968E1DD
:101C6000D9F80010EA17C1E90052F6E7D9F80010D8
:101C70000D80F2E70D70F0E719F8041B8DF80010E5
:101C800000208DF80100EA46012003E059F804AB7A
:101C90004FF0FF3061074FF0000102D40DE008F172
:101CA00001018846B9420FDA8045F8DB1AF80810BE
:101CB0000029F4D108E008F1010188468142FADBED
:101CC0001AF808100029F6D105985B46A0EB080722
:101CD00021463846179A00F09EFA284400EB080582
:101CE00007E04DE02BE10DE01AF8010B5A46179979
:101CF0009047B8F10108F7D25B4621463846179A5B
:101D000014E142E00A220092C4F302524FF0000AAA
:101D1000022A08D059F804CB032A4FEAEC710AD002
:101D20000DE029E02AE009F1070121F00702F2E8BD
:101D300002C1914609E00FFA8CFC4FEAEC71042ACB
:101D400003D14FFA8CFC4FEAEC71002907DA0A46FE
:101D50000021DCF1000C61EB02012D2202E02205E2
:101D600004D52B228DF80420012203E0E20701D0E4
:101D70002022F7E7904653E00A2102E010220DE00E
:101D800010214FF0000A00910BE010224FF0000AE2
:101D900044F004040827009203E008224FF0000AF0
:101DA0000092C4F30252022A05D059F804CB002154
:101DB000032A08D009E009F1070121F00702F2E83F
:101DC00002C1914605E01FFA8CFC042A01D10CF0F7
:101DD000FF0C4FF00008220722D5702827D0009B67
:101DE00083F0100353EA0A0309D15CEA010206D02A
:101DF00030228DF804208DF8050002229046009BC9
:101E000083F0080353EA0A030AD15CEA010201D114
:101E1000620705D530228DF804204FF001087F1E9F
:101E2000582809D037A003900EA8029013E0402252
:101E30008DF804200122E1E737A0F4E7534660461D
:101E4000009AFFF7E2FA84460398825C0298A0F1B8
:101E50000100029002705CEA0100EFD1029806A92D
:101E6000A1EB000000F1200A600702D524F48034C1
:101E700000E00127574502DDA7EB0A0000E0002043
:101E800000EB0A01009005984144A0EB0100059089
:101E9000E00306D45B462146179A059800F0BBF98B
:101EA0000544002706E001A85A46C05D17999047EF
:101EB0006D1C7F1C4745F6DBE0030CD55B462146D5
:101EC000179A059800F0A7F9054404E030205A4617
:101ED000179990476D1C0099481E00900029F5DC69
:101EE00008E0029802995A460078491C0291179915
:101EF00090476D1CBAF10001AAF1010AF1DC6BE117
:101F000009280100303132333435363738396162CF
:101F10006364656600000000303132333435363793
:101F200038394142434445460000000000F060F962
:101F3000054406F10106307800287FF4E9AD19B0B8
:101F40002846BDE8F08F620700D4062709F1070292
:101F500022F0070CFCE80223E14603F000485FEAA8
:101F6000080C02D00FF27C2C0DE05FEA045C02D575
:101F70000FF2742C07E05FEAC47C02D00FF26C2CE5
:101F800001E0AFF2700C4FF0FF3823F00043CDF8C2
:101F900050C065280CD006DC452809D046281DD045
:101FA00047283ED13EE0662818D0672839D139E06D
:101FB0000021112F01DB112000E0781CCDE9000188
:101FC00006A90EA8FFF7CAFCDDE90F010E9A0391DE
:101FD0000021009207F1010A04914EE04FF0004009
:101FE0000097CDE9011006A90EA8FFF7B7FCDDE9BF
:101FF0000F0203920E9B11990022DDF80CA00093B2
:10200000049219B907F1010100EB010AB7EB0A00CC
:1020100004D4C0F1FF3007F1010A0490AAEB0700D5
:10202000019046E0012F00DA01270021112F01DD88
:10203000112000E03846CDE9000106A90EA8FFF7FF
:102040008DFCDDE90F010E9A0391002104910092AD
:10205000BA4621070CD40399514500DA8A46BAF1F1
:10206000010F05DD009AAAF10101515C302908D069
:10207000B84202DA10F1040F06DA0121CDE90110AD
:1020800017E0AAF10101E9E7002805DC0499014401
:102090000491AAEB000102E0411C514500DD8A4693
:1020A0000499A0EB010000F1010001904FF0004005
:1020B0000290200704D40198504501DBCDF804803C
:1020C00000208DF84F0002980DF14F07B0F1004F3E
:1020D00025D02B200E9002984FF0020800280CDA31
:1020E000404202902D200E9007E00A210298FFF74F
:1020F00076F93031029007F8011DB8F10001A8F11E
:102100000108F2DC02980028EFD1791E0E980870C1
:10211000307800F0200040F0450007F8020D12A8CA
:10212000A0EB070000F107081498007800B1012027
:1021300000EB0A01019801EBE07105984144A0EB26
:102140000100A0F101000590E00306D45B462146A2
:10215000179A059800F05FF805441498007820B1AC
:102160005A461799904705F10105E00323D55B46D0
:102170002146179A059800F04EF805441BE0049894
:10218000002807DBDDE90301884203DD0098405C9D
:10219000179901E0179930205A46904704986D1C12
:1021A000401C04900198401E019004D12E205A46F4
:1021B000179990476D1CBAF10001AAF1010ADEDC03
:1021C00005E017F8010B5A46179990476D1CB8F1B6
:1021D0000001A8F10108F4DC5B462146179A059836
:1021E000A4E600002D0000002B00000020000000ED
:1021F0002DE9F041044600251E461746880405D403
:1022000006E039462020B04705F10105641EF8D5E7
:102210002846BDE8F0812DE9F041044600251E4620
:102220009046C80301D5302700E02027880405D553
:1022300006E041463846B04705F10105641EF8D571
:102240002846BDE8F081000008480068C0010BD5B1
:1022500007480068C00707D0054880380068002894
:1022600002DA04490120087070470000FCED00E02C
:10227000800E00E0460000204FF06042D36F002B3C
:10228000FCD0C36AD367D36F002BFCD0C07840EA80
:102290000120A2F87C0070474FF06041CA6F002A0D
:1022A000FCD081F87C00704738B504468DF80000FA
:1022B00069460320ABBE204638BD70B504000D460C
:1022C00003D012B92078012801D0802070BD2046AB
:1022D00000F060FA28B12946204600F02DF80020D1
:1022E00070BD812070BD000010B5044680890028B3
:1022F00021D0608904EB80000069086060780228C2
:1023000005D10021204600F099FB00F087FB04F185
:102310000C0000BFD0E85F1F491EC0E8521F002A12
:10232000F8D16089401C80B26081E189884201D186
:1023300000206081042010BD10B500F07FFBBDE8D7
:10234000104000F06BBB0000EFF3058109B1822063
:102350007047DFF808C000DF70470000492F000811
:10236000EFF305820AB182207047EFF31482144B19
:1023700012F0030206D0012A1BD0022A11D0032A30
:1023800019D113E0EFF3088282F309881A78D20793
:102390000AD0022282F31488BFF34F8FBFF36F8FEE
:1023A00009E01A78D20706D10322F3E71A78D20798
:1023B00001D0FF207047DFF80CC000DF704700003D
:1023C000D03100085D2F00082DE90E40EFF30582A3
:1023D000B2B102004FF0800000D021B10090DDE9E1
:1023E000011203B000BD11780129F7D101A91046EF
:1023F000FFF77AFF042801D00020EFE71020EDE777
:10240000DFF804C000DFECE755300008EFF3058289
:102410000AB100207047DFF808C000DF70470000F5
:1024200091300008DFF80CC000DFDFF80CC000DFDF
:10243000FEE70000013100081D310008DFF804C08C
:1024400000DF704755310008094C4FF0FF35294631
:102450002068FFF7B9FF02460846102AF7D1FFF7B8
:10246000EDFF0028F3D0024608469047EFE7000052
:10247000200000204FEA000151E8000F28B1036856
:1024800041E80032002AF7D17047BFF32F8F704721
:1024900010B568B161B10B3121F0030201684468E5
:1024A0000B1A1B1B934205D2084609680029F5D177
:1024B000002010BD3CB121180368C1E90032016061
:1024C00001F1080010BD4260083010BD70B50C4627
:1024D000002812D04FF6FF71084D884204D22A68B6
:1024E0000146104600F0D6FA28684470044800F00F
:1024F000D7F8BDE8704000F08FBB70BD38000020F9
:10250000840000200F4810B50D4942680E480B6842
:102510000088934204D00A60CB88421E1A448A8005
:102520008A8882420AD100200860064800F0B8F884
:102530000146BDE81040034800F0DABA10BD0000C3
:1025400048000020840000204400002070B5194D90
:10255000E86800282CD0A88A401EA882002621E026
:10256000A06838B161684160606810B1A16881609D
:102570006660A6600F482146183800F0B9FAA08AB4
:10258000A8826078042804D10B49E08A09880844AD
:10259000A08201206070E068E860E06808B1056131
:1025A000E6602661A88A002802D1EC68002CD7D109
:1025B00070BD00009C0000204400002070B50400A5
:1025C0000FD00D4DA17801262868827891420CD950
:1025D00000F0AAFA286846702046BDE8704000F076
:1025E0001BBB064800F05CF8F7E766702146BDE8C3
:1025F0007040024800F07CBA3800002084000020BF
:102600000321FFF763BF000010B50446008B0843A9
:1026100020836278618B062A18D0052A19D10842D6
:1026200017D001EA0002628388432083204600F02D
:102630009BFA01206070628B0821204600F08CFA22
:102640002146BDE81040034800F052BA31EA0002CA
:10265000EAD010BD84000020814202D342688A4241
:1026600001D80120704750E8002F0A6040E80012AE
:10267000002AF8D10020704768B161B10839002202
:1026800002E00246006830B18842FAD12AB10068FF
:102690001060002070470120704700214160F8E77A
:1026A0000146406842684A600B780022022B05D040
:1026B000012B03D0032B01D04260704743680BB15C
:1026C0009960426082607047810700D000207047A7
:1026D00070B5044600201546207001226270A1707A
:1026E0006060A060E0602061A082E082208360835F
:1026F00084F82000608C18B90448FFF7BBFEA06284
:1027000029462046BDE8704000F01CB8600100106A
:1027100008B1082901D2012070470144091F002295
:1027200001600A60426010467047000003480021C3
:10273000016003490968C18070470000480000201B
:10274000C831000810B5428C920803D10F4A1268B4
:10275000C2F38D02836A03EB8202530700D5121F76
:10276000403A4FF08073C2E90E1300234FEA03048E
:1027700042F823405B1C0E2BFAD3C36913624262FA
:10278000C162806A0249016010BD0000C4310008C6
:10279000A52E5AE2C1898089081A70470122027069
:1027A000002242708270426002814281103982812F
:1027B0008908C181704700002DE9F0410446407846
:1027C00000270E464FF00108012855D004F10C05F2
:1027D00002282BD0032818D0A089E189884262D230
:1027E000208904EB80000661D5E85F0F401CC5E836
:1027F000510F0029F8D12089401C80B22081E18945
:10280000884200D12781BDE8F0810846FFF732FEFB
:102810000600F8D02046FFF743FF0546606800B980
:1028200067703146284600F091F931E02046FFF705
:1028300037FF0646606800B967700021304600F037
:1028400085F92189F06904EB81010861D5E85F0F02
:10285000401CC5E8510F0029F8D12089401C80B2E6
:102860002081E189884200D1278186F801803046A5
:1028700000F07AF9314611E02046FFF711FF0546D6
:10288000606800B9677032461021284600F064F98C
:1028900085F80180284600F067F92946BDE8F04137
:1028A000034800F025B9BDE8F0410320FDF74EBE16
:1028B0008400002070B50446808915460026C8B300
:1028C000608904EB8000006908606089401C80B268
:1028D0006081E189884200D16681607802280AD04F
:1028E00014F10C04D4E85F0F401EC4E8510F002916
:1028F000F8D1002070BD2046FFF7D2FE0546606883
:1029000000B966700021284600F020F92189E869A5
:1029100004EB810108612089401C80B22081E1899B
:10292000884200D12681284600F01EF92846FFF78C
:1029300045FEDEE7FFE73DB10A48626801682AB15B
:10294000204600F0D5F807E0012070BD6160006806
:10295000C0E901640120607008212846FFF7B6FD38
:10296000F2E7000038000020411C13D00B4A4FF65C
:10297000FE7190420CD800EB4002C2EBC012084836
:10298000036803EBC202521EB2FBF3F0884200D987
:10299000084670474FF6FF707047000000093D0081
:1029A000D431000870B51A4801210068417000F068
:1029B000BBF8184D6C7816E005EBC4014868027846
:1029C000E2B1012A1FD000F0FBF8E878641C8442D1
:1029D00000D100240F48801CD0E84F1F491EC0E8DA
:1029E000421F002AF8D1A8780028E5D16C700A4867
:1029F000FFF756FEBDE8704000F00EB9896889B255
:102A0000FFF702FEE1E78968FFF7D6FEDDE7000089
:102A100038000020901A001084000020054801783A
:102A200011B101214170704703494FF08050086097
:102A3000704700004000002004ED00E0F0B4144BAB
:102A40009C1CDD784FEA030CD4E84F2FAA4202D138
:102A5000BFF32F8F0EE0521CC4E8462F002EF3D197
:102A6000DCE84F2F541CAC4200D10024CCE8464F88
:102A7000002EF5D1DC78944205D903EBC202C2E9FD
:102A80000101F0BC7047F0BC0220FDF75FBD000003
:102A9000901A0010154A10B5D368FBB113469B8AF3
:102AA00009E000BFD2F80CC0BCF1000F16D0BCF892
:102AB0001440624623448B42F4D3D468C460D0608F
:102AC0000261D0F80CC0BCF1000F01D0CCF81000AE
:102AD000591A8182908A401A908210BD0024C460E5
:102AE000D060C91A02619182848210BD9C000020CE
:102AF00010B502780023022A03D0012A01D0032A4C
:102B000000D1012391F802C000E01046426812B1E2
:102B100094786445F9D24A6041601BB102B191607A
:102B2000886010BD0020FBE703494A68426000222C
:102B300082604860704700008400002090F82010F8
:102B4000406A09B1603070472030704710B50C46BC
:102B5000FFF7F4FF046010BD70B50C461546FFF793
:102B6000EDFFC0E9004570BD10B5016900290ED028
:102B7000C268CA60C36800223BB18B8A848A23443E
:102B80008B82C3681961C26000E08A82026110BD55
:102B9000816839B142684A604168002901D0806883
:102BA00088607047054906E04A68824202D1406861
:102BB0004860704711460029F6D170478400002014
:102BC00010B5416881B1FFF76BFD0446FFF7CCFFFC
:102BD0000120607001462046FFF7B8FF2146BDE89E
:102BE00010400348FFF784BF4188491C418010BD55
:102BF0008400002006480068D0E90910814203D310
:102C000000680449884202D00120FDF79FBC70474C
:102C100038000020A52E5AE207490222486042707F
:102C2000064A1278002A05D006C98A4202D0C07826
:102C3000FFF732BB7047000038000020460000203C
:102C40002DE9F04104460D469046FFF7FDFA0020BD
:102C500006463849384B02E041F82060401C1A888B
:102C60009042F9D33548302201883548FEF724FFD9
:102C70003448006880B240F000423348016833486D
:102C8000FEF71AFF32480822018832480068FEF732
:102C900013FF314FFF20314AF8707E8400213846FF
:102CA000FFF716FD2E480421017046602D48017083
:102CB000C66006618682786A2030FDF773FA2A487A
:102CC0002B49076002207870284806704670097802
:102CD000C170284801684FF0E020416186610721FA
:102CE000016125480168254A1143016000682249B5
:102CF00000F07F40C0431439B0FA80F00968C0F199
:102D00000800C1F30221814200DB481C1A49091F57
:102D10000B686FF08072824063F317020A60FFF75E
:102D200005FD424629462046BDE8F041002300F05B
:102D30006DB80000141B0010C0310008DC31000821
:102D400000000010C4310008E031000860010010EC
:102D50000432000818000020540000204905000833
:102D6000840000209C00002038000020901A0010F1
:102D7000E8310008CC31000820ED00E00000FFFF42
:102D80000B4810B5006801214170FFF7CDFEFFF739
:102D9000B9FB08490888401C0880FFF7D7FB00F002
:102DA000E5F90548FFF77CFCBDE81040FFF734BFAC
:102DB000380000204400002084000020002805D0B6
:102DC000810702D10178002900D00020704700005F
:102DD00030B50D4C0023226808E000BFB2F808C0EF
:102DE0008C4505D813461268A1EB0C01002AF5D1D9
:102DF00089B20260018112B11589691A11810BB182
:102E0000186030BD206030BD340000202DE9F04155
:102E1000804616461F460D4611F0FF0F00D14D1C8F
:102E20001648FFF727FB040026D0280AA662608414
:102E3000E9B242462046E761FFF74AFC0125104807
:102E4000104905E000EB850252F8042C22B16D1CFC
:102E50000A889542F6D9002500EB850040F8044C1D
:102E60000948E570007818B101212046FFF704FAFF
:102E70002046FFF7A3FB2846BDE8F08100000010C4
:102E8000141B0010C0310008460000202DE9F0415D
:102E9000244C234F244B22680026D17808B181426C
:102EA00018D103EB8100567040F8046C1F48916AFA
:102EB000FFF7D2FB20688662397811B10021FFF755
:102EC000DBF91B482168FFF7C7FB00202660FFF7EE
:102ED00075FB1FE01749098888421ED803EB80055F
:102EE00055F8044CCCB12046FFF752FE2046FFF7C0
:102EF0003BFE45F8046C0D48A16AFFF7ADFBA662E6
:102F0000387818B100212046FFF7B6F92146084865
:102F1000FFF7A2FB0020BDE8F081FF20FBE70000E7
:102F20004600002038000020141B00106001001033
:102F300000000010C031000802480068002800D0DE
:102F4000C07870473800002010B5002805D0FFF782
:102F50000BFD80B2FFF754FB402010BD70B504009C
:102F60000D4608D0206830B1B4F9040010F1030F09
:102F700001DB032801DD862070BD244E306840B19E
:102F8000204600F085F8A0B100F0BAF800F0C6F8CD
:102F900037E01F4840070CD11E4801681C48FFF766
:102FA000B7FB30B9E16831B11948FFF771FA020097
:102FB00002D1852070BD0022B4F90400E168001D33
:102FC00040EA01212068FFF73BFE7068D8B1C07865
:102FD000114901EB800050F8040C3060416A0D6229
:102FE000406A0E49416300210D4800F021F80D4967
:102FF000086000210C4800F04BF80C4908600020E4
:103000003060002070BDFF2070BD0000380000203F
:1030100030140010E4310008141B001025240008AF
:10302000FC31000820000020EC3100081C000020CA
:1030300010B5040005D0216819B1606808B10278A4
:103040000AB1002010BD8900103189B2FFF7A6FB3C
:10305000606810BD3EB504000D464FF0800012D0F0
:10306000217801290FD12846FFF77EFC82B201A901
:103070002046FFF71FFC012801D0102003E00DB10E
:10308000402000E00020DDE9011203B030BD000067
:1030900070B504000E462BD0206848B3B4F9040084
:1030A00010F1030F24DB032822DCE16829B1114869
:1030B000FFF7EEF9050015D000E00025B4F9040093
:1030C000E168001D40EA012133462A462068FFF7E7
:1030D0009DFE40B1084901EB8000084950F8040CFE
:1030E000426A516370BD1DB129460248FFF7C4FA18
:1030F000002070BD30140010141B0010252400089F
:1031000010B5FFF719FF002804D0034901EB800038
:1031100050F8040C10BD0000141B001070B5FFF730
:103120004DFE040003D0608C18B1A56A02E0802037
:1031300070BD0025E078FFF7A9FEFF2806D01DB17D
:103140000348A16AFFF798FA002070BD812070BD86
:103150003014001010B5FFF7B7FA20B101690A6802
:10316000C168104610BD0020014610BD2DE9F04198
:10317000114E3468002C18D02089104F401E208139
:103180004FF001080EE025462468346000222946ED
:103190003868FFF792F86879012808D085F804802C
:1031A000002C02D020890028EDD0BDE8F08169898B
:1031B0002846FFF70DFEF3E7340000202000002032
:1031C0000700000020030201050001003F900200FB
:1031D00001000000E8030000000000005C010000A6
:1031E000D012000060060000100000004924000812
:1031F00002000000010000002003000004000000A5
:10320000301B001000000000510500080000000005
:103210000100000020030000A505000800000000D8
:103220000100000000000000DD05000800000000B3
:10323000010000000000000075060008000000000A
:1032400001000000000000007832000800000020AB
:10325000540000003C1900087832000800000010FB
:10326000501B00004C190008CC320008540000200C
:10327000640400004C190008007A030A00000000F2
:103280000000000001020304060708090000000016
:10329000000000000000000000000000000000002E
:1032A00001020304010203040607080900000000EC
:1032B000000000000000000000000000000000000E
:0C32C00000000000000000000000000002
:040000050800018965
:00000001FF
