:020000040800F2
:1000000018050020250500082D0500082F0500080B
:100010003105000833050008350500080000000020
:1000200000000000000000000000000009020008BD
:100030003905000800000000AD0200080D030008AB
:100040003F0500083F0500083F0500083F05000880
:100050003F0500083F05000843060008BD180008DA
:100060003F0500083F0500083F0500083F05000860
:100070003F0500083F0500083F0500083F05000850
:100080003F0500083F0500083F0500083F05000840
:100090003F0500083F0500083F0500083F05000830
:1000A0003F0500083F0500083F0500083F05000820
:1000B0003F0500083F0500083F0500083F05000810
:1000C0003F0500083F0500083F0500083F05000800
:1000D0003F0500083F0500083F0500083F050008F0
:1000E0003F0500083F0500083F0500083F050008E0
:1000F0003F0500083F0500083F0500083F050008D0
:100100003F0500083F0500083F0500083F050008BF
:100110003F0500083F0500083F0500083F050008AF
:100120003F0500083F0500083F0500083F0500089F
:100130003F0500083F0500083F0500083F0500088F
:100140003F0500083F0500083F0500083F0500087F
:100150003F0500083F0500083F0500083F0500086F
:100160003F0500083F0500083F0500083F0500085F
:100170003F0500083F0500083F0500083F0500084F
:100180003F0500083F050008DFF814D004F048FBE5
:100190000021024806F08EF9FEE70000E476000830
:1001A0001805002080F309887047684680F30988A5
:1001B00004480078C00714BF0220032080F314888D
:1001C00070470000AC760008DFF818C0EFF3058335
:1001D0001B0618BF6047EFF31483DB0708BF6047B7
:1001E00000DF7047A5660008DFF818C0EFF305834D
:1001F0001B0618BF6047EFF31483DB0708BF604797
:1002000000DF704741690008EFF30980816911F848
:10021000021C002933D190E80F1010B5E047BDE86B
:100220001040EFF3098C8CE807001D4B93E80600A3
:10023000914208BF704781B11EF0100F06BF2CED30
:10024000108A0120002081F820002CE9F00FC1F86D
:1002500024C00CB406F07CFE0CBC1A60D2F824C09A
:10026000BCE8F00F92F8200000281ABFBCEC108AFE
:100270006FF0120E6FF0020E8CF30988704710B504
:10028000084A1268914209D8074C54F8214090E876
:100290000F10A047EFF3098C8CE80F0010BD000091
:1002A00090000020A8480008A848000810B506F0F3
:1002B000EDFCBDE81040174B93E80600914208BFE3
:1002C0007047EFF3098C1EF0100F06BF2CED108A5B
:1002D0000120002081F820002CE9F00FC1F824C093
:1002E0000CB406F035FE0CBC1A60D2F824C0BCE891
:1002F000F00F92F8200000281ABFBCEC108A6FF0B3
:10030000120E6FF0020E8CF30988704710B506F0DC
:10031000E5FECEE7900000200CB500200190009093
:100320007548006840F480307349086000BF724827
:10033000006800F4003000900198401C0190009883
:1003400018B90198B0F5A06FF1D16B48006810F4AE
:10035000003F02D00120009001E0002000900098B2
:10036000012845D164484030006840F0805062491F
:10037000403108606148006840F480405F4908608F
:100380005D48083000685C4908310860084600682C
:1003900040F4004008600846006840F4A05008603F
:1003A0005748091F0860081F006840F08070091F47
:1003B000086000BF5048006810F0007FFAD040F29B
:1003C0000560504908604C480830006820F0030080
:1003D0004949083108600846006840F0020008609A
:1003E00000BF45480830006800F00C000828F8D12C
:1003F0000CBD10B54448006840F4700042490860E4
:100400003D48006840F001003B49086000203A493F
:1004100008310860384800683C490840364908609F
:100420003B48091D0860081F006820F48020091F50
:100430000860002030490C310860FFF76DFF4FF075
:10044000006031498039086010BD70B5002000227D
:10045000022300240221284D08352D6805F00C00E8
:1004600020B1042806D0082834D107E0294D2A4EAF
:10047000356033E0294D284E35602FE01E4D2D1D8F
:100480002D68C5F380541C4D2D1D2D6805F03F01CE
:1004900054B1224DB5FBF1F5174E361D3668C6F343
:1004A000881605FB06F209E01A4DB5FBF1F5124E70
:1004B000361D3668C6F3881605FB06F20E4D2D1D57
:1004C0002D68C5F301456D1C6B00B2FBF3F5124EB0
:1004D000356003E00F4D104E356000BF00BF064D84
:1004E00008352D68C5F303150D4E705D0A4D2D6856
:1004F000C540094E356070BD0038024000700040B4
:1005000008544007003C024088ED00E0FFFFF6FE83
:10051000103000240024F4000000002000127A00B3
:10052000040000200648804706480047FEE7FEE733
:10053000FEE7FEE7FEE7FEE7FEE7FEE7FEE7FEE793
:10054000F30300088901000800BFFEE700BFFEE7D3
:1005500000B585B00121084602F05AFC012188034C
:1005600002F09AFC03A802F055FA00208DF8100062
:100570000120039000208DF8130003A9384802F0F1
:1005800001FA0021084602F089FF012001900020B5
:100590008DF8080008208DF8090001208DF80A0068
:1005A00001A802F001F906208DF8000001208DF865
:1005B000010002208DF8020001208DF8030068463A
:1005C00001F03FFE05B000BD0121264805F0C8FF3F
:1005D00025490860FFF7BCFF01F0ADFA0021234870
:1005E00006F020F8224908600021224806F01AF897
:1005F0000021214806F016F81B49204806F012F8A1
:100600001F49086018491F4806F00CF81E49086089
:100610001B4800681D4908601B480068486003E0EB
:100620004FF0FF3005F03AFFFAE710B517490868B8
:10063000052105F0D1FF15494868042105F0CCFFDC
:1006400010BD10B5012002F015F938B1FFF7EDFF2C
:10065000642001F031FA012002F01DF910BD000004
:1006600000000240F47600082400002038770008DB
:1006700040000020F8760008087700081877000886
:1006800038000020287700083C00002030000020BF
:100690001CB540208DF8000000208DF801000720D7
:1006A0008DF8020000208DF803008DF804006846E4
:1006B00000F052FD1CBD000000B58DB00121080204
:1006C00002F0EAFB0121042002F0A2FB01A802F0E3
:1006D000A1F91020019001208DF8080003208DF869
:1006E000090000208DF80A008DF80B0001A92948A7
:1006F00002F048F91021274802F0C0F910212548DE
:1007000002F0BEF901221021224802F0BBF91621A5
:10071000204802F0BCF90020039004900590069058
:1007200003A801F035FE002007908DF820008DF819
:10073000210009900B9001208DF8300007A9164880
:1007400001F0F7FD0121144801F03EFE012001F007
:1007500059FE0623012210210F4801F075FE0DB04D
:1007600000BD10B50C4801F0CBFE00BF02210A48C5
:1007700001F0E8FF0028F9D0074801F0FDFE022152
:10078000054801F0E8FF044801F0F6FE0446204663
:1007900010BD000000000240002001401CB50121F6
:1007A000082002F035FB684602F034F940F2FF7091
:1007B000009001208DF8040003208DF80500002032
:1007C0008DF806008DF807006946FB4802F0DAF85C
:1007D0001CBD70B505460C46002D05DB0C2D03DC59
:1007E000012C01DB032C00DD70BD032C11D1012293
:1007F0001102F14802F046F900224FF40071EE4870
:1008000002F040F900224FF48061EB4802F03AF91F
:1008100022E0022C0FD10022E101E74802F032F978
:1008200001225102E44802F02DF900226102E2485F
:1008300002F028F910E000224FF48071DE4802F047
:1008400021F900224FF40071DB4802F01BF901226C
:100850009102D94802F016F90D2D7CD2DFE805F09F
:1008600007305984ADD6FEFDFCFBFAF9F8000122F1
:100870001146D14802F006F901220221CE4802F0C9
:1008800001F901220421CC4802F0FCF800220821E1
:10089000C94802F0F7F801221021C74802F0F2F827
:1008A00001222021C44802F0EDF801224021C24873
:1008B00002F0E8F800228021BF4802F0E3F8F9E1F5
:1008C00000220121BC4802F0DDF800220221BA48D2
:1008D00002F0D8F801220421B74802F0D3F8002230
:1008E0000821B54802F0CEF800221021B24802F0EB
:1008F000C9F801222021B04802F0C4F800224021AA
:10090000AD4802F0BFF800228021AB4802F0BAF8EF
:10091000D0E100220121A84802F0B4F8012202210E
:10092000A54802F0AFF801220421A34802F0AAF87A
:1009300001220821A04802F0A5F8012210219E48BA
:1009400002F0A0F8002220219B4802F09BF801222F
:100950004021994800E0ACE102F094F800228021A7
:10096000954802F08FF8A5E100220121924802F09B
:1009700089F801220221904802F084F80122042122
:100980008D4802F07FF8012208218B4802F07AF8A6
:1009900000221021884802F075F8012220218648A3
:1009A00002F070F801224021834802F06BF8002227
:1009B0008021814802F066F87CE1012211467E48E0
:1009C00002F060F8002202217B4802F05BF801226D
:1009D0000421794802F056F801220821764802F0F5
:1009E00051F800221021744802F04CF80122202115
:1009F000714802F047F8002240216F4802F042F8A7
:100A0000002280216C4802F03DF853E1012211469A
:100A1000694802F037F801220221674802F032F8F3
:100A200000220421644802F02DF8012208216248C6
:100A300002F028F8002210215F4802F023F801227A
:100A400020215D4802F01EF8012240215A4806E0AC
:100A500006E1DCE0B2E085E05BE031E007E002F0D7
:100A600011F800228021544802F00CF822E1012202
:100A70001146514802F006F8012202214E4802F0C8
:100A800001F8002204214C4801F0FCFF012208215A
:100A9000494801F0F7FF01221021474801F0F2FF19
:100AA00001222021444801F0EDFF0122402142486B
:100AB00001F0E8FF002280213F4801F0E3FFF9E068
:100AC000002201213C4801F0DDFF012202213A48C9
:100AD00001F0D8FF01220421374801F0D3FF0022A2
:100AE0000821354801F0CEFF00221021324801F0E4
:100AF000C9FF01222021304801F0C4FF002240211B
:100B00002D4801F0BFFF002280212B4801F0BAFFE1
:100B1000D0E001221146284801F0B4FF0122022151
:100B2000254801F0AFFF01220421234801F0AAFF6C
:100B300001220821204801F0A5FF012210211E48B2
:100B400001F0A0FF012220211B4801F09BFF0122A0
:100B50004021194801F096FF00228021164801F03B
:100B600091FFA7E001221146134801F08BFF0122FB
:100B70000221114801F086FF012204210E4801F0F4
:100B800081FF012208210C4801F07CFF0022102186
:100B9000094801F077FF01222021074801F072FF88
:100BA00001224021044801F06DFF0022802102480B
:100BB00001F068FF7EE00000000C024000220121ED
:100BC000E64801F05FFF00220221E44801F05AFFED
:100BD00000220421E14801F055FF00220821DF48EE
:100BE00001F050FF00221021DC4801F04BFF0022F1
:100BF0002021DA4801F046FF00224021D74801F0C9
:100C000041FF01228021D54801F03CFF52E0002243
:100C10000121D24801F036FF00220221CF4801F025
:100C200031FF00220421CD4801F02CFF01220821D0
:100C3000CA4801F027FF00221021C84801F022FF16
:100C400000222021C54801F01DFF00224021C34899
:100C500001F018FF00228021C04801F013FF29E0B5
:100C600000220121BD4801F00DFF00220221BB48F6
:100C700001F008FF00220421B84801F003FF002220
:100C80000821B64801F0FEFE00221021B34801F011
:100C9000F9FE00222021B14801F0F4FE002240219B
:100CA000AE4801F0EFFE00228021AC4801F0EAFEE0
:100CB00000BF99E500BF00BF96E500BF0100A0F1AD
:100CC0000100FBD1704730B52DED068B85B0B0EE3D
:100CD000408A002001900290039004900A24642529
:100CE000B2EE040AB0EE409A08EE900AB5EEC08A61
:100CF000F1EE10FA12D218EE100A03F0CAFA41EC23
:100D0000100BB0EE40AAF0EE60AA53EC1A2B94A0A0
:100D100003F0CCFD05B0BDEC068B30BD9FED990A0C
:100D2000B4EEC08AF1EE10FA42D200EE104AB8EEEC
:100D3000C00AC8EE000ABDEEE00A8DED010A019876
:100D4000604300EE100AB8EEC00A38EE400ABDEE6D
:100D5000C00A8DED020A0A200390BDEEC80AF0EE2B
:100D6000408AB8EEE80A38EE400A20EE090ABDEEE5
:100D7000C00A8DED040A03210198FFF72AFD82487D
:100D8000FFF79BFF02210298FFF723FD7E48FFF744
:100D900094FF02210398FFF71CFD7B48FFF78DFFAE
:100DA00001210498FFF715FD7748FFF786FF3CE027
:100DB00000EE105AB8EEC00AC8EE000ABDEEE00A16
:100DC0008DED010A0198684300EE100AB8EEC00AE2
:100DD00078EE400A00EE104AB8EEC00A80EE801AA3
:100DE000BDEEC10A8DED020A01986843029901FB2C
:100DF000040000EE100AB8EEC00A38EE400ABDEE5C
:100E0000C00A8DED030A03210198FFF7E2FC5E485A
:100E1000FFF753FF02210298FFF7DBFC5A48FFF768
:100E20004CFF01210398FFF7D4FC00BF72E710B517
:100E30000446E2B24FF48041484801F023FE10BD61
:100E400010B504462069F8B105E00120FFF7EFFF77
:100E50006069401E606160690028F6D1FFF7E7FF16
:100E6000D4E90012881AFFF728FFA169A068401A88
:100E7000A060A0686061A068002805DC00202061F7
:100E80000120E060A069A060E06820B305E00120D7
:100E9000FFF7CDFF6069401C6061A168606988420E
:100EA000F5DD0020FFF7C3FFD4E90112881AFFF730
:100EB00004FFA169A0680844A06000206061D4E933
:100EC0000110884207DB012020610020E06060689B
:100ED000A0606068606110BD70B52DED028B84B0BC
:100EE000B0EE408A044600200190029003900A264A
:100EF000BDEEC80A10EE105A002D03DA0B20019047
:100F00006D4201E00C2001909FED1E0AB4EEC08AF4
:100F1000F1EE10FA07D295FBF6F00290029800FB72
:100F20001650039003E004B0BDEC028B70BD012CA1
:100F300004D103210198FFF74CFC0CE0022C04D1F2
:100F400002210298FFF745FC05E0032C03D10121A3
:100F50000398FFF73EFC00BFE5E70000000C0240ED
:100F6000546D6570657261747572653A25662069A5
:100F700073206C657373207468656E207A65726F78
:100F80002E0A00000000C842EB300400704710B584
:100F900004464FF48050EA49086009E0E8490868CF
:100FA000411EE74A116018B9FFF7F0FFC0B210BD4B
:100FB0000221E44802F029FA0028EFD02146E14856
:100FC00002F0ECF94FF48050DD49086009E0DC499B
:100FD0000868411EDA4A116018B9FFF7D7FFC0B29E
:100FE000E5E70121D74802F010FA0028EFD0D548F4
:100FF00002F0D1F9C0B2DAE770B505460E461446E4
:10100000012C01DD46F040060821CF4801F038FDF3
:101010003046FFF7BCFF05E02878FFF7B8FF601EF9
:1010200084B26D1C012CF7DA0821C74801F026FDB7
:1010300070BD00B587B00121080301F02DFF01212B
:10104000084601F0E5FE0121102001F0E1FE01213A
:10105000102001F0DDFE0121102001F0D9FE052253
:101060001146BA4801F019FD05220621B74801F0E2
:1010700014FD05220721B54801F00FFD02208DF86F
:10108000180000208DF81A0002208DF81B008DF842
:1010900019002020059005A9AC4801F073FC8020C0
:1010A000059005A9A94801F06DFC4020059005A90F
:1010B000A64801F067FCA34801F0E8FF0020ADF866
:1010C0000000ADF80400ADF80600ADF808004FF4DC
:1010D0000070ADF80A000820ADF80C000020ADF853
:1010E0000E000720ADF810004FF48270ADF802003A
:1010F0006946944801F0F0FF0121924802F0CDF8D2
:101100000820059001208DF8180000208DF81A00A5
:1011100002208DF8190005A98B4801F033FC082145
:10112000894801F0ABFC0120059000208DF81800E3
:101130008DF81A0002208DF8190000208DF81B0090
:1011400005A9814801F01EFC0220059005A97E48F2
:1011500001F018FC07B000BD38B50446002000902F
:10116000FFF767FF607821780843E1780843217929
:101170000843A17808430090012220216846FFF728
:101180003BFF38BD70B506460C461546012D02DD05
:1011900044F0C00401E044F0800408216A4801F0F2
:1011A0006FFC2046FFF7F3FE06E00020FFF7EFFE9E
:1011B0003070681E85B2761C002DF6DC082162486E
:1011C00001F05CFC70BD38B504460020009001229F
:1011D00021216846FFF7D6FF9DF8000000F0D000FF
:1011E0000090207861780843A17808439DF80010AA
:1011F00008430090012221216846FFF7FDFE38BD1B
:1012000038B5044600200090012238216846FFF7D7
:10121000B9FF207861780843A17808430090012243
:1012200038216846FFF7E8FE38BD38B5044601228C
:1012300020216846FFF7A6FF9DF8000000F0BF00E0
:1012400000909DF800002043009001222021684674
:10125000FFF7D2FE38BD38B504460122202168468A
:10126000FFF790FF9DF8000000F07F0000909DF8D0
:10127000000020430090012220216846FFF7BCFEB9
:1012800038BD38B50446012220216846FFF77AFFB1
:101290009DF8000000F0DF0000909DF80000204362
:1012A0000090012220216846FFF7A6FE38BD08B550
:1012B000012221216846FFF765FF9DF8000040F0FC
:1012C00040000090012221216846FFF795FE08BDED
:1012D0003EB505460024012220216846FFF752FF53
:1012E0000622292101A8FFF74DFF9DF8000010F00C
:1012F000200002D0202820D10FE000240AE001A91C
:1013000011F8140040B200EBC000400028602D1D11
:10131000601CC4B2032CF2DB10E000240AE001A937
:1013200011F8140040B200EBC000C00028602D1D71
:10133000601CC4B2032CF2DB00E000BF00BF3EBD66
:101340004400002000300140001002400000024034
:101350002DED068B86B0FFF7AFF9B0EE080AB0EEC0
:10136000409A9FEDB20AF0EE409A00BF9FEDB00A9E
:10137000B0EE40AA002400200190029004E0002179
:1013800003A820F81410641C052CF8DB29E0FFF7F3
:10139000E8F90546294601A800F033FDB0EE408A81
:1013A00029EE080ADFEDA30AC0EE208A78EEE90AEA
:1013B0009FEDA11AB3EE090A00EE810A9F4880ED65
:1013C000000A90ED000AB4EECA0AF1EE10FA05DD4B
:1013D00002219B48006805F0FFF802E000209949CF
:1013E0000860D4E770B52DED068B8CB0B0EE408A66
:1013F0000020089009900A900B900A24B2EE040A8B
:10140000B0EE409A08EE900A00250026B5EEC08A9C
:10141000F1EE10FA12D218EE100A02F03AFF41EC87
:10142000100BB0EE40AAF0EE60AA53EC1A2B86A087
:1014300003F03CFA0CB0BDEC068B70BD9FED8B0A3F
:10144000B4EEC08AF1EE10FA26D200EE104AB8EEE1
:10145000C00AC8EE000ABDEEE00A8DED080A089841
:10146000604300EE100AB8EEC00A38EE400ABDEE46
:10147000C00A8DED090A0A200A90BDEEC80AF0EEF6
:10148000408AB8EEE80A38EE400A20EE090ABDEEBE
:10149000C00A8DED0B0A00E0CCE77548006870B11A
:1014A00074A104A803F012FA05463C2000F004FBE6
:1014B000294604A800F06BFB00206D4908600B98DA
:1014C000009070A102A8DDE9082303F0FFF90646A9
:1014D0003C2000F0F1FA02A98C2000F06BFB00BF69
:1014E000A8E78EB00121042001F0C5FC01210820ED
:1014F00001F08EFC4FF48040049002208DF814001F
:1015000003208DF8150000208DF8160001208DF8BD
:10151000170004A95D4801F035FA02220E215B484C
:1015200001F0BBFA5A48006840085A49B0FBF1F094
:10153000451E4FF42F700C90A8B2ADF82C0000207F
:10154000ADF83400ADF82E000BA93E483C3802F04F
:101550008AF86020ADF818000120ADF81A000020CC
:101560000890ADF8240006A936483C3802F096F9F8
:10157000082134483C3802F0AEFA012131483C38A9
:1015800002F0DCF801212F483C3802F0F5F8002485
:1015900015E04FF0FF31022005F038F801AB07C32A
:1015A000641C4FF4C87094FBF0F100FB1140C0F5CF
:1015B000C8702449086049F64040FFF77EFBE8E721
:1015C0000EB50446254601260121052005F01EF82A
:1015D0008DE8070029E04FF0FF31286804F0E4FFB0
:1015E000012620E00121052005F010F88DE8070014
:1015F0000098402805D1114890ED000AFFF7F2FE4F
:1016000011E004212448006804F0DAFF00F070FAC9
:10161000002600BF012016490860286804F0ACFFCE
:10162000052004F03BFF002EDCD1D4E75C8F423F65
:1016300000005C4200F07F450000C8434C000020E1
:10164000400000203C080040546D65706572617474
:101650007572653A2566206973206C657373207412
:1016600068656E207A65726F2E0A00000000C8421D
:101670004800002054656D70657261747572653A3A
:1016800000000000256425642E256400000C024043
:1016900000000020406F40013C0000209EB0002070
:1016A0001B901C901D90189019901A9001208C4945
:1016B00008609FED8C0A8C4880ED000A9FED890A36
:1016C0008A4880ED000AFEF7E3FF6420FFF7F5FA91
:1016D00000F046FB6420FFF7F0FA00F007FB6420FF
:1016E000FFF7EBFA00F006FD6420FFF7E6FA04F0DE
:1016F000B1FF7F490860002400201190129004E09F
:10170000002113A840F82410641C052CF8DB0024E9
:1017100000200A900B9004E000210CA840F824104F
:10172000641C052CF8DB002400200390049004E0E6
:10173000002105A840F82410641C052CF8DB6D4836
:10174000FFF7C6FD31E04FF0FF31032004F05EFFEC
:101750008DE807006748016811A800F019FB1B908D
:10176000644841680AA800F013FB1C906148816836
:1017700003A800F00DFB1D9018A91BA800F02CFA7F
:1017800018A800F01BFC584880ED000A18A800F0CB
:1017900081FB564880ED000A57480078012804D1A3
:1017A000514890ED000A00F0F2FCCCE700B52DEDB9
:1017B000048B8BB0B0EE408AF0EE608A4FA103C973
:1017C000CDE909014FA103C9CDE9070118EE100ABF
:1017D00002F05FFD41EC100BB0EE409AF0EE609A23
:1017E00053EC192B49A104A803F070F818EE900AE5
:1017F00002F04FFD41EC100BB0EE409AF0EE609A13
:1018000053EC192B41A101A803F060F8404800688F
:1018100078B100F06DF93C2000F04EF909A9802064
:1018200000F0C8F907A9C02000F0C4F90020384929
:1018300008603C2000F040F904A9852000F0BAF9C6
:1018400001A9C62000F0B6F90BB0BDEC048B00BDB9
:101850000EB50446254601262FE04FF0FF312868DB
:1018600004F0A2FE012601202349087023E0012193
:10187000042004F0CBFE8DE807000098402808D132
:101880001A48D0ED000A184890ED000AFFF78EFFC5
:1018900011E005211F48006804F092FE0026002098
:1018A0001549087001201A490860286804F064FE90
:1018B000052004F0F3FD002ED9D1CEE710B50220AB
:1018C00000F0D8FF50B103210948006804F084FEFD
:1018D0000848FFF7FDFC022000F0DDFF10BD00000E
:1018E000500000200000000064000020680000207C
:1018F0006C000020AC00002054000020526F6C6C83
:101900003A00000050697463683A000025660000E0
:1019100058000020380000201149096811F0010F1B
:101920000ED00F498039096811F0010F08D000BFAF
:101930004FF0604109680029FAD04FF06042107002
:10194000704770B504460D462046FFF7E5FF70BDB1
:1019500010B504462046FFF7DFFF10BD00BFFEE7CD
:10196000800E00E01CB50121082001F051FA684604
:1019700001F050F840F2FF70009001208DF8040053
:101980008DF8050000208DF806008DF807006946E7
:10199000904800F0F7FF012211028E4801F072F822
:1019A0001CBD00E0401E0028FCD1704710B5044665
:1019B00000224FF48071874801F064F82046FFF759
:1019C000F0FF01221102834801F05CF810BD70B5F0
:1019D00088B005460126002406E005EA06004DF819
:1019E00024007006060E641C082CF6DB0098C2B2B8
:1019F0000121784801F046F80198C2B202217548E9
:101A000001F040F80298C2B20421724801F03AF89D
:101A10000398C2B208216F4801F034F80498C2B2AA
:101A200010216C4801F02EF80598C2B220216948B7
:101A300001F028F80698C2B24021664801F022F869
:101A40000798C2B28021634801F01CF808B070BD4D
:101A500010B5044664B900224FF400715D4801F0EE
:101A600011F800224FF480615A4801F00BF80AE0A7
:101A700000224FF40071574801F004F8012291024E
:101A8000544800F0FFFF10BD10B50020FFF7E0FF45
:101A90000620FFF79CFF4CF25030FFF787FF10BD88
:101AA00010B50020FFF7D4FF0220FFF790FF4CF2A3
:101AB0005030FFF77BFF10BD00B5024604E04CF24A
:101AC0005030FFF76EFF521E002AF8D100BD10B54E
:101AD000044600224FF480713E4800F0D3FF2046B8
:101AE000FFF7EAFF012211023A4800F0CBFF10BDD8
:101AF00010B50020FFF7ACFF0120FFF768FF64205E
:101B0000FFF7E5FF10BD10B50020FFF7A1FF0F2084
:101B1000FFF75DFF4FF47A70FFF7D9FF10BD10B5E6
:101B20000020FFF795FF3820FFF751FF4CF25030AF
:101B3000FFF73CFF10BD10B5FFF714FFFFF7EFFFF5
:101B4000FFF7E1FFFFF7D4FF4CF25030FFF729FF1A
:101B5000FFF7A6FFFFF798FF10BD10B50446012060
:101B6000FFF776FF2046FFF732FF4CF25030FFF7C9
:101B70001DFF10BD10B504460020FFF769FF204689
:101B8000FFF725FF4CF25030FFF710FF10BD70B586
:101B900006460C460025FFF7ABFF102C00DB70BD9E
:101BA00004E0705DFFF7D9FF681CC5B2A542F8DB01
:101BB00000BFF4E770B505460C462846FFF7DAFF8C
:101BC00003E02078FFF7C9FF641C20780028F8D1D3
:101BD00070BD0000000C02402DED048BDFED3E9A3D
:101BE000B0EE693AD0ED009AF8EEE99AB0EE690AE3
:101BF000D0ED019AF8EEE99AF0EE690AD0ED029A7A
:101C0000F8EEE99AB0EE691AF7EE009AF0EE691A6A
:101C1000DFED329AF0EE693ADFED2F9AB0EE694AC5
:101C2000DFED2D9AF0EE694ADFED2B9AF0EE695A5E
:101C3000DFED2A9AB0EE696ADFED279AF0EE696A65
:101C4000DFED259AB0EE695ADFED239AB0EE697A9E
:101C5000DFED229AF0EE697ADFED219AB0EE698A23
:101C6000DFED209AF0EE698ADFED1F9AB0EE699AF7
:101C700060EE239A40EEA59A41EE059A41EE889ACD
:101C8000B0EE692A60EE049A40EE869A41EE079A19
:101C900041EEA89AF0EE692A60EE249A40EEA69AE8
:101CA00041EE279A41EE899AB0EE693ADFED0A9A41
:101CB000C1ED009ADFED089AC1ED019ADFED069AB9
:101CC000C1ED029A81ED002AC1ED012A81ED023AAF
:101CD000BDEC048B70470000000000006F12833AD7
:101CE000948785BC4F40933D5BB13F3D00B585B0C7
:101CF0000121102001F08CF80121880301F0CCF8BB
:101D000003A800F087FE00208DF810000220039049
:101D100000208DF8130003A91C4800F033FE0121B8
:101D2000042001F0BBFB0220019000208DF8080088
:101D300008208DF8090001208DF80A0001A800F0A4
:101D400033FD07208DF8000001208DF801008DF88B
:101D500002008DF80300684600F073FA05B000BD7C
:101D60001CB500208DF804008DF805008DF80600E4
:101D700001A8FFF745FA00200090202000900122E2
:101D800022216846FFF738F91CBD00000010024010
:101D9000F0B502460C460020002502F1080617683F
:101DA00046F827401668042E02D10026166002E08D
:101DB0001668761C16605668052E13DA002300217B
:101DC00005E002F1080656F821603344491C5668C4
:101DD0008E42F6DA5668761C93FBF6F05668761C4F
:101DE00056600DE00023002105E002F1080656F8D8
:101DF00021603344491C0529F7DB052693FBF6F0E7
:101E0000F0BD30B50B46DFED220AB0EE600A00F1FE
:101E10000804056824F815300468042C02D1002455
:101E2000046002E00468641C04604468052C19DA4C
:101E30000022002105E000F1080434F8114022449A
:101E4000491C44688C42F6DA4468641CB2FBF4F422
:101E500000EE904AF8EE600AB0EE600A4468641C36
:101E6000446013E00022002105E000F1080434F88A
:101E700011402244491C0529F7DB0524B2FBF4F488
:101E800000EE904AF8EE600AB0EE600A30BD000045
:101E9000000000002DE9F0412DED0E8B04469FED72
:101EA000910AB0EE408A9FED900A10EE105A94ED20
:101EB000000AF0EE408A94ED010A10EE106A94EDEB
:101EC000020A10EE107A304602F0E3F941EC100BF2
:101ED000B0EE40BAF0EE60BA9FED841B02F098FEBF
:101EE000B0EE40AAF0EE60AA51EC1A0B02F0E4F951
:101EF00009EE100A384602F0CCF941EC100BB0EEB6
:101F000040BAF0EE60BA9FED791B02F081FEB0EEB0
:101F100040AAF0EE60AA51EC1A0B02F0CDF909EEDE
:101F2000900A39EE290A10EE101A084602F0B1F9AB
:101F300041EC100BB0EE40BAF0EE60BA03F0B0FC2A
:101F4000B0EE40AAF0EE60AA51EC1A0B02F0B4F920
:101F50000EEE100A284602F09CF941EC100BB0EE90
:101F600040BAF0EE60BA88EE8E0A10EE108A404653
:101F700002F08FF941EC100BB0EE40DAF0EE60DACF
:101F800002F0D2FCB0EE40CAF0EE60CA53EC1B2B5C
:101F900051EC1C0B02F00BF941EC100BB0EE40AA17
:101FA000F0EE60AA51EC1A0B02F086F908EE100A66
:101FB000B0EE480ABDEC0E8BBDE8F0812DE9F04192
:101FC0002DED0E8B04469FED470AB0EE408A9FED43
:101FD000460A10EE105A94ED000A10EE106A94EDC5
:101FE000010AF0EE408A94ED020A10EE107A3046B3
:101FF00002F04FF941EC100BB0EE40BAF0EE60BACF
:102000009FED3A1B02F004FEB0EE40AAF0EE60AA8B
:1020100051EC1A0B02F050F909EE100A384602F0A2
:1020200038F941EC100BB0EE40BAF0EE60BA9FED1B
:102030002F1B02F0EDFDB0EE40AAF0EE60AA51ECCD
:102040001A0B02F039F909EE900A39EE290A10EE5E
:10205000101A084602F01DF941EC100BB0EE40BA20
:10206000F0EE60BA03F01CFCB0EE40AAF0EE60AAFD
:1020700051EC1A0B02F020F90EEE100A284602F07D
:1020800008F941EC100BB0EE40BAF0EE60BA88EE01
:102090008E0A10EE108A404602F0FBF841EC100B5D
:1020A000B0EE40DAF0EE60DA02F03EFCB0EE40CA8C
:1020B000F0EE60CA53EC1B2B51EC1C0B02F077F8CE
:1020C00041EC100BB0EE40AAF0EE60AA51EC1A0BF6
:1020D00002F0F2F808EE100AB0EE480ABDEC0E8BE2
:1020E000BDE8F08100000000E12E65420000000024
:1020F0000000004010B58AB00121022000F0BBFEB4
:102100000121042000F084FE4020089002208DF878
:10211000240003208DF8250000208DF826000120E2
:102120008DF8270008A93F4800F02CFC0222062168
:102130003C4800F0B2FC4FF47A644FF4D270069041
:10214000ADF814400020ADF81C00ADF8160005A94C
:10215000354801F088FA6020ADF800000120ADF8A4
:10216000020000200290ADF80C0069462E4801F0F4
:102170000FFB08212C4801F098FC01212A4801F0AE
:10218000DDFA0121284801F0F7FA0AB010BD0F224C
:1021900000EE902A232201EE102AFDEEC03A13EE43
:1021A000900A0021DFED213AF0EE632ADFED203ABC
:1021B000B0EE633A884203D11B4B34331A602FE0F0
:1021C000B4EEE20AF1EE10FA1DD2FFEE003A60EE34
:1021D000233AB0EE630AF8EE603A23EE804ADFED70
:1021E000154AC4EE243AB8EE604A74EE633AB8EE8B
:1021F000604A73EE841AFCEEE13A13EE902A0A4B21
:1022000034331A600CE0F8EE413AB0EE632A03EE84
:10221000002AFCEEC23A13EE902A034B34331A60C4
:102220007047000000080240000400400000000069
:10223000398E633E0000B44233490143334A116092
:10224000704770B5002100230F22C47824B32F4CAF
:10225000246804F4E064C4F5E064C4F30721C1F128
:102260000404E3B20A4144789C40E1B2847814400B
:1022700021430C07210E264C05786155047804F0A3
:102280001F050124AC4005786D114FF0E02606EBE8
:102290008505C5F8004109E0047804F01F04012514
:1022A000A5401C4C0678761144F8265070BD1A4A99
:1022B0000A400243154B1B1F1A60704739B1134A7D
:1022C000121D12680243114B1B1D1A6006E00F4AD3
:1022D000121D126882430D4B1B1D1A6070470428A3
:1022E00008D14FF0E021096941F004014FF0E022EC
:1022F000116107E04FF0E021096921F004014FF07E
:10230000E0221161704700000000FA050CED00E0CA
:1023100000E400E080E100E080FFFF1F10B5012134
:10232000080200F021FE00214FF4807000F01CFE36
:1023300010BD30B50246002000235068F84C204004
:102340000D790C6844EA0524204350609068F54CF0
:102350002040D1E903542C438D682C434D7944EA45
:10236000450420439060D06A20F470000C7D641E08
:10237000E4B2234340EA0350D06230BD0021016043
:10238000017141718160C160016101210175704776
:102390000021E54A1168E54A01EA0201D0E900237B
:1023A00042EA0302836842EA0302C36842EA030284
:1023B00042EA0101DE4AC2F80413704700210160BD
:1023C00041608160C160704721B1826842F00102C2
:1023D000826003E0826822F00102826070470A4650
:1023E00000214168D34B194011434160704741625D
:1023F000826270470A460021416821F01F011143A3
:102400004160704738B1C849096841F40001C84AC1
:10241000C2F8041306E0C449096821F40001C44A63
:10242000C2F80413704738B1BF49096841F480010C
:10243000BF4AC2F8041306E0BB49096821F48001D1
:10244000BB4AC2F804137047F0B504460D4600209D
:102450000021092D11DDE068A5F10A0606EB46070B
:10246000072606FA07F18843A5F10A0606EB460699
:1024700003FA06F10843E0600CE0206905EB45072C
:10248000072606FA07F1884305EB450603FA06F12D
:1024900008432061072A0FDA606B561E06EB860799
:1024A0001F2606FA07F18843561E06EB860605FA34
:1024B00006F10843606322E00D2A0FDA206BD61F75
:1024C00006EB86071F2606FA07F18843D61F06EBA0
:1024D000860605FA06F10843206310E0E06AA2F1DF
:1024E0000D0606EB86071F2606FA07F18843A2F1C0
:1024F0000D0606EB860605FA06F10843E062F0BD1C
:10250000816841F0804181607047014600208A68FF
:1025100012F4800F01D0012000E00020704721B1AB
:10252000826842F48062826003E0826822F4806202
:102530008260704721B1826842F00202826003E04B
:10254000826822F002028260704710B50A460021BC
:102550000023416821F46041531E41EA4331416048
:1025600010BD21B1426842F40062426003E042685B
:1025700022F40062426070470146C86C80B2704726
:102580006D480068704721B1826842F480728260B1
:1025900003E0826822F480728260704721B1826811
:1025A00042F40072826003E0826822F4007282606A
:1025B000704738B15C49096841F400515C4AC2F87F
:1025C000041306E05849096821F40051584AC2F83A
:1025D00004137047F0B5044615460020002200267B
:1025E000092911DDE068A1F10A0707EB470C07276D
:1025F00007FA0CF29043A1F10A0707EB470703FA29
:1026000007F21043E0600CE0206901EB410C072762
:1026100007FA0CF2904301EB410703FA07F210436B
:102620002061A06BC0F30156EF1C06F1010CA7EB73
:102630000C0707EB870C1F2707FA0CF29043EF1CDF
:1026400006F1010CA7EB0C0707EB870701FA07F26D
:102650001043A063F0BD10B50A4600210023816B32
:1026600021F44011531E41EA0351816310BD08B5A6
:10267000002300930090009B0B440093009B1A6082
:1026800008BD0A460021816821F470211143816050
:1026900070470A460021816821F44011114381608E
:1026A0007047816841F480018160704701460020D5
:1026B0008A6812F4800F01D0012000E000207047EA
:1026C00021B1426842F48062426003E0426822F431
:1026D00080624260704721B1426842F48052426099
:1026E00003E0426822F480524260704708B5024617
:1026F00000200090009201F12800009B18440090F7
:102700000098006880B208BD10B50B460021D9B210
:10271000012404FA01F18AB144680C43446010E0DA
:10272000FFFEFFFCFDF7FFC004230140E030FCFF8B
:1027300000200140FFFD3FFF0823014044688C4317
:10274000446010BD0246002013680B4201D00120F6
:1027500000E000207047CA430260704770B502462F
:102760000020002300240B12556801268E4005EA44
:10277000060415681D4202D00CB1012000E00020C3
:1027800070BD00220A12D343036070470020444901
:102790000860091D0860091D0860091D086041489E
:1027A0003F4914310860704700213D498279002A71
:1027B0003AD00A46126803689A430B461A600A1D0B
:1027C000126803689A430B1D1A60027911440A6863
:1027D00003681A430A60324A0832126803689A434F
:1027E0002F4B08331A601A1D126803689A432C4B4A
:1027F0000C331A604279102A0ED11A1F126803682E
:102800001A43274B08331A601A1D126803681A43CB
:10281000234B0C331A600DE02149427911440A68B8
:1028200003681A430A6005E0027911440A680368E4
:102830009A430A6070470021016001710C214171C7
:102840000021817170471649103109680143144A0B
:1028500010321160704701460020114A143212688C
:102860000A4201D0012000E0002070470C491431D9
:1028700008607047014600200022094B1B6803EAEC
:102880000102074B14331B680B4202D00AB101202E
:1028900000E00020704702491431086070470000D2
:1028A000003C0140FFFF7F0010B504468C48844285
:1028B00008D10121084600F000FB0021012000F0B2
:1028C000FCFA5EE08748844208D10121022000F032
:1028D000F4FA0021022000F0F0FA52E0824884422B
:1028E00008D10121042000F0E8FA0021042000F0C2
:1028F000E4FA46E07D48844208D10121082000F036
:10290000DCFA0021082000F0D8FA3AE07848844246
:1029100008D10121102000F0D0FA0021102000F091
:10292000CCFA2EE07348844208D10121202000F027
:10293000C4FA0021202000F0C0FA22E06E48844250
:1029400008D10121402000F0B8FA0021402000F019
:10295000B4FA16E06948844208D10121802000F0D1
:10296000ACFA0021802000F0A8FA0AE06448844212
:1029700007D10121801500F0A0FA0021A01500F078
:102980009CFA10BDF0B50A4600210023002400BFC8
:102990003DE0012505FA01F3156805EA03049C42B0
:1029A00034D105684F000326BE40B5430560157954
:1029B0004E00B5400668354305601579012D02D0FB
:1029C0001579022D16D185684F000326BE40B54308
:1029D000856055794E00B540866835438560456809
:1029E00001268E40B5434560456896798E40B6B263
:1029F00035434560C5684F000326BE40B543C560FA
:102A0000D5794E00B540C6683543C560491C1029CC
:102A1000BFD3F0BD4FF6FF7101600021017141711C
:102A20008171C171704708B54FF480320092009AED
:102A30000A430092009AC261C161009AC261C269F0
:102A40000092C269009208BD0246002013690B4241
:102A500001D0012000E0002070470146086980B2E3
:102A600070470246002053690B4201D0012000E06C
:102A7000002070470146486980B270470183704763
:102A8000418370470AB1018300E04183704741618F
:102A9000704742694A4042617047F0B50023002404
:102AA0004D07ED0E02FA05F3CE1000F1200555F8A2
:102AB00026504E07F70E0F26BE40B543CF1000F14B
:102AC000200646F82750CE1000F1200555F8265074
:102AD00045EA0304CE1000F1200545F82640F0BD7C
:102AE000000002400004024000080240000C0240C6
:102AF000001002400014024000180240001C024076
:102B000000200240FA48006840F00100F8490860DF
:102B10000020F74908310860F5480068F549084089
:102B2000F3490860F448091D0860081F006820F494
:102B30008020091F08600020ED490C3108607047B3
:102B40000021EB4A921C117011460870704710B5B5
:102B500001460022002300204A11012A02D1E44C40
:102B6000236808E0022A03D1E14C7034236802E0B4
:102B7000DF4C7434236801F01F02012494401C428E
:102B800001D0012000E0002010BD38B500200090E9
:102B90000024002500BF3120FFF7D9FF054600982B
:102BA000401C00900098B0F5A06F01D0002DF2D02D
:102BB0003120FFF7CCFF08B1012400E000242046BB
:102BC00038BD01460020CA4A106820F0F80040EAEB
:102BD000C10010607047C949086070470021C44AAD
:102BE000703211701170012802D004280AD104E05B
:102BF0000121BF4A7032117005E00521BC4A7032D4
:102C0000117000E000BF00BF7047BD490860704709
:102C100070B5049C41EA82150126C6EB530645EACD
:102C20000645054345EA0465B14E361D356070BD65
:102C3000B24908667047820142EA0172AC4B8433A4
:102C40001A607047AD4988667047AC49C8647047E0
:102C500002460020A64B0833186820F0EC6042EAD8
:102C600001031843A24B0833186070470246002046
:102C70009F4B0833186820F0784042EA010318435C
:102C80009B4B08331860704701460020984A083271
:102C9000106820F003000843106070479448083023
:102CA000006800F00C00704701460020904A08328E
:102CB000106820F0F00008431060704701460020C3
:102CC0008B4A0832106820F4E050084310607047C7
:102CD00001460020864A0832106820F4604040EA2D
:102CE000C10010607047F0B50021002200240225C9
:102CF000002602237E4F08373F6807F00C0121B100
:102D0000042905D0082937D105E07E4F076036E059
:102D10007D4F076033E0764F3F1D3F68C7F3805615
:102D2000734F3F1D3F6807F03F036EB1764FB7FB0F
:102D3000F3F7DFF8BCC10CF1040CDCF800C0CCF3F5
:102D4000881C07FB0CF40CE06E4FB7FBF3F7DFF8C1
:102D5000A0C10CF1040CDCF800C0CCF3881C07FB0C
:102D60000CF4634F3F1D3F68C7F301477F1C7D0094
:102D7000B4FBF5F7076002E0624F076000BF00BFD9
:102D80005B4F08373F6807F0F00109095F4F7A5C35
:102D90000768D7404760564F08373F6807F4E0514F
:102DA000890A5A4F7A5C4768D7408760504F083786
:102DB0003F6807F46041490B544F7A5C4768D7403D
:102DC000C760F0BD002100F44072B2F5407F0AD127
:102DD000474A0832116821F4F8114D4A0240114364
:102DE000434A08321160424A70321268C0F30B0342
:102DF0001A433F4B70331A607047414944390860A9
:102E000070473F4940390860704742490860704741
:102E100039B1374A303212680243354B30331A60C9
:102E200006E0334A303212688243314B30331A6045
:102E3000704739B12E4A3432126802432C4B343376
:102E40001A6006E02A4A343212688243284B34332F
:102E50001A60704739B1264A383212680243244B4F
:102E600038331A6006E0224A383212688243204B17
:102E700038331A60704739B11D4A40321268024334
:102E80001B4B40331A6006E0194A403212688243F5
:102E9000174B40331A60704739B1154A44321268F3
:102EA0000243134B44331A6006E0114A443212685D
:102EB00082430F4B44331A60704739B10C4A1032C9
:102EC000126802430A4B10331A6006E0084A1032B7
:102ED00012688243064B10331A607047E1B1044A0E
:102EE000143212680243024B14331A6019E00000D6
:102EF00000380240FFFFF6FE103000240000474279
:102F0000800E47420024F40000127A007C0000206A
:102F1000FFFCFF0F5C0147425B4A126882435A4B39
:102F20001A60704739B1584A121D12680243564B55
:102F30001B1D1A6006E0544A121D12688243524B50
:102F40001B1D1A60704739B14F4A0C321268024398
:102F50004D4B0C331A6006E04B4A0C321268824328
:102F6000494B0C331A60704739B1474A1032126826
:102F70000243454B10331A6006E0434A1032126890
:102F80008243414B10331A60704739B13E4A3C329C
:102F9000126802433C4B3C331A6006E03A4A3C322A
:102FA00012688243384B3C331A60704739B1364A55
:102FB000403212680243344B40331A6006E0324A12
:102FC000403212688243304B40331A60704739B147
:102FD0002D4A4432126802432B4B44331A6006E0F8
:102FE000294A443212688243274B44331A6070479F
:102FF00039B1254A4C3212680243234B4C331A60D4
:1030000006E0214A4C32126882431F4B4C331A604F
:10301000704739B11C4A5032126802431A4B503380
:103020001A6006E0184A503212688243164B503339
:103030001A60704739B1144AD21F12780243124BFA
:10304000DB1F1A7006E0104AD21F127882430E4B23
:10305000DB1F1A7070470C486030006840F08070C9
:10306000094960310860704701460020064A083A65
:1030700012680A4201D0012000E000207047024996
:10308000891F0870704700001438024010B50446CC
:10309000F648844208D101218014FFF765FF002122
:1030A000A014FFF761FF16E0F148844208D1012126
:1030B0000014FFF748FF00212014FFF744FF0AE047
:1030C000EC48844207D10121C013FFF73CFF0021E7
:1030D000E013FFF738FF10BD10B50022028802F49C
:1030E00041520B884C8823438C882343CC8823434C
:1030F0000C8923434C8923438C892343CC89234364
:103100001A430280838B4FF2FF74234083830B8A20
:10311000038210BD2DE9F04F002502230024012772
:1031200000220026944690469146B0F81CA04FF22B
:10313000400B0AEA0B0AA0F81CA04FF0020AA0F804
:1031400020A0858BD1F808A0BAF1020F01D100BFF1
:103150006AE0B1F804A0BAF1000F01D1012700E044
:103160000227DFF814A3DAF800A01AF4000F09D040
:10317000DFF804A3DAF800A02AF4000ADFF8F8B2B6
:10318000CBF800A0DFF8F0A20AF17C0ADAF800A080
:10319000CAF38818DFF8E0A20AF17C0ADAF800A086
:1031A000CAF30279DFF8D0A2AAF1040ADAF800A083
:1031B0000AF03F0CDFF8C4A2BAFBFCFA0AFB08FADB
:1031C000BAFBF9F6B1F806A0BAF5007F0ED14FEAC6
:1031D000162A0AEB8A0A4FEA4A0AD1F808B0BAFB63
:1031E000FBFA0AF1050A1FFA8AF20FE04FEA471AC2
:1031F000B6FBFAFA0AEB8A0A4FEA4A0AD1F808B093
:10320000BAFBFBFA0AF1050A1FFA8AF24FF00A0A22
:10321000B2FBFAF202F00104A2EB040ACAF34F0374
:103220004FF6FF7A0AEA0424022B01DBFF2B01DDB3
:1032300002230024B1F806A04AEA040A4AEA030A73
:10324000A0F820A0B1F804A0B1F80CB04AEA0B0A2B
:10325000B1F802B04AEA0B0AB1F800B04AEA0B0A28
:103260004AF4006A4AEA05058583BDE8F08F00212B
:10327000018041808180C180018141818181C18142
:103280000721018270470021018041808180C18037
:103290000221816000218181704721B1028842F0C2
:1032A0004002028004E002884FF6BF731A40028099
:1032B000704721B1828B42F48062828304E0828B6A
:1032C0004FF6FF331A408283704702884FF2FF7334
:1032D0001A40028002880A4302807047B1F5804F8D
:1032E00004D1028842F48042028004E002884BF656
:1032F000FF731A4002807047A1F57E42FF3A04D066
:10330000028842F48072028004E002884FF6FF6374
:103310001A400280704721B1828842F00402828004
:1033200004E082884FF6FB731A408280704721B117
:10333000828842F01002828004E082884FF6EF73A8
:103340001A408280704730B500220023848B4FF2F0
:1033500040052C40848302240484828B0C88B4F5BD
:10336000007F01D00C8814B94FF4807308E00C88FA
:10337000B4F5407F03D00C88B4F5807F00D10023E2
:103380008C888D892C434D882C431C4344F4006465
:103390002243828330BD014688897047818170470E
:1033A00021B1028842F40052028004E002884DF606
:1033B000FF731A4002807047018841F480510180F8
:1033C000704702460020012901D0108B00E0908A4E
:1033D00070470146088A70471AB183880B4383807F
:1033E00002E083888B438380704730B5002400233C
:1033F0000C110125A540ABB21AB185881D4385800B
:1034000002E085889D43858030BD024600201389F7
:103410000B4201D0012000E000207047CA43028126
:103420007047F0B50246002000240023002501F07B
:103430000F070126BE40B4B20B1101269E40B3B265
:10344000968806EA03051689264202D00DB10120AE
:1034500000E00020F0BD10B5002201F00F040123B0
:10346000A3409AB2D343038110BD00000030014055
:1034700000380040003C00400838024000127A004A
:1034800010B501218803FFF76FFD00214FF4804044
:10349000FFF76AFD10BD1A490860704730B5002279
:1034A0008B071C0F0F2303FA04F2154B08338C1003
:1034B00053F824309343124C08348D1044F82530CF
:1034C00023468C1053F824308C07240F00FA04F4A0
:1034D00023430B4C08348D1044F8253030BD094986
:1034E000086070470849086070470020044920318F
:1034F000096811F4807F01D0012000E000207047AE
:1035000000380140DC0027420004274210B5044681
:10351000FE48844208D101210846FFF725FD00211D
:103520000120FFF721FD9DE0B4F1804F08D101217A
:103530000846FFF708FD00210120FFF704FD91E098
:10354000F348844208D101210220FFF7FCFC00214E
:103550000220FFF7F8FC85E0EE48844208D1012103
:103560000420FFF7F0FC00210420FFF7ECFC79E0D9
:10357000E948844208D101210820FFF7E4FC00213A
:103580000820FFF7E0FC6DE0E448844208D1012107
:103590001020FFF7D8FC00211020FFF7D4FC61E0D9
:1035A000DF48844208D101212020FFF7CCFC002114
:1035B0002020FFF7C8FC55E0DA48844208D10121F9
:1035C0000220FFF7D1FC00210220FFF7CDFC49E0EB
:1035D000D548844209D101210804FFF7C5FC002128
:1035E0004FF48030FFF7C0FC3CE0D048844209D162
:1035F00001214804FFF7B8FC00214FF40030FFF729
:10360000B3FC2FE0CA48844209D101218804FFF7A6
:10361000ABFC00214FF48020FFF7A6FC22E0C54858
:10362000844208D101214020FFF78DFC0021402079
:10363000FFF789FC16E0C048844208D101218020B0
:10364000FFF781FC00218020FFF77DFC0AE0BB48EA
:10365000844207D101218015FFF775FC0021A015D8
:10366000FFF771FC10BD00220288A84B98420ED0D3
:10367000AC4B98420BD0B0F1804F08D0A44B98428D
:1036800005D0A44B984202D0A34B984204D14FF6E8
:103690008F731A404B881A43A04B984207D0A04B17
:1036A000984204D04FF6FF431A400B891A43028018
:1036B0004B68C3620B880385944B984202D0994BA8
:1036C000984201D18B7A03860123838270474FF0A1
:1036D000FF3141600021018001814180817270478A
:1036E0000185828270470A46002101884FF68F7358
:1036F000194011430180704741627047C1627047B1
:103700000146486A70470146088D704721B102881A
:1037100042F00202028004E002884FF6FD731A4074
:103720000280704721B1028842F00402028004E066
:1037300002884FF6FB731A400280704721B102885D
:1037400042F08002028004E002884FF67F731A4044
:103750000280704702884FF6F7731A400280028891
:103760000A430280704702884FF6FF431A400280E6
:1037700002880A430280704721B1028842F00102A8
:10378000028004E002884FF6FE731A400280704700
:1037900070B5002400220023058C4FF6FE763540DC
:1037A0000584028C8388048B4FF68F752C40B51EE0
:1037B0002C400D882C43751E2A408D892A434D8844
:1037C0002A43524DA84202D0564DA84213D14FF67B
:1037D000F7752A40CD892A434FF6FB752A408D881C
:1037E0002A434FF6FF652B404FF6FF552B400D8ABD
:1037F0002B434D8A2B43838004838D684563028469
:1038000070BD70B5002400220023058C4FF6EF76C2
:1038100035400584028C8388048B48F6FF752C4064
:103820004FF6FF452C400D884FF6FF7606EA05253A
:103830002C434FF6DF752A408D8906EA05152A4389
:103840004D8806EA05152A43304DA84202D0354D71
:10385000A8421DD14FF67F752A40CD894FF6FF76DD
:1038600006EA05152A434FF6BF752A408D8806EAF9
:1038700005152A434FF6FF352B404FF2FF752B40BD
:103880000D8A06EA85052B434D8A06EA85052B43FA
:10389000838004838D688563028470BD70B50024C5
:1038A00000220023058C4FF6FF6635400584028C0C
:1038B0008388848B4FF68F752C404FF6FC752C4017
:1038C0000D882C434FF6FF552A408D894FF6FF7621
:1038D00006EA05252A434D8806EA05252A430B4DAD
:1038E000A84202D00F4DA84238D14FF2FF752A40AE
:1038F000CD894FF6FF7606EA05252A434FF6FF35B8
:103900002A408D8806EA05252A4319E00000014077
:103910000004004000080040000C0040001000407F
:1039200000140040000401400040014000440140F8
:103930000048014000180040001C004000200040EA
:103940004EF6FF752B404DF6FF752B400D8A06EAAB
:1039500005152B434D8A06EA05152B438380848386
:103960008D68C563028470BD70B5002200230024F9
:10397000058C4EF6FF7635400584038C8488828B57
:1039800048F6FF752A404FF6FF452A400D884FF64E
:10399000FF7606EA05252A434DF6FF752B408D89F3
:1039A00006EA05352B434D8806EA05352B43FE4DC7
:1039B000A84202D0FD4DA84208D14BF6FF752C401D
:1039C0000D8A4FF6FF7606EA85152C4384808283A4
:1039D0008D680564038470BD002101804180818071
:1039E00081608181C18101824182704770B5034647
:1039F000002000241846183001258D40ACB21D8CE3
:103A0000A5431D8409B108290AD100EB61000568AE
:103A10004FF68F76354005600568154305600FE069
:103A20000D1FC5F34E052844056848F6FF7635405E
:103A3000056005684FF6FF7606EA02263543056005
:103A400070BD4163704781637047C1637047016413
:103A500070470A460021018B4FF68F7319401143BE
:103A6000018370470A460021018B48F6FF73194015
:103A70004FF6FF7303EA02231943018370470A4696
:103A80000021818B4FF68F7319401143818370475A
:103A90000A460021818B48F6FF7319404FF6FF73E9
:103AA00003EA02231943818370470A460021018BF0
:103AB0004FF6F77319401143018370470A460021FE
:103AC000018B4FF2FF7319404FF6FF7303EA022395
:103AD0001943018370470A460021818B4FF6F77323
:103AE00019401143818370470A460021818B4FF2B0
:103AF000FF7319404FF6FF7303EA022319438183D2
:103B000070470A460021018B4FF6FB7319401143A1
:103B1000018370470A460021018B4FF6FF3319409D
:103B20004FF6FF7303EA02231943018370470A46E5
:103B30000021818B4FF6FB7319401143818370473D
:103B40000A460021818B4FF6FF3319404FF6FF7371
:103B500003EA02231943818370470A460021018B3F
:103B60004FF67F7319401143018370470A460021C5
:103B7000018BC1F30E014FF6FF7303EA02231943D1
:103B8000018370470A460021818B4FF67F731940ED
:103B90001143818370470A460021818BC1F30E01D6
:103BA0004FF6FF7303EA02231943818370470A46E5
:103BB0000021018C4FF6FD731940114301847047B9
:103BC0000A460021018C4FF6F77319401143018416
:103BD00070470A460021018C4FF6DF7319404FF6FB
:103BE000FF7303EA02131943018470470A46002158
:103BF000018C4FF67F7319404FF6FF7303EA0213EF
:103C00001943018470470A460021018C4FF6FF5387
:103C100019404FF6FF7303EA0223194301847047EA
:103C20000A460021018C4FF2FF7319404FF6FF73D3
:103C300003EA02231943018470470A460021018CDC
:103C40004DF6FF7319404FF6FF7303EA0233194331
:103C50000184704730B5002301248C40A3B2048C4A
:103C60009C430484048C02FA01F5ADB22C43048415
:103C700030BD30B5002304248C40A3B2048C9C4397
:103C80000484048C02FA01F5ADB22C43048430BDE7
:103C9000828B4FF2FF331A408283828B4FF6FF7381
:103CA00003EA01231A4382837047F0B50C46154698
:103CB000002100220026078C4EF6FF7C07EA0C0745
:103CC0000784818B028C4FF6FF7707EA043640F6B3
:103CD000FF4739404FF6FF7707EA052739434FF68C
:103CE000FF7707EA0337394345F6FF773A4046F452
:103CF00080573A4381830284F0BD828B4FF6F37381
:103D00001A408283828B0A4382837047F0B50C4647
:103D10001546002100220026078C4FF6FF6C07EAAB
:103D20000C070784818B028C4FF6FF7707EA042685
:103D30004FF60C7739404FF6FF7707EA03172F430A
:103D400039434FF2FF573A4046F480773A43818334
:103D50000284F0BD028B4FF2FF331A400283028BC4
:103D60004FF6FF7303EA01231A4302837047F0B54D
:103D70000C461546002100220026078C4FF6EF7CEA
:103D800007EA0C070784018B028C4FF6FF7707EADE
:103D9000041640F6FF4739404FF6FF7707EA03372E
:103DA00039434FF6FF7703E0000001400004014073
:103DB00007EA052739434FF65F773A4046F0100788
:103DC0003A4301830284F0BD028B4FF6F3731A402D
:103DD0000283028B0A4302837047F0B50C461546F6
:103DE00000210022068C4FF6FE773E400684018BB0
:103DF000028C4FF60C7631407E1C06EA03162E43E9
:103E000031434FF6F576324044F0010632430183E8
:103E10000284F0BD70B505460C46208850B9238950
:103E2000A28861882846FFF7D8FFE1882846FFF777
:103E3000CBFF25E0208804280AD12389A288618845
:103E40002846FFF794FFE1882846FFF783FF17E035
:103E5000208808280AD12389A28861882846FFF78C
:103E600055FFE1882846FFF748FF09E02389A2882B
:103E700061882846FFF719FFE1882846FFF708FF09
:103E800070BD002101804180012181800021C1801D
:103E9000018170472DE9F04105460C4600260127B7
:103EA000608808B9022600E00026A088012801D118
:103EB000022700E001272088A0B92389A288618811
:103EC0002846FFF78AFFE1882846FFF77DFF238910
:103ED0003A4631462846FFF74AFFE1882846FFF771
:103EE00039FF13E02389A28861882846FFF73FFF46
:103EF000E1882846FFF72EFF23893A4631462846B7
:103F0000FFF76BFFE1882846FFF75EFFBDE8F08111
:103F10000146486B70470146886B70470146C86B85
:103F200070470146086C70470A884B881A438B8893
:103F30001A43CB881A430B891A434B891A438B893E
:103F40001A43A0F8442070470021018041808180FD
:103F5000C180018141818181704731B1B0F8442035
:103F600042F40042A0F8442005E0B0F84420C2F337
:103F70000E02A0F84420704721B1828842F004026A
:103F8000828004E082884FF6FB731A40828070477B
:103F900021B1828842F00102828004E082884FF6DB
:103FA000FE731A40828070471AB183890B43838164
:103FB00002E083898B438381704781827047024688
:103FC0000020138A0B4201D0012000E0002070473E
:103FD000CA430282704730B5024600200023002405
:103FE000158A05EA0103958905EA010413B10CB1AC
:103FF000012000E0002030BDCA430282704741EA40
:104000000203A0F8483070471AB183890B438381BB
:1040100002E083898B438381704721B1828842F01B
:104020000802828004E082884FF6F7731A4082808B
:10403000704701894FF6F8721140018170470A46B6
:10404000002101894FF68F73194011430181704798
:1040500030B504460D4629462046FFF7F0FF20897B
:1040600040F00700208130BD2DE9F04104460D46A7
:1040700016461F46602D06D13B460122314620469A
:10408000FFF775FE05E03B46012231462046FFF76B
:10409000A4FE29462046FFF7D2FF208940F0070002
:1040A0002081BDE8F08130B50C4600210189C9B2FC
:1040B0004FF6FF7505EA0325154325432943018182
:1040C00030BD2DE9F04105460E46174698460024BE
:1040D00043463A4631462846FFF7E5FF2C894FF61E
:1040E000F870044044F007044FF68F70044044F029
:1040F00070042C81BDE8F081F0B504460D461646EB
:104100001F463B46324629462046FFF7CCFF208912
:1041100040F480402081F0BD82884FF68F731A40B2
:10412000828082880A438280704702894FF6F87342
:104130001A40028102890A430281704702894FF6C0
:104140007F731A40028102890A4302817047F0B5E9
:104150000C4615461E460021002200230189028BD1
:10416000038C4FF6F877394021434FF6FC473A402D
:1041700040F201173A434FF6DD773B404FF6FF77A9
:1041800007EA06172F433B43018102830384F0BDF6
:1041900021B1828842F08002828004E082884FF65A
:1041A0007F731A4082807047A0F8501070472DE945
:1041B000FE4F81EA030404F0004421F00041009422
:1041C0004FF0000B23F0004350EA010402D052EA02
:1041D000030404D10020014603B0BDE8F08FC3F30F
:1041E0000A54C1F30A552C44A4F2F3340194A0FB01
:1041F0000254C1F3130141F48011C3F3130343F4D8
:10420000801301FB024400FB034E840A970A44EA30
:10421000815447EA8357A4FB076802958D0A05FB82
:1042200007854FEA932C04FB0C542705029D4FEAA7
:10423000065847EA1637B5EB08056EEB070C870EF4
:10424000920E47EA811742EA8312A7FB0201B6EBFE
:104250000B0164EB00042B0D43EA0C335E1844EBB6
:104260001C50DA465146E7FB0201C5F313044FEA3E
:104270000B3343EA14534FEA0432019C43EA06032A
:10428000A4F10C040294009CCDE900B400F0BAF84B
:10429000A2E700F0004230F000400AD0C10D01F565
:1042A0006071C0F3160042EA0151C2084007114391
:1042B000704700200146704701F0004330B421F000
:1042C000004150EA010206D00A0DA2F56072C1F366
:1042D0001301002A02DC30BC00207047440F44EA7E
:1042E000C104C100E01830BC00EBC25000F047B878
:1042F00030B50B46014600202022012409E021FAB6
:1043000002F59D4205D303FA02F5491B04FA02F5B2
:104310002844151EA2F10102F1DC30BD2DE9F05F49
:104320000546002092469B46884606468146402424
:104330001BE0284641464746224600F092FA534683
:104340005A46C01A914110D311461846224600F031
:1043500079FA2D1A67EB01084F4622460120002109
:1043600000F070FA17EB00094E41201EA4F1010481
:10437000DFDC484631462A464346BDE8F09F002927
:10438000A8BF7047401C490008BF20F001007047DB
:1043900010B4B0FA80FC00FA0CF050EA010404BF3B
:1043A00010BC704749B1CCF1200421FA04F411FA91
:1043B0000CF118BF012121430843A3EB0C01CB1DD5
:1043C0000106000A002BBEBF002010BC704700EBA6
:1043D000C35010440029A4BF10BC7047401C4900C2
:1043E00008BF20F0010010BC704710B5002B08DAA0
:1043F000401C41F1000192185B411A4301D120F0A9
:10440000010010BD2DE9F04D92469B4611B1B1FA65
:1044100081F202E0B0FA80F22032904600F012FA07
:1044200004460F4640EA0A0041EA0B0153465A4649
:10443000084303D120463946BDE8F08D114653EAC2
:10444000010015D0C8F14002504600F00AFA0546B6
:104450000E4650465946424600F0F4F9084301D052
:10446000012000E00020054346EAE0762C43374374
:104470000A984FEA4453A0EB08004FEAD4240A30CC
:104480004FF0000244EA47544FEAD72502D50020F6
:104490000146D1E7010510196941DDE90845001918
:1044A0006941BDE8F04DA0E72DE9FE4F804681EA65
:1044B0000300C00F0C46009021F0004123F000459E
:1044C000B8EB0200A94105D24046214690461C4661
:1044D0000B46024623F00040104304D140462146DB
:1044E00003B0BDE8F08F270DC7F30A00C3F30A51EC
:1044F0000290401A0190402866DAC3F3130040F49A
:10450000801B0098924620B10023D2EB030A63EB94
:104510000B0B01985946C0F14002504600F092F949
:1045200006460D4650465946019A00F0AAF910EB8E
:1045300008006141002487EA115284EAE7731A43B4
:104540003BD0009A3AB3019A012A4FEA075210DC95
:10455000001B61EB02014FF0004202EA0752CDE975
:104560000042001C41F5801132462B46FFF74AFFFE
:10457000B6E7001B61EB0201001C41F58013001837
:104580005B412018A2F5001747EB030140EAD57004
:10459000B6196D4111E06D084FEA360645EAC0755F
:1045A0004FEA0752001B61EB0201001C41F580112C
:1045B00049084FEA30000019514132462B4603B0FA
:1045C000BDE8F04FFFF711BF009801224000002323
:1045D000D0EB020263EBE073009821464FEAE074EF
:1045E000B8EB000061EB0401E9E783F000435BE70F
:1045F00081F0004158E72DE9F04D81EA030404F011
:10460000004B21F0004514464FF0000A23F0004112
:1046100050EA050220D054EA01021DD0C5F30A5722
:104620000246C5F31303C1F31300C1F30A5640F465
:10463000801543F48013A7EB0608101BD64608F23A
:10464000FD3873EB050002D308F1010801E0921870
:104650005B41B8F1000F03DA00200146BDE8F08DA0
:1046600000204FF48011064684460EE0171B73EBC2
:10467000050705D3121B63EB050306434CEA010C47
:1046800049084FEA300092185B4150EA0107EDD12A
:1046900052EA030012D082EA040083EA05010843CB
:1046A00003D100224FF0004308E0101BAB4102D2BF
:1046B0000122002302E06FF0010253101AEB060002
:1046C0004CEB085110EB0A0041EB0B01BDE8F04D3B
:1046D000FFF78BBE70B521F0004303430CD0C1F34C
:1046E0000A550024D5EB040564EB0403D617AD1A74
:1046F000B34102DB0020014670BD201841EB02519E
:1047000070BD2DE9F04D00231A461B1A8A4103DBC8
:1047100000200146BDE8F08DC1F30A52C1F3130138
:1047200041F480154FF0000BD10702D100186D4104
:10473000521E0027044640F2FF11384601EB620A80
:104740003E468046024600204FF4801100F089F872
:10475000C2197141BB1846EB0100B4EB030C75EBB9
:10476000000C04D3E41A65EB000517460E46241925
:1047700008F101006D4180463428E3DDF91946EB6C
:104780000600091BA84103D24FF0FF32134601E097
:10479000002213461BEB070046EB0A51BDE8F04D23
:1047A000FFF723BE0EB5C10F80EAE0700844CA07C8
:1047B000002140F233438DE80E000A460B46FFF716
:1047C00021FE03B000BDC1F30A52C1F3130140F250
:1047D000FF3341F480119A4202DA0020014670470B
:1047E00040F233439A42A2F2334202DC524200F0DA
:1047F00038B800F027B8000030B5002904DB4FF0CE
:104800000044404264EB0101002B04DB4FF0004404
:10481000524264EB0303994208BF904230BD00004E
:10482000064C074D06E0E06840F0010394E80700FD
:1048300098471034AC42F6D3FBF7AAFC7078000816
:10484000A0780008202A04DB203A00FA02F10020B8
:1048500070479140C2F1200320FA03F319439040BE
:104860007047202A04DB203A21FA02F00021704729
:1048700021FA02F3D040C2F12002914008431946C8
:104880007047202A06DBCB17203A41FA02F043EAB0
:10489000E07306E041FA02F3D040C2F120029140F9
:1048A0000843194670470000000000000FB4054B94
:1048B00010B503A9044A029801F0A6F910BC5DF8EE
:1048C00014FB000043190008740000200FB4084BCB
:1048D00010B504A902AA039801F096F9044602A9AA
:1048E000002001F034FD204610BC5DF814FB0000F0
:1048F0004F63000803B401984100009850EAC120BA
:1049000018BF04204A0D18BF40F0010040F2FF72AA
:10491000B2EB515F08BF40F00200012808BF05203C
:1049200002B070470000000070B59F482DED020BEB
:104930002DED068B079D25F00044A0421DDC9B4811
:10494000844202DC0FD1069868B19DED060B53EC52
:10495000102B51EC100BFFF7A7FDBDEC068B02B03E
:1049600041EC100B70BD002DCCBF9FED910B9FED66
:10497000920BBDEC068B02B070BD9148A04215DDD4
:104980009048A042D8BF4FF0FF3440DD9DED060BAC
:1049900051EC100BFFF7AEFF042808BF01F03CF804
:1049A0009DED060BBDEC068B02B070BD9DED060BB8
:1049B00051EC100B01F000FD41EC100B82488DED25
:1049C000060B9FED838BA0423CDD8348A0421FDD98
:1049D00000249FED839B51EC100B53EC192BFFF738
:1049E00063FD9DED060B41EC1A0B53EC192B51ECBA
:1049F000100BFFF7DCFB53EC182BFFF7F6FD53EC25
:104A00001A2BFFF7F8FD41EC100B8DED060B49E07A
:104A1000012453EC182B51EC100BFFF745FD9DEDD5
:104A2000060B41EC190B53EC182B51EC100BFFF754
:104A3000DCFD53EC192BFFF7DEFD41EC100B8DED87
:104A4000060B2FE06848A0421FDD02249FED689B03
:104A500051EC100B53EC192BFFF7A9FB53EC182B5F
:104A6000FFF722FD9DED060B41EC180B53EC192BC3
:104A700051EC100BFFF7B9FD53EC182BFFF7BBFD02
:104A800041EC100B8DED060B0CE053EC102B0324C6
:104A90009FED590B51EC100BFFF7ADFD41EC100BE6
:104AA0008DED060B9DED060B53EC102B51EC100B0E
:104AB000FFF77DFB41EC180B53EC182BFFF777FB4E
:104AC00041EC190B4E480621B0EE490AF0EE690A96
:104AD000784400F022FF53EC182B51EC100BFFF739
:104AE00066FB41EC180B4748B0EE490AF0EE690A44
:104AF0000521784400F011FF53EC192B51EC100BF9
:104B0000FFF755FB41EC100B51EC180B53EC102B3D
:104B1000002C0EDAFFF7C8FC9DED061B53EC112BA1
:104B2000FFF745FB9DED061B53EC112BFFF760FDD6
:104B300035E0FFF7B9FC9DED061B53EC112BFFF799
:104B400036FB41EC100B3048784400EBC40090ED8C
:104B5000001B51EC100B53EC112BFFF746FD9DEDA4
:104B6000061B53EC112BFFF740FD41EC110B2748BE
:104B7000784400EBC40090ED000B51EC110B53ECAA
:104B8000102BFFF735FD41EC100B002DA2BFBDEC43
:104B9000068B02B070BD51EC100B81F0004141EC6E
:104BA000100BFFE600000000000010440000F07F42
:104BB000182D4454FB21F93F182D4454FB21F9BF13
:104BC0000000DC3F0000203E0000F33F000000003A
:104BD000000000000000F03F0000E63F0000000081
:104BE00000000000000000400080034000000000C2
:104BF000000000000000F83F000000000000F0BFCF
:104C0000DC2C0000922C00001C2C0000D42B000097
:104C10002DE9F04D2DED040B2DED0E8B94B0DDE95B
:104C20002350259CDDF888A025F0004624F000489C
:104C3000BAF1000F14BF0121002101EB4502FE492A
:104C400053184A1093422AD3002814BF012300238B
:104C500003EB44030B44F9498B4220D358EA00018B
:104C60009FEDF78B6FD0DFF8E0B35D4503D1BAF16C
:104C7000000F05D181E0BAF1000F08BF002100D07C
:104C8000012101EB450111F5001F08D8002814BFD0
:104C90000121002101EB440111F5001F0AD99DED0E
:104CA000240B53EC102B9DED220B51EC100BFFF756
:104CB000FBFB40E00027002DBCBFE449884521DA1A
:104CC000E3498845A8BF02271CDAC3451ADCE1493D
:104CD00001EB2851142908DDC1F1340220FA02F158
:104CE00001FA02F282420DD108E058B9C1F1140272
:104CF00028FA02F101FA02F2424503D101F0010162
:104D0000C1F1020756EA0A019FEDD3AB1CD1002C7A
:104D10001ADA002D18BF022F01D0012F07D0022070
:104D200000F09AFE53EC1A2B51EC180B05E102200F
:104D300000F092FE7DE041EC100B14B0BDEC0E8B48
:104D400004B0BDE8F08D18E09FEDC5BB9FEDC69B9C
:104D5000002877D1BD48804522D105F1804010F56B
:104D6000801008BFBAF1000F07D0B3450ADC002C51
:104D7000A8BF9DED240BE0DA0DE0B0EE480AF0EE9E
:104D8000680ADAE7002C06DA9DED240B51EC100BD3
:104D900081F00041CFE7B648784490ED000BCCE7B6
:104DA000D84553D1002C4EDA2EB1864240D1BAF10B
:104DB000000F48D12CE0BAF1000F19D0022000F00A
:104DC0004BFE53EC192B51EC190BFFF7F0F941ECAA
:104DD000100B8DED020B9DED220B8DED000B10EEF7
:104DE000900A039961F31E0003909DED020BA4E766
:104DF0008DED02BB9DED220B1BEE901A10EE900A7A
:104E00008DED000B61F31E0003909DED020B94E706
:104E10008DED02AB9DED220B1AEE901A10EE900A6A
:104E20008DED000B61F31E0003909DED020B84E7F6
:104E300009DA9DED220B51EC180B53EC102BFFF708
:104E4000DAFB78E71DE09DED220B76E7864218DA63
:104E5000B4F1804F0DD0A4F10050B0F1FF5010D14B
:104E6000002D0EDB9DED220B51EC100B02F01AFA17
:104E700061E79DED220B53EC102B51EC100B00F071
:104E8000E1BC9DED220B51EC100B01F095FA41ECC9
:104E9000100BBAF1000F8DED120B34D19FED760B94
:104EA000DEB1A6F1E040B0F17F602CD1002D01DD34
:104EB000002C0DDA002D01DD002C1FDB002D16DA91
:104EC000002C14DB012F08BF9FED6D0B3FF435AFB5
:104ED000B0EE4B0AF0EE6B0A2FE7022F18BF002D41
:104EE0000CD0012F0AD1002DFFF627AF06E0002DD0
:104EF000B8BF002C07DA012F3FF41FAFB0EE4A0A0B
:104F0000F0EE6A0A19E7012000EBE57004903843DF
:104F10000CD05D48002580457DDD5C495C488845B6
:104F200013DDB0420CDB002C18DB30E0012000F078
:104F300093FD53EC1A2B51EC1A0BFFF75CFBFAE6CE
:104F4000B34502DC002C09DC21E0864202DA002CA9
:104F50001DDA03E05E452DDD002C18DD022000F097
:104F60007BFD53EC192B51EC190BFFF720F941ECA9
:104F7000100B1BEE900A10EE901A8DED020B8DEDCA
:104F800000BB61F31E0003909DED020BD5E60220ED
:104F900000F062FD00F040FD10EE901A18EE900A4D
:104FA0008DED020B8DED008B61F31E0003909DEDE6
:104FB000020BC2E69DED220B53EC182B51EC100BAB
:104FC000FFF713FB41EC100B8DED0C0B9FED320B3B
:104FD00053EC102B9DED0C0B51EC100BFFF7E7F889
:104FE0009FED2F1B53EC112BFFF702FB9DED0C1BCC
:104FF00053EC112BFFF7DBF89FED2B1B53EC112B20
:10500000FFF7F6FA9DED0C0B41EC1A0B53EC102B4D
:1050100051EC100B00E08AE0FFF7C9F853EC1A2BB3
:10502000FFF7C5F89FED220B41EC1B0B53EC102B47
:105030009DED0C0B40E00000FFFF1F00FFFF0F0085
:10504000000000000000F03F0000F03F0000F07F93
:105050000000404301FCFFFF0000000000000000D2
:10506000000000000000F07F000000000000007061
:10507000CC2A0000000000000000000000000080BA
:10508000000000000000F0FF0000E0410000F043DD
:10509000FFFFEF3F00000000000000000000D03FD5
:1050A000555555555555D53F000000000000E03FCF
:1050B000000000604715F73F51EC100BFFF777F841
:1050C00041EC1A0B9FEDFE0B51EC1B0B53EC102B1C
:1050D000FFF76DF841EC1B0B9FEDFB0B53EC102B16
:1050E0009DED0C0B51EC100BFFF761F853EC1B2BF3
:1050F000FFF77BFA41EC1B0B51EC1A0B53EC1B2B0B
:10510000FFF7D2F941EC100B53EC1A2B8DED080B85
:1051100008959DED080B51EC100BFFF766FA53EC68
:105120001B2BFFF765FA41EC100B00F0AFB9002024
:10513000B6F5801F11DA9FEDE60B53EC102B9DEDB9
:10514000120B51EC100BFFF732F841EC100B6FF023
:10515000340010EE906A8DED120BDF4900EB265003
:10516000A0F2FF38C6F3130040F07F6646F04056C9
:105170008842D8BF002409DDD8498142C8BF012434
:1051800004DC002408F10108A6F58016D448784410
:1051900000EBC40A13969AED000B53EC102B9DED17
:1051A000120B51EC100BFFF720FA9AED000B41ECBB
:1051B0001B0B53EC102B9DED120B51EC100BFFF75A
:1051C00073F941EC100B51EC180B53EC102BFFF75B
:1051D00012FA41EC1C0B51EC1B0B53EC1C2BFEF791
:1051E000E6FF41EC1A0BBF488DED0AAB78440A95F7
:1051F00090ED000B4FF0005040EA660000EB844059
:105200008DED100B00F5002011909AED000B53EC82
:10521000102B9DED100B51EC100BFFF7E6F99DEDF7
:10522000121B53EC112BFFF7E3F941EC100B53EC7D
:10523000102B9DED0A0B51EC100BFEF7B8FF9DED06
:10524000100B41EC1D0B53EC102B9DED0A0B51EC98
:10525000100BFEF7ACFF53EC1B2BFFF7C9F953EC17
:105260001D2BFFF7C2F953EC1C2BFEF7A0FF41ECFE
:105270001C0B53EC1A2B51EC1A0BFEF798FF41EC68
:105280001B0B99480621B0EE4B0AF0EE6B0A7844EE
:1052900000F043FBB0EE40DAF0EE60DA53EC1B2B8B
:1052A00051EC1B0BFEF783FF53EC1D2BFEF77FFF2A
:1052B0009DED0A0B41EC1B0B53EC1A2B51EC100B20
:1052C000FFF7F2F853EC1C2BFEF771FF53EC1B2B8E
:1052D000FFF7EAF89DED0A0B41EC1D0B53EC102B88
:1052E00051EC100BFEF763FF41EC1B0B9FED80EBC5
:1052F00053EC1E2BFFF7D8F853EC1D2BFFF7D4F817
:1053000041EC100B53EC1E2B8DED100B10959DED09
:10531000100B51EC100BFFF768F953EC1B2BFFF748
:1053200064F953EC1D2BFFF763F99DED100B41EC75
:105330001D0B53EC102B9DED0A0B51EC100BFEF7DF
:1053400036FF41EC1B0B53EC1A2B51EC1D0BFEF7F7
:105350002EFF9DED100B41EC1A0B53EC102B51EC72
:105360001C0BFEF724FF53EC1A2BFFF79DF841ECC2
:105370001A0B51EC1B0B53EC1A2BFFF795F841EC71
:10538000100B53EC1B2B8DED0A0B0A959DED0A0BB0
:1053900051EC100BFFF729F953EC1A2BFFF728F902
:1053A00041EC1A0B9FED540B53EC102B9DED0A0BA7
:1053B00051EC100BFEF7FBFE41EC1B0B9FED500B6D
:1053C00051EC1A0B53EC102BFEF7F1FE41EC1A0BCB
:1053D0009FED4D0B53EC102B9DED0A0B51EC100B78
:1053E000FEF7E5FE53EC1A2BFFF75EF841EC100BCD
:1053F0004748784400EBC40090ED001B51EC100BC3
:1054000053EC112BFFF750F841EC1A0B4046FFF715
:10541000C9F941EC100B53EC1A2B8DED0C0B51EC30
:105420001B0BFFF741F841EC100B3A48784400EBB6
:10543000C40451EC100B94ED001B53EC112BFFF73F
:1054400033F89DED0C1B53EC112BFFF72DF841ECBD
:10545000100B8DED080B08959DED0C0B53EC102BEC
:105460009DED080B51EC100BFFF7BFF894ED000B0E
:1054700053EC102BFFF7B9F853EC1B2BFFF7B5F8E3
:1054800053EC1A2BFFF7B4F841EC100B0498791E7B
:10549000B0EE48BAF0EE68BA084308BF9FED1E8B25
:1054A0009DED241B53EC102B8DED001B00959DED05
:1054B000240B51EC100BFEF77AFE41EC1A0B2FE097
:1054C000FE822B654715F73F44DF5DF80BAE543E77
:1054D00000000000000040438E9803007AB60B00E5
:1054E0004E260000782600007E2500000000000007
:1054F0000000000000000840000000E009C7EE3F87
:10550000FD033ADC09C7EE3FF5015B14E02F3EBE18
:105510000A240000C0230000000000000000F0BFCB
:105520009DED000B53EC102B9DED240B51EC100B5B
:10553000FFF75BF89DED081B53EC112BFEF737FED0
:1055400053EC1A2BFEF7B0FF9DED080B41EC1A0B44
:1055500053EC102B9DED000B51EC100BFEF727FECA
:1055600041EC100B51EC1A0B8DED0A0B53EC102B88
:10557000FEF79AFF41EC100BB54910EE904A10EE81
:10558000100A8DED020B8C4235DB611A084318D1ED
:105590009DED0A0B53EC102B9DED020B51EC100B03
:1055A000FFF723F841EC1C0B9FEDAB0B51EC1A0BF2
:1055B00053EC102BFEF778FF53EC1C2BFFF71CF974
:1055C00033D2022000F048FA53EC192B51EC190B9E
:1055D000FEF7EDFD41EC100B18EE900A10EE901A5C
:1055E0008DED020B8DED008B61F31E0003909DEDA0
:1055F000020BFFF7A2BB9A4A24F00041914214D358
:105600009849214408437FF4C2AC9DED0A0B53EC4A
:10561000102B9DED020B51EC100BFEF7E6FF53EC47
:105620001A2BFFF7E9F87FF6B2AC24F000408E4960
:105630008E4A002601EB20519042D8BF9DED0A0B07
:105640002DDD481C4FF4801121FA00F02044C0F3F6
:105650000A51874AA1F2FF317A4492ED000B854A44
:105660008DED0C0BCA4020EA0202C0F3130040F497
:105670008010C1F1140120FA01F60D92002CB8BF80
:1056800076429DED0C0B53EC102B9DED0A0B51EC6B
:10569000100BFEF7AAFF41EC100B8DED0A0B53EC3B
:1056A000102B51EC1A0BFEF7FFFE41EC100B8DEDA9
:1056B0000C0B9FED710B0C9553EC102B9DED0C0B0F
:1056C00051EC100BFEF773FD41EC190B9FED6C0BC9
:1056D00053EC102B9DED0C0B51EC100BFEF767FDFE
:1056E0009DED0A0B41EC1C0B53EC102B9DED0C0BAC
:1056F00051EC100BFEF779FF53EC1A2BFEF778FFF5
:105700009FED611B53EC112BFEF751FD53EC1C2B4D
:10571000FEF7CAFE41EC1A0B51EC190B53EC1A2B95
:10572000FEF7C2FE41EC100B53EC192B8DED020B72
:10573000FEF75BFF53EC1A2BFEF75AFF9DED020BB1
:1057400041EC190B53EC102B51EC100BFEF72FFD15
:1057500041EC100B4E488DED0C0B0521784400F008
:10576000DCF89DED0C1B51EC100B53EC112BFEF7EC
:105770001EFD9DED021B53EC112BFEF739FF41EC92
:10578000100B53EC192B8DED080B9DED020B51EC1A
:10579000100BFEF70CFD53EC192BFEF785FE9FED69
:1057A0003E0B41EC1A0B53EC102B9DED080B51EC0A
:1057B000100BFEF71AFF9DED080B41EC190B53EC93
:1057C000102B9DED020B51EC100BFEF7F0FC53EC8F
:1057D000192BFEF710FF53EC1A2BFEF706FF9DED79
:1057E000021B53EC112BFEF700FF53EC1B2BFEF7B3
:1057F000FFFE41EC100B10EE900A8DED020B00EB5A
:10580000065001150029C4BF03909DED020B15DC65
:10581000324651EC100BFEF75DFFFFF76BF80428E2
:1058200008BF00F0F9F832469DED020B51EC100B69
:10583000FEF750FF41EC100B8DED020B53EC102BDB
:1058400051EC180BFEF7B3FCFFF775BA000000002F
:105850000000904000000000FE822B654715973C39
:1058600000CC904000346F3F01FCFFFF0000E03FA0
:105870000C220000FFFF0F0000000000432EE63F57
:10588000396CA80C615C20BEEF39FAFE422EE63F6F
:10589000E0200000000000000000000000000040C8
:1058A00000B52DED048BB0EE408AF0EE608A83B037
:1058B00051EC180BFEF725FF41EC190B19EE100AFD
:1058C00019EE901A8DED009B002818BF01200843A7
:1058D00020F00040C0F17F6000F1E040C00F14D024
:1058E00018EE101A18EE900A8DED008B002918BFE3
:1058F0000121084320F00040C0F17F6000F1E0404A
:10590000C00F04BF012000F0A7F8B0EE490A03B0B1
:10591000F0EE690ABDEC048B00BD70B504462DEDB8
:10592000028B4D1E00EBC500B0EE408AF0EE608A9F
:1059300090ED000B35F0060017D053EC182B51EC0E
:10594000100BFEF734FC41EC100B6D1E04EBC50090
:1059500090ED001B51EC100B53EC112BFEF7A4FD46
:1059600041EC100B35F00600E7D1022D36D0042DA6
:105970001CD0062D1CBFBDEC028B70BD53EC182B48
:1059800051EC100BFEF713FC94ED0A1B53EC112B9A
:10599000FEF78AFD53EC182BFEF709FC94ED080B7B
:1059A00053EC102BFEF780FD41EC100B53EC182B41
:1059B00051EC100BFEF7FBFB94ED060B53EC102B98
:1059C000FEF772FD53EC182BFEF7F1FB94ED041B70
:1059D00053EC112BFEF768FD41EC100B53EC182B28
:1059E00051EC100BFEF7E3FB94ED020B53EC102B84
:1059F000FEF75AFD53EC182BFEF7D9FB94ED000B84
:105A000053EC102BFEF750FDBDEC028B41EC100B5C
:105A100070BD0000000000009FED050B10B553ECB9
:105A2000102B51EC100BFEF7C2FB41EC100B10BD1C
:105A3000000000000000001002E008C8121F08C1AA
:105A4000002AFAD170477047002001E001C1121FFF
:105A5000002AFBD170470000014908607047000030
:105A6000A80000202DE9FF5FDDE90220010DDDF82F
:105A700038B0024310D10F9801244CA2012808D05D
:105A8000002100980F9BC0E90021C0E90243BDE856
:105A9000FF9F6FEA0B01F4E7A1F2FF3144F61050CB
:105AA00041430D140F9801280ED0A5EB0B00401CAC
:105AB0004FF000043E4EDFF8FC90B0F1000AA04623
:105AC00005DACAF1000717E0CBF10000F0E707465E
:105AD00012E0F80707D02246334640464946FEF713
